:100000000C9422020C944A020C944A020C944A0268
:100010000C944A020C944A020C944A020C944A0230
:100020000C944A020C944A020C944A020C944A0220
:100030000C944A020C944A020C944A020C944A0210
:100040000C94702D0C944A020C94E02D0C94BA2D53
:100050000C944A020C944A020C944A020C944A02F0
:100060000C944A020C944A02556E6B6E6F776E20A8
:100070006576656E743A200045565F4A4F494E5F7B
:100080005458434F4D504C4554453A206E6F204ACA
:100090006F696E4163636570740045565F545843E1
:1000A000414E43454C45440045565F5458535441D6
:1000B00052540045565F4C494E4B5F414C495645A2
:1000C0000045565F4C494E4B5F4445414400455600
:1000D0005F5258434F4D504C4554450045565F5272
:1000E000455345540045565F4C4F53545F54535944
:1000F0004E4300206279746573206F6620706179C9
:100100006C6F6164005265636569766564200052B6
:10011000656365697665642061636B0045565F546D
:1001200058434F4D504C4554452028696E636C75BB
:100130006465732077616974696E6720666F7220E9
:1001400052582077696E646F7773290045565F5265
:10015000454A4F494E5F4641494C45440045565F2C
:100160004A4F494E5F4641494C45440045565F4A17
:100170004F494E45440045565F4A4F494E494E4708
:100180000045565F424541434F4E5F545241434BF9
:1001900045440045565F424541434F4E5F4D4953EC
:1001A0005345440045565F424541434F4E5F464FDD
:1001B000554E440045565F5343414E5F54494D45AB
:1001C0004F5554005061636B65742071756575659A
:1001D00064004F505F5458525850454E442C206E86
:1001E0006F742073656E64696E6700030502050114
:1001F000060202050000060000010504042020207C
:100200000E11140C0F12090C0F06090C030609003D
:100210000306100E0C0A0806040240404080FFFF4F
:10022000FFFF000400000002000000010000800049
:100230000000400000002000000010000000050049
:100240000000A027BE33A027BE33A027BE33A127BE
:10025000BE33A127BE33A127BE338025DB33A19156
:10026000D63350CED533C2FDD133C0C8C53341DA01
:100270008E33FF0101010101010901FFC0400000AF
:100280005EBCE2613FDD83C29C7E20A3FD1F410076
:100290009D23BE46DB65F88C11AF32CA57E9743234
:1002A000C03CB3C4CBD2A1B96690D38A3B571BD410
:1002B0002B9A4804EB8D05C4F5888D3F61507D5322
:1002C00074617274696E672053656E736F72005348
:1002D00074617274696E6700000000006700CC00F2
:1002E000B80154039D0700000000240027002A00E5
:1002F00000000000250028002B000000000800027C
:100300000100000304070000000000000000637CFF
:10031000777BF26B6FC53001672BFED7AB76CA8255
:10032000C97DFA5947F0ADD4A2AF9CA472C0B7FD05
:100330009326363FF7CC34A5E5F171D8311504C7C3
:1003400023C31896059A071280E2EB27B27509833A
:100350002C1A1B6E5AA0523BD6B329E32F8453D1DB
:1003600000ED20FCB15B6ACBBE394A4C58CFD0EFD0
:10037000AAFB434D338545F9027F503C9FA851A30A
:10038000408F929D38F5BCB6DA2110FFF3D2CD0C28
:1003900013EC5F974417C4A77E3D645D19736081B9
:1003A0004FDC222A908846EEB814DE5E0BDBE0328A
:1003B0003A0A4906245CC2D3AC629195E479E7C855
:1003C000376D8DD54EA96C56F4EA657AAE08BA78C9
:1003D000252E1CA6B4C6E8DD741F4BBD8B8A703E6B
:1003E000B5664803F60E613557B986C11D9EE1F822
:1003F000981169D98E949B1E87E9CE5528DF8CA170
:10040000890DBFE6426841992D0FB054BB1600001C
:10041000000023002600290004040404040404044A
:10042000020202020202030303030303010204089F
:10043000102040800102040810200102040810204E
:10044000122ECA3211241FBECFEFD8E0DEBFCDBFBF
:1004500027E0AAEDB2E001C01D92A93BB207E1F787
:1004600012E0A0E0B1E0E6EBF4E702C005900D92E7
:10047000AA3DB107D9F712E0C1E2D2E004C021974A
:10048000FE010E94AF34C032D107C9F70E949E2EF0
:100490000C944E3A0C940000FC0120E1215008F429
:1004A000089580E0211181819081990F87FD9160ED
:1004B0009193F4CFBC01E0EEF5E090E080E030E015
:1004C00020E04191942748E0DC01880F991FB7FF95
:1004D00004C051E2852750E195274150A9F72F5FCD
:1004E0003F4F2617370769F70895833081F028F4C6
:1004F000813099F08230A9F008958730A9F08830D2
:10050000C9F08430B1F4809180008F7D03C0809168
:1005100080008F7780938000089584B58F7784BDA5
:10052000089584B58F7DFBCF8091B0008F77809345
:10053000B00008958091B0008F7DF9CF1F93CF93C5
:10054000DF93282F30E0F901E650FD4F8491F90147
:10055000E45DFB4FD491F901E85EFB4FC491CC23DD
:10056000A9F0162F81110E947502EC2FF0E0EE0F1A
:10057000FF1FE051FD4FA591B4918FB7F894EC9116
:10058000111108C0D095DE23DC938FBFDF91CF918E
:100590001F910895DE2BF8CFCF93DF9390E0FC01FD
:1005A000E45DFB4F2491885E9B4FFC01849188237E
:1005B000D1F090E0880F991FFC01EA51FD4FA59101
:1005C000B491FC01E051FD4FC591D49161110EC071
:1005D0009FB7F8948C91E22FE0958E238C9328811D
:1005E000E223E8839FBFDF91CF9108958FB7F894FE
:1005F000EC91E22BEC938FBFF6CF3FB7F89480914C
:100600002B0390912C03A0912D03B0912E0326B5BE
:10061000A89B05C02F3F19F00196A11DB11D3FBF3A
:10062000BA2FA92F982F8827BC01CD01620F711D09
:10063000811D911D42E0660F771F881F991F4A9503
:10064000D1F708958F929F92AF92BF92CF92DF928F
:10065000EF92FF926B017C010E94FD024B015C0155
:10066000C114D104E104F104B9F00E94FD0268193B
:1006700079098A099B09683E73408105910580F3D9
:1006800021E0C21AD108E108F10888EE880E83E063
:10069000981EA11CB11CE4CFFF90EF90DF90CF908B
:1006A000BF90AF909F908F900895AF92BF92CF92DE
:1006B000DF92EF92FF920F931F93CF93DF936C0122
:1006C0007B018B01040F151FEB015E01AE18BF0803
:1006D000C017D10759F06991D601ED91FC910190B5
:1006E000F081E02DC6010995892B79F7C501DF91CD
:1006F000CF911F910F91FF90EF90DF90CF90BF901F
:10070000AF900895FC01538D448D252F30E0842F48
:1007100090E0821B930B541710F0CF960895019729
:100720000895FC01918D828D981761F0A28DAE0F16
:10073000BF2FB11D5D968C91928D9F5F9F73928F9D
:1007400090E008958FEF9FEF0895FC01918D828DC9
:10075000981731F0828DE80FF11D858D90E0089596
:100760008FEF9FEF0895FC01918D228D892F90E0EE
:10077000805C9F4F821B91098F739927089586EEA5
:1007800096E00E94B30321E0892B09F420E0822F38
:10079000089580E090E0892B29F00E94BF03811129
:1007A0000C9400000895FC01A48DA80FB92FB11D71
:1007B000A35ABF4F2C91848D90E001968F73992797
:1007C000848FA689B7892C93A089B1898C91837075
:1007D00080648C93938D848D981306C00288F3896E
:1007E000E02D80818F7D80830895EF92FF920F939B
:1007F0001F93CF93DF93EC0181E0888F9B8D8C8DCD
:1008000098131AC0E889F989808185FF15C09FB7C0
:10081000F894EE89FF896083E889F9898081837083
:10082000806480839FBF81E090E0DF91CF911F9132
:100830000F91FF90EF900895F62E0B8D10E00F5F53
:100840001F4F0F731127E02E8C8D8E110CC00FB629
:1008500007FCFACFE889F989808185FFF5CFCE01C1
:100860000E94D303F1CFEB8DEC0FFD2FF11DE35A66
:10087000FF4FF0829FB7F8940B8FEA89FB89808144
:100880008062CFCF0F931F93CF93DF938C01D0E083
:10089000C0E0F801EC0FFD1F6491662341F086EE85
:1008A00096E00E94F503892B11F02196F2CFCE013C
:1008B000DF91CF911F910F910895CF93DF93EC01BA
:1008C000888D8823B9F0AA89BB89E889F9898C9138
:1008D00085FD03C0808186FD0DC00FB607FCF7CFF4
:1008E0008C9185FFF2CF808185FFEDCFCE010E94F4
:1008F000D303E9CFDF91CF910895DC0180E061500F
:1009000090F09D919827E92FEF70F0E0E158FD4FAE
:100910002491E92FE295EF70F0E0E157FD4FE4916B
:10092000822F8E27ECCF0895DC012C911196ED914A
:10093000FC91F8948181822B81839281322F3095B2
:100940009323928387E090E00197F1F781818323DD
:10095000818383E290E00197F1F790817894EFEC46
:10096000F0E03197F1F7922381E009F480E00895F7
:10097000FC0190810180F281E02D292F209560FFFC
:1009800014C0F8948281822382838181892B8183A0
:10099000A3E2B0E01197F1F78281982B92837894CB
:1009A00087ED90E00197F1F70895F8948281822312
:1009B00082838181892B8183AFEFB0E01197F1F7BA
:1009C0008281982B928378948FE090E0EBCFDF9236
:1009D000EF92FF920F931F93CF93DF93EC01D62EEC
:1009E000E42E08E010E0FF24F39461E08D2D8F21C8
:1009F00009F460E0CE010E94B804FF0C0150110917
:100A0000A1F7E11010C0F894E981FA819181888101
:100A1000809589238183E981FA81928188818095FB
:100A2000892382837894DF91CF911F910F91FF905A
:100A3000EF90DF900895EF92FF920F931F93CF9363
:100A4000DF938C017B0140E065E50E94E704E7014C
:100A500088E0E80EF11C699140E0C8010E94E704BB
:100A6000CE15DF05C1F7DF91CF911F910F91FF9058
:100A7000EF900895FC0190810180F281E02DF894BF
:100A80008181292F20958223818378943DE743E05B
:100A900050E0315029F1DA011197F1F78081892373
:100AA000C1F3F8948281822382838181892B81839F
:100AB0007894ABE7B7E01197F1F7F894818182233E
:100AC0008183A3E1B1E01197F1F78081982381E060
:100AD00009F080E07894E3E6F6E03197F1F70895C5
:100AE00080E008956F927F928F929F92AF92BF9213
:100AF000CF92DF92EF92FF920F931F93CF93DF93EA
:100B00008C01EB0180918E0790918F070E943A052E
:100B1000882309F43FC0B80180918E0790918F0718
:100B20000E941B0540E06EEB80918E0790918F072D
:100B30000E94E7047E016E0189E0C80ED11C8E017F
:100B4000A0908E07B0908F0788E0882E912C712C92
:100B500066246394C5010E94940481117628660C72
:100B6000E1E08E1A9108B1F7F80171928F01CE166B
:100B7000DF0631F780918E0790918F070E943A052A
:100B8000813041F4F70181917F01811105C0E017A7
:100B9000F107C1F790E008C068E0CE010E947D0433
:100BA00091E028852813F6CF892FDF91CF911F91EF
:100BB0000F91FF90EF90DF90CF90BF90AF909F90FC
:100BC0008F907F906F900895EFE3F3E0848195819B
:100BD0009483968195839781968387838085928578
:100BE000908782878185938591878387878596857E
:100BF0009787958596879485958784870895CF9361
:100C00002FE333E0BC01605F7F4FDC01F90140E07E
:100C1000CD9150815C2750834F5F34964430C1F7AB
:100C20002F5F3F4F04968617970779F7CF91089566
:100C3000682F86EE96E00E94F50390E080E008952C
:100C4000F8948091EE028F5F8093EE0208950F93E7
:100C50001F930E94FD02AB01BC012091EA02DC015E
:100C6000CA013CE1B695A795979587953A95D1F736
:100C700082278870820F8093EA02E4E07695679578
:100C800057954795EA95D1F79B01382BC901BA01D1
:100C90001F910F910895AF92BF92CF92DF92EF9282
:100CA000FF920F931F93CF93DF938091EE028150B9
:100CB0008093EE02811169C078940BEE12E0D0E0CF
:100CC000C0E0BB24B394E0912403F0912503EC0F22
:100CD000FD1F23812F3F09F451C0F801D080ED2C76
:100CE000F12C30E0F901E650FD4F8491F901E45D0B
:100CF000FB4FC490F901E85EFB4FA490AA2009F4D1
:100D00004FC081110E947502EA2DF0E0EE0FFF1F27
:100D1000E25FFB4FA591B491EC91CE2231E020E04F
:100D200009F430E0832F922FE816F90639F1DB241D
:100D3000F801D082DD2011F1CE01880F991F880FB4
:100D4000991F9C01285E3C4F7901F90180819181B6
:100D5000A281B381892B8A2B8B2B81F40E942706D9
:100D6000611571058105910521F461E070E080E075
:100D700090E0F701608371838283938321960F5FF4
:100D80001F4FC330D10509F09ECFDF91CF911F9146
:100D90000F91FF90EF90DF90CF90BF90AF900895AC
:100DA00090E080E0C1CFCF92DF92EF92FF926B0193
:100DB0007C010E942706A7019601261B370B480BD2
:100DC000590BDA01C901B7FF0CC066277727CB01A1
:100DD000621B730B840B950BFF90EF90DF90CF900D
:100DE0000895833332E09307A105B1058CF068E0E4
:100DF00070E080E090E00E9422030E942706A70195
:100E00009601261B370B480B590BDA01C901E9CFB4
:100E1000181619061A061B0664F424E0880F991F99
:100E20002A95E1F7880F991F880F991F0597019759
:100E3000F1F760E070E0CB01CFCF982FE091240371
:100E4000F091250381818F3F39F061E026812913DC
:100E500001C060E00C949E02089581E0089580E056
:100E60000895089560E070E0CB0108950F931F93FB
:100E70006115710581059105F9F000918A031091C2
:100E80008B0320918C0330918D03DC01CB01800F0B
:100E9000911FA21FB31F80938A0390938B03A0938B
:100EA0008C03B0938D0380918E0390918F030196F4
:100EB00090938F0380938E031F910F910895CF928B
:100EC000DF92EF92FF92A0910E03B0910F03682F73
:100ED0006170ED91FC9111970190F081E02DCD01B1
:100EE00009956B017C01C114D104E104F10461F0A6
:100EF0000E9427066C0D7D1D8E1D9F1DFF90EF909B
:100F0000DF90CF900C94D306FF90EF90DF90CF90BE
:100F10000895FC01208131812115310519F490E0FB
:100F200080E008952617370749F4FB0120813181BD
:100F3000FC013183208381E090E00895C901E9CF6D
:100F4000CF93DF93EC010E94200680915F03909184
:100F50006003A0916103B0916203892B8A2B8B2BD4
:100F600031F584EE96E06DE573E00E9489071092FA
:100F70005E0310925D0310925F0310926003109263
:100F8000610310926203D0936403C0936303E09102
:100F9000E406F091E506A4EEB6E0309759F48DE54D
:100FA00093E08D939C93DF91CF910C944B0682EE4E
:100FB00096E0D9CFDF010190F081E02DEECF0E94C5
:100FC000200680915F0390916003A0916103B0912E
:100FD0006203892B8A2B8B2B41F484EE96E06DE51E
:100FE00073E00E9489070C944B0682EE96E0F7CFDF
:100FF000CF92DF92EF92FF920F931F93CF93DF93E5
:10100000EC016A017B018901C114D104E104F104FE
:1010100021F4C12CD12C7601C3940E9420068A8130
:101020009B81AC81BD81892B8A2B8B2B89F584EE2A
:1010300096E0BE010E94890719821882CA82DB826B
:10104000EC82FD821F830E83E091E206F091E306BD
:1010500022EE36E0309779F082819381A481B581C8
:101060008C199D09AE09BF09181619061A061B0628
:1010700094F4F983E883F901D183C083DF91CF91A0
:101080001F910F91FF90EF90DF90CF900C944B0643
:1010900082EE96E0CECF9F010190F081E02DDACF75
:1010A000609182047091830421E030E002C0220F3D
:1010B000331F8A95E2F790E080E0A1E0B0E0AD0157
:1010C000082E02C0440F551F0A94E2F74623572307
:1010D000452B59F0FC01EE0FFF1FEE59FB4F4081ED
:1010E000518142235323452B31F4019680319105E0
:1010F00031F780E0089581E00895982F6038C1F0BD
:101100008091A0046817A1F06093A00481E0209171
:10111000A104291761F09093A10480918604909115
:1011200087049860909387048093860481E00895F3
:1011300080E0EDCF4F925F926F927F928F929F925D
:10114000AF92BF92CF92DF92EF92FF920F931F93D5
:10115000CF93DF936B017C0149015A01E801609153
:101160005B0370915C036115710531F061364CE3EE
:10117000740710F060E67CE390E080E0A701960140
:101180000E94C334722E032F142FB52FF62FE72F92
:10119000582E692EA0E00E94923584F42150310926
:1011A0004F4F5F4F6F4F7F4F8F4F9F4F722E032FC9
:1011B000142FB52FF62FE72F582E692E272D302FFD
:1011C000412F5B2F6F2F7E2F852D962D00E10E94E2
:1011D000753529013A01A5019401220F331F441FDF
:1011E000551FC301B201660F771F881F991F620F39
:1011F000731F841F951F64587F4F8F4F9F4F0E940E
:1012000090342C0F3D1F63E87FEF8FEF9FEF641941
:10121000750986099709211544E0340710F02FEF6E
:1012200033E030939804209397046C0D7D1D8E1D40
:101230009F1DDF91CF911F910F91FF90EF90DF9055
:10124000CF90BF90AF909F908F907F906F905F9066
:101250004F90089520918A0430918B0420383F4F9D
:1012600021F090938B0480938A040895982F8091A5
:101270009D05E0919C05882361F0EF30A0F481E0AA
:101280008E0F80939C05F0E0E256FA4F908381E048
:101290000895E33F48F481E08E0F80939C05F0E0D1
:1012A000E755FB4FF3CF80E00895CF93DF93C62F30
:1012B000D0919C050E943609811106C0D0939C05EF
:1012C00080E0DF91CF9108958C2F0E94360988230A
:1012D000A9F381E0F6CF1092D5051092D60580EAE9
:1012E00097E2AEEBB3E38093BA039093BB03A09372
:1012F000BC03B093BD030895CF93DF93CFE4D3E055
:101300001092B6031092B7031092B8031092B9036B
:101310001092B2031092B3031092B4031092B5036B
:101320001092A3041092CF051092CE051092CD0515
:1013300010929F041092A4041092D7051092D90520
:101340001092D8051092D4050E946B0985E0809315
:10135000DF0680EA97E2AEEBB3E38FAB98AFA9AFBD
:10136000BAAF83E08AA7DF91CF910895FC01608135
:1013700071818281938108950F931F9301970E9439
:10138000B609272F382F492F5527A4E6B0E00E9431
:10139000FD338B019C01005C154520473343013C24
:1013A0001F4C2A46310518F060E070E0CB011F9118
:1013B0000F9108950F931F93CF938091DF05813193
:1013C00009F088C0C091E70587E090E00E945A02CA
:1013D000C81709F47FC080EE95E00E94B6099927EE
:1013E0000091AA031091AB032091AC033091AD039F
:1013F000061717072807390709F06EC0C091770351
:10140000CC7FC0937703809196048093760380917C
:1014100095048093750380919A0390919B03A0910A
:101420009C03B0919D0380549342A109B10980931C
:10143000650390936603A0936703B093680383EEFC
:1014400095E00E94B6096093690370936A038093E4
:101450006B0390936C038C2F8160809377030091D2
:10146000EF051091F0058FE090E00E945A0280177E
:101470009107A1F588EE95E00E94B609672F782FB5
:10148000892F992787FD9A9560936D0370936E035A
:1014900080936F03909370038BEE95E00E94B609E2
:1014A000672F782F892F992787FD9A95609371036D
:1014B0007093720380937303909374038091E80593
:1014C00080937803C360C093770381E0CF911F912D
:1014D0000F9108958EEFFACF8FEFF8CF80E0F6CF1F
:1014E000BF92CF92DF92EF92FF920F931F93CF9311
:1014F000DF93EC01B62EC72E8D85811105C0CE017C
:101500000E943A0581110EC01B861D861C8680E054
:10151000DF91CF911F910F91FF90EF90DF90CF90CF
:10152000BF90089540E060EFCE010E94E70401E023
:10153000E12CD12C11E0CE010E949404F82ECE01B2
:101540000E94940491E0F91218C0813099F5113489
:10155000D8F2DB86D11002C081E08D878B81882391
:1015600099F22396EB2DFC2DCF010896299121931A
:10157000E817F907D9F781E0CBCFEE2DF0E0F812AC
:101580000FC08B851817A0F4DE01AE0FBF1F139696
:101590008C91802379F4F12C193008F41C87D12E1A
:1015A000EC0FFD1F8381902F9095892383830AC0C0
:1015B0008113F1CFFE01EE0DF11D8381802B83831A
:1015C000FF24F3946F2DCE010E94B8041F5F000F1B
:1015D00011F4E39401E087E08E1508F0ACCFB7CFAB
:1015E000FC0101900020E9F73197AF01481B590B2E
:1015F000BC0186EE96E00C9455038F929F92AF92B9
:10160000BF920F931F93CF93DF93CDB7DEB7A19710
:101610000FB6F894DEBF0FBECDBF19A2423008F45A
:101620004AE08E010F5D1F4F842E912CB12CA12C0E
:10163000A50194010E946E34E62FB901CA01EA3077
:10164000F4F4E05DD801EE938D01232B242B252BA0
:1016500079F790E080E0109719F0CD010E94F00A30
:10166000A1960FB6F894DEBF0FBECDBFDF91CF912C
:101670001F910F91BF90AF909F908F900895E95C5C
:10168000E1CFCF93DF930E94F00AEC018AE391E06F
:101690000E94F00A8C0F9D1FDF91CF910895CF9388
:1016A000DF930E944204EC018AE391E00E94F00A79
:1016B0008C0F9D1FDF91CF9108958C01EB018DE37D
:1016C00091E00E94410BC8010E94F00A6AE386EE95
:1016D00096E00E94F503BE0190E080E04AE00E949F
:1016E000FD0A8AE391E00E94F00A86EE96E00E94ED
:1016F0005D040E942006FFCFCF92DF92EF92FF920F
:10170000CF93DF93EC010E9427066B017C014AE036
:10171000F7FE0DC06DE286EE96E00E94F5036627A7
:101720007727CB016C197D098E099F094AE00E9439
:10173000FD0A8DE592E00E94F00AFE013197E43146
:10174000F10508F087C0E955F44F0C94AF34BB0B9A
:10175000C50BC80BCB0BCE0BD10B2A0CD40BD70B64
:10176000DA0B120C150C180C1B0C1E0C2A0C210C7D
:10177000240C3E0C270C84EB91E0DF91CF91FF907D
:10178000EF90DF90CF900C944F0B84EA91E0F5CF6F
:1017900083E991E0F2CF81E891E0EFCF86E791E035
:1017A000ECCF8CE691E0E9CF8DE591E0E6CF8CE4DB
:1017B00091E0E3CF8CE191E00E944F0B8091DD0539
:1017C00087FF04C08FE091E00E944F0B8091DF05FE
:1017D0008823A1F085E091E00E944F0B6091DF0526
:1017E00070E090E080E04AE00E94FD0A8AE391E028
:1017F0000E94F00A83EF90E00E944F0B0E942706A0
:10180000AB01BC014059574C664C7F4F26E735E28F
:1018100080E193E0DF91CF91FF90EF90DF90CF9048
:101820000C94F80785EE90E0A8CF8CED90E0A5CF62
:101830008EEC90E0A2CF81EC90E09FCF83EB90E024
:101840009CCF88EA90E099CF8AE990E096CF88E72C
:1018500090E093CF88E690E00E944204BE0190E0C1
:1018600080E04AE00E94FD0A8AE391E0DF91CF9197
:10187000FF90EF90DF90CF900C94F00ADF91CF9122
:10188000FF90EF90DF90CF900895CF92DF92EF928C
:10189000FF92CF93DF93EC01C12CD12C7601C3943E
:1018A0000C2E04C0CC0CDD1CEE1CFF1C0A94D2F7DD
:1018B000E3FC03C0CE010E947C0BD701C601882740
:1018C0009472AA27BB27892B8A2B8B2B01F1E091DD
:1018D0005303F09154033097D1F02091DF054091EC
:1018E000DE05211102C0442391F08091DD0550E016
:1018F00060E084FF04C0DA01A152BA4F6C9130E07D
:1019000040525A4F80915503909156030995CC242B
:1019100084E0D822E822FF24CD28CE28CF2819F150
:10192000E0915703F09158033097E9F01092580373
:1019300010925703C231D10541F18091DD0583FD3D
:1019400024C09091A70461E0992339F0082E000C7F
:10195000990B692F661F6627661F70E080915903F7
:1019600090915A030995E0914F03F09150033097FD
:1019700071F0BE018091510390915203DF91CF919C
:10198000FF90EF90DF90CF90099460E0E6CFDF9179
:10199000CF91FF90EF90DF90CF9008950F931F931A
:1019A000CF93DF9300D000D0CDB7DEB7DB011C961C
:1019B0009C911C971E963C911E971F962C911F97E9
:1019C0001D964C911D9749833A832B839C83BE01BE
:1019D0006B5F7F4F9E012F5F3F4FF90111919F0178
:1019E000412F42954F70F0E14F9FA0011124E12F4C
:1019F000EF70E40FF52FF11DE25FFC4F9491A90108
:101A000041505109FA0190832617370731F791E0C9
:101A10005BE1813039F0492F440F97FD4527815014
:101A2000942FF7CF8981982799838D0194E0FE0147
:101A30003196A801DA018D91AD0161918627BD0132
:101A400061507109DB018C93BF0161507109DB01A9
:101A50008C93E217F30771F791500C5F1F4F9111B0
:101A6000E6CF0F900F900F900F90DF91CF911F91C5
:101A70000F9108953F924F925F926F927F928F9253
:101A80009F92AF92BF92CF92DF92EF92FF920F930D
:101A90001F93CF93DF93CDB7DEB768970FB6F89457
:101AA000DEBF0FBECDBF8C012FE3C22E23E0D22EAE
:101AB000AC01405F5F4FC6017801FC01D70120E017
:101AC0003D9130832F5F34962430D1F724E0E20E2D
:101AD000F11C01964E155F0581F7AFE2B3E0FE0100
:101AE00031968FE393E05E2E6F2E2D9121938A170E
:101AF0009B07D9F7852D962D0E94FF05442443941A
:101B000083E4A82E83E0B82E4E0139E1830E911CA8
:101B10009BE1392E8FE393E024E0DC01712CEC9102
:101B20004E2F42954F7030E1439FA0011124EF707A
:101B3000E40FF52FF11DE25FFC4FE491EC937394F9
:101B4000149654E07512EBCF215001962111E5CF88
:101B50000E94E405EFE3F3E0CE014596BE016F5E1F
:101B60007F4F9F01D9015C91DC015D93CD01452F31
:101B7000440F57FD83C0DB014C932C5F3F4F6F5FD9
:101B80007F4F8816990671F78E89398938272F89F2
:101B9000688D9A8992279627432F492741934D892B
:101BA0005B899427952793839C898627842785279B
:101BB000892787832427292732273387AE16BF0634
:101BC00059F6652D762D842D0E94CE0C852D962DEF
:101BD0000E94FF054394BAE04B129CCF8FE393E041
:101BE000DC0140E0EC912E2F22952F7050E1259FD3
:101BF00090011124EF70E20FF32FF11DE25FFC4F13
:101C0000E491EC934F5F1496443061F77A94019617
:101C10007110E6CF0E94E405652D762D8AE00E94C2
:101C2000CE0C852D962D0E94FF05D801F60180E08F
:101C300090819D938F5F34968430D1F78FEFC81ACF
:101C4000D80A0C5F1F4FE016F10679F768960FB6B9
:101C5000F894DEBF0FBECDBFDF91CF911F910F91E2
:101C6000FF90EF90DF90CF90BF90AF909F908F90BC
:101C70007F906F905F904F903F90089543257BCF6A
:101C80008F929F92AF92BF92DF92EF92FF920F934B
:101C90001F93CF93DF93D82EEB018A01E22EE091C0
:101CA0002403F0912503F08080849184A284B3847E
:101CB00081149104A104B10439F420E4822E22E4B9
:101CC000922E2FE0A22EB12C40E052E16AE770E0A4
:101CD00080E084169506A606B70640F476956795CB
:101CE000579547958F5F8630A1F787E0982F906AC8
:101CF0009695809581709CBD8DBD60E08F2D0E9472
:101D00009E02DEBC00000DB407FEFDCF8EB50C0FA9
:101D10001D1FC017D10771F080E0E11001C088815C
:101D20008EBD00000DB407FEFDCF8EB5E110888397
:101D30002196EFCF61E08F2DDF91CF911F910F9111
:101D4000FF90EF90DF90BF90AF909F908F900C949A
:101D50009E02CF93DF931F92CDB7DEB721E041E023
:101D600050E0BE016F5F7F4F0E94400E89810F904F
:101D7000DF91CF910895CF93DF931F92CDB7DEB758
:101D8000698320E041E050E0BE016F5F7F4F8068D3
:101D90000E94400E0F90DF91CF910895CF93C82FEE
:101DA00062E082E00E94BB0E60E883E00E94BB0E0E
:101DB00061E084E00E94BB0E69E985E00E94BB0EF1
:101DC00062E187E20E94BB0E60EDC11168ED80E325
:101DD0000E94BB0E60E481E30E94BB0E61EC88E2CE
:101DE0000E94BB0E64E989E20E94BB0E61EC8AE2AC
:101DF000CF910C94BB0E0F931F93CF93DF93C091A1
:101E00009B04C4310CF040C0CE30CCF1C2310CF098
:101E1000C1E161E080910E0390910F030091A20354
:101E20001091A3032091A4033091A503DC01ED914F
:101E3000FC910084F185E02D4C2F0995813059F1FA
:101E40008230E1F1CF301CF5CC301CF1C067D7E017
:101E500014E06C2F89E00E94BB0E8DE40E94A90E55
:101E6000887F682F612B8DE40E94BB0E6D2F60620E
:101E70008BE0DF91CF911F910F910C94BB0ECC3F63
:101E80000CF4CCEF60E0C6CF62E0C4E1C3CFCEE09B
:101E9000DDCFCC5FDCCF80918404877011F4CB3030
:101EA0005CF0C2302CF4C2E0C250C068DBE0D0CF9E
:101EB000C231D4F3C1E1F8CFCBE0F6CFD0E117E0E7
:101EC000CFE8C7CFAF92BF92CF92DF92EF92FF924F
:101ED0000F931F93CF93DF938091A2039091A3035D
:101EE000A091A403B091A5039C01AD0160E070E056
:101EF00080E090E003E10E945C35A12CE8E4BE2E76
:101F0000F8EECF2EDD24D394E12CF12C00E010E08C
:101F10000E94FF34C22FB32E6A017B01182FD92FE4
:101F200000E10E947735622F86E00E94BB0E2C2FC5
:101F30003B2DA601B701812F9D2F08E00E94773528
:101F4000622F87E00E94BB0E6C2F88E0DF91CF915B
:101F50001F910F91FF90EF90DF90CF90BF90AF90C7
:101F60000C94BB0E1F93CF93DF9360918404709108
:101F70008504162F1770CB0133E0969587953A9517
:101F8000E1F7D82FD370D13059F008F466C0D230C1
:101F900009F465C066EC71E086E491E00E945D0B97
:101FA000C0E8CB0125E0969587952A95E1F78370E7
:101FB000823009F458C0833009F457C0813009F4E5
:101FC00050C0C260672F77276115710521F0C1608D
:101FD00082E20E94BB0E6C2F8DE10E94BB0E6091CD
:101FE0009804637060598FEF810F8295807F680F2E
:101FF0008091840487FF64608EE10E94BB0E8BEFAA
:10200000810F823010F4DD2391F1163011F4D130BC
:1020100071F164E086E20E94BB0EC0E063E0D23062
:1020200081F48091A2039091A303A091A403B091A5
:10203000A503CFE781349D4DAA44BF4108F0C4E613
:1020400062E086E30E94BB0ECC2399F06C2F8AE3FA
:10205000DF91CF911F910C94BB0EC0E7A2CFC0E9D6
:10206000A0CFC460AFCFC660ADCFC860ABCF6CE0CF
:10207000D1CFDF91CF911F910895CF93DF93D82FC8
:10208000C82FC77019F081E00E945F076D2F81E0B3
:102090000E94BB0EC11105C080E0DF91CF910C946E
:1020A0005F07DF91CF9108958091A2039091A303E0
:1020B000A091A403B091A50381349D4DAA44BF41D2
:1020C00018F488E00C943D1080E0FCCF8091A203CE
:1020D0009091A303A091A403B091A50381349D4DD9
:1020E000AA44BF4118F488E80C943D1080E8FCCF66
:1020F000CF93C82F81E00E94A90E887F8C2BCF91AF
:102100000C943D10E82FF0E0EE58FD4FE491EF3FC6
:1021100009F0815008951092DF05E091DF0684E018
:10212000E89FF0011124EE51FC4F80819181A28142
:10213000B3818C7F8093A2039093A303A093A40305
:10214000B093A50381E891E1909385048093840482
:1021500008958F929F92AF92BF92CF92DF92EF92AB
:10216000FF920F931F93CF93DF93E9016A017B01E5
:102170009CEFC922833008F074C0C114D104E1047B
:10218000F10409F471C064E0869FF0011124EE515E
:10219000FC4F80809180A280B3807CEF87228C14DA
:1021A0009D04AE04BF0409F05FC00F3FA1F44AE5EF
:1021B00052E0A2E7B2E0FA01059115912591349120
:1021C000480159019CEF8922C814D904EA04FB0490
:1021D00008F44CC00370E82FF0E0DF01AA0FBB1F2A
:1021E000AA0FBB1FAE51BC4F002E000C110B220BCF
:1021F000330B0C291D292E293F290D931D932D9357
:102200003C931397209711F4CFE3D0E0EE0FFF1F1C
:10221000EE59FB4FD183C0834091820450918304D7
:1022200021E030E0B90102C0660F771F8A95E2F71E
:10223000CB01CD28CE28CF2809F1842B952B909364
:1022400083048093820481E0DF91CF911F910F91ED
:10225000FF90EF90DF90CF90BF90AF909F908F90C6
:102260000895803108F4A1CF80E0EECF4C5F5F4F3E
:10227000A417B50709F09FCF00E0ADCF80959095EA
:1022800084239523DCCF94E0899FF0011124EE5D37
:10229000FD4F659175918591949108958F929F92CC
:1022A000AF92BF92CF92DF92EF92FF92882379F0A4
:1022B00010928D0410928C0410929104109290044C
:1022C0001092DA05809177038C608093770383E026
:1022D0000E9443114B015C016DE273E080E090E0ED
:1022E000A50194010E949034C9010596909393042E
:1022F00080939204C0906503D0906603E0906703DA
:10230000F090680382E1D80E8AE7E81EF11CD9013B
:102310001397A50194010E94FD33C61AD70AE80A53
:10232000F90AC092BE03D092BF03E092C003F092BC
:10233000C103FF90EF90DF90CF90BF90AF909F9040
:102340008F9008958F929F92AF92BF92CF92DF921B
:10235000EF92FF920F931F93CF93DF934B015C019A
:10236000EA01822F0E9443119B01AC01C0909603A9
:10237000D0909703E0909803F090990306E010E066
:10238000C501B4010E949A08AB01BC014C0D5D1D52
:102390006E1D7F1D40939A0350939B0360939C0393
:1023A00070939D0341575240610971099E018DE56B
:1023B00093E0DF91CF911F910F91FF90EF90DF900D
:1023C000CF90BF90AF909F908F900C94F8078F9212
:1023D0009F92AF92BF92CF92DF92EF92FF92CF93F4
:1023E000C62FA0918C04B0918D046D010B2E000CB2
:1023F000EE08FF08E0918E04F0918F044F010F2E3C
:10240000000CAA08BB088823D1F0482F50E09A019D
:102410000E94BC346B017C0187E0F594E794D7946B
:10242000C7948A95D1F7DF010E94BC344B015C014F
:1024300097E0B594A794979487949A95D1F72091B3
:10244000DA05A0919004B091910430E00E94BC3470
:10245000860E971EA81EB91E8C2F0E9443119B0149
:10246000AC01C501B4010E949034DA01C90105969E
:10247000A11DB11D811524E09207A105B1053CF015
:102480008FEF93E0909398048093970406C0B7FF72
:10249000F9CF10929804109297048C2F0E94431148
:1024A0009B01AC01ADEFBFEF0E94FD336C0D7D1DB4
:1024B0008E1D9F1DCF91FF90EF90DF90CF90BF902A
:1024C000AF909F908F900895E82FF0E0ED58FD4F6A
:1024D000E49181E0EF3F09F480E008956F927F92EC
:1024E0008F929F92AF92BF92CF92DF92EF92FF9224
:1024F0000F931F93CF93DF93CDB7DEB760970FB6DF
:10250000F894DEBF0FBECDBF7B018A01282F30E0DB
:10251000277F2230310549F02430310509F4CBC042
:10252000232B09F09FC0D12C98C083FD32C08AEDC7
:1025300092E00E943A0D90E1692EFE0131966F0102
:102540002AEE822E22E0922E37E8732E0115110515
:1025500009F060C06091DA027091DB028091DC02C8
:102560009091DD020E94B53460960FB6F894DEBFFC
:102570000FBECDBFDF91CF911F910F91FF90EF90D4
:10258000DF90CF90BF90AF909F908F907F906F9093
:102590000895EAEDF2E080E1DF011D928A95E9F706
:1025A000CACF01151105E9F5E62FF0E0E652FD4F1F
:1025B00080818058808311E0D601E62D1D92EA9536
:1025C000E9F7C6010E943A0D0981C6010E944C023A
:1025D00007FF03C088898725888B112349F019815B
:1025E000C6010E944C0217FF03C088898725888B8B
:1025F000F601D5018D915D019191119789278C93F9
:102600008A149B04B1F710E000E08AED92E00E948A
:102610003A0D9CCF8AEDA82E82E0B82ED701950105
:1026200060E0F90181919F019D91AF0141505109F5
:102630008927FA0180836F5F7D01015011096031A4
:1026400009F0AFCF0115110501F710E0B5CF8E0DE0
:102650009F1D0E943A0DB0E1DB0E8D2D90E080179A
:102660009107A8F360E070E0CB017ECF80E1EAED56
:10267000F2E0DE01119601900D928A95E1F7CE010C
:1026800001960E943A0DFE0131969701205F3F4F5F
:102690009191D7018C9189278D937D01015011096A
:1026A000A217B30719F00115110591F78091E902FE
:1026B0008F5F8093E90201151105C1F6D3CFCF9248
:1026C000DF92EF92FF920F931F93CF93DF93EFE28E
:1026D000F3E080E1DF011D928A95E9F7E8EEF5E08D
:1026E00088E0DF011D928A95E9F7CFE4D3E03A8DC7
:1026F0002B8D9C8D8D8D00EE15E0F801308320939D
:10270000E1059093E2058093E3053091AE032091BB
:10271000AF039091B0038091B1033093E40520930F
:10272000E5059093E6058093E70540E150E0B801A8
:1027300080E00E946E124BA587E090E0841B910917
:102740002FEF3FE002C0359527958A95E2F7D80133
:102750008D919C9128233923A3E5B7E00E943F3453
:10276000CE88DF88E88CF98CB4E9CB0EB5E0DB1EAF
:10277000B2E0EB1EF11CC60ED71EE81EF91ECFA656
:10278000D8AAE9AAFAAA1CA681E090E001C0880FA5
:102790004A95EAF76AA58E5F0E94E711C61AD70A22
:1027A000E80AF90ACBAADCAAEDAAFEAA809197044E
:1027B000909198049EA78DA7DF91CF911F910F91C3
:1027C000FF90EF90DF90CF9008958F929F92AF92FD
:1027D000BF92CF92DF92EF92FF920F931F93CF930E
:1027E000DF936B017C01EA0180918604909187045C
:1027F000827096708230944059F40E945F138091E9
:102800008604909187049260909387048093860455
:1028100080919904E0919D0494E0E99FF0011124D6
:10282000EE5DFB4F408151816281738141155105FD
:102830006105710541F04093A2035093A303609397
:10284000A4037093A5039091D505963008F095E008
:10285000891B20E087300CF027E020939904E22FB9
:10286000022E000CFF0BED58FD4FE491F0E0EF77E6
:10287000E068F0938504E09384042730C9F58090E4
:10288000960390909703A0909803B0909903C70186
:10289000B6016A5071098109910900E410E021E054
:1028A00030E040E050E00E949A08AB01BC01480DC6
:1028B000591D6A1D7B1D40939A0350939B0360939F
:1028C0009C0370939D0341575240610971099E0119
:1028D0008DE593E0DF91CF911F910F91FF90EF90E5
:1028E000DF90CF90BF90AF909F908F900C94F8079F
:1028F000AE01C701B601DF91CF911F910F91FF90FB
:10290000EF90DF90CF90BF90AF909F908F900C94FE
:10291000A21148E358E164EB74EC84E090E00C947D
:10292000E5132091D00530E0A4E2B4EF0E943F34DB
:1029300044E358E10C94E5139091EF02911106C025
:102940006CE874E086E491E00E945D0B903141F404
:1029500040E150E06FEE72E080E00E946E1290E085
:10296000E92FF0E0E151FD4F80819F5F9093EF02EE
:102970000895CF93DF9398E0899FE0011124C15B14
:10298000DC4FFE01EB58FF4F608332975183408349
:102990000E942706FE01E958FF4F608371838283FE
:1029A00093830E949C14CA58DF4F8F70888381E004
:1029B000DF91CF910895CF92DF92EF92FF92CF9364
:1029C000C82F0E949C14F82E0E949C149F2D6C010D
:1029D000853224EF920720F024E2C21A24EFD20AB3
:1029E000F12CE12CCC2369F06C2F0E944E34292F5E
:1029F00030E0A4E2B4EF0E943F34C60ED71EE81EBA
:102A0000F91EC701B601CF91FF90EF90DF90CF90F4
:102A10000895CF92DF92EF92FF926B017C01842F99
:102A2000442331F00E94DB14C60ED71EE81EF91EA7
:102A300080919E048823A9F08091A6039091A7031A
:102A4000A091A803B091A903A7019601281B390BF7
:102A50004A0B5B0BDA01C901181619061A061B0688
:102A60008CF4C092A603D092A703E092A803F09240
:102A7000A9038091860490918704916090938704C4
:102A800080938604FF90EF90DF90CF900895CF93CE
:102A9000DF9390E4E2EEF3E0DF01292F1D922A9507
:102AA000E9F7E2E2F4E0DF011D929A95E9F790E29E
:102AB000E2E6F4E0DF01292F1D922A95E9F7E2EC26
:102AC000F3E0DF011D929A95E9F727E030E03093BB
:102AD000830420938204811130C083E0C2EED3E0EE
:102AE000A2E6B4E093E0980F2FE330E044E0849F47
:102AF000F0011124EE5BFD4F459155916591749164
:102B000049935993699379932D933D938F5F8913DB
:102B1000EDCF48EE53E06EE080E00E94B91444E649
:102B200050E06EE081E00E94B9144AE050E06BE1B1
:102B300082E0DF91CF910C94B91480E0CFCFCF9297
:102B4000DF92EF92FF928091AE039091AF03A0913C
:102B5000B003B091B103892B8A2B8B2B09F054C0A1
:102B6000809186049091870410929E048E7C977ABF
:102B700090938704809386041092DC051092A3043E
:102B80000E946B090E949C1463E00E944E34909353
:102B90009D0480E18093A00485E08093A10481E0FE
:102BA0000E944715809186049091870493FF06C088
:102BB0006AE870E082E891E00E945D0B0E942706BF
:102BC0006B017C0188E00E94DB14C60ED71EE81E54
:102BD000F91EC0929603D0929703E0929803F09268
:102BE0009903809186049091870484609093870470
:102BF0008093860481E593E20E94A00781E0FF9024
:102C0000EF90DF90CF90089580E0F9CFFF920F937F
:102C10001F93CF93DF93CDB7DEB72E970FB6F894FF
:102C2000DEBF0FBECDBF80E00E9478100E94DF079C
:102C30008EE0EFE4F3E0DE01119601900D928A95AB
:102C4000E1F70FE413E083E993E0F8019C011192AE
:102C500021503040E1F78EE0FE013196D80101901D
:102C60000D928A95E1F70E949C14F82E0E949C1404
:102C70009F2D90938904809388041092870410926A
:102C800086041092A20480E88093D3050E946B0909
:102C900081E08093D00580EA97E2AEEBB3E3F801E0
:102CA00087AB90AFA1AFB2AF83E082A78FEF83A7CE
:102CB0002E960FB6F894DEBF0FBECDBFDF91CF9139
:102CC0001F910F91FF9008957F928F929F92AF92E4
:102CD000BF92CF92DF92EF92FF920F931F93CF9309
:102CE000DF93C82F0E94661081E00E94A90E87FD25
:102CF00006C06BE973E086E491E00E945D0B81E021
:102D00000E947810C23009F0A1C06AE08DE10E94F3
:102D1000BB0E60E78EE10E94BB0E63E28CE00E9476
:102D2000BB0E6FEF83E20E94BB0E8091E00688230A
:102D300009F491C083E30E94A90E682F6F7B83E39F
:102D40000E94BB0E8091840490918504E3E09695E7
:102D50008795EA95E1F7D82FD37081E30E94A90EF9
:102D60008877682F6360D23008F07BC081E30E94CF
:102D7000BB0E60E48FE20E94BB0E60E480E30E9421
:102D8000BB0E609197048FE10E94BB0E64E389E360
:102D90000E94BB0E6CE080E40E94BB0E6FEF82E1EC
:102DA0000E94BB0EEC2FF0E0E458FD4F649160955B
:102DB00081E10E94BB0E80E00E941D0760E08DE073
:102DC0000E94BB0E60E08FE00E94BB0EC1114DC09F
:102DD00060919A0370919B0380919C0390919D0355
:102DE0000E94D3066B017C0186E00E947810C70127
:102DF000B6010E9436070091840410918504802F4B
:102E0000877056E0D52ED80E980163E03695279549
:102E10006A95E1F72370C80175E0969587957A95D4
:102E2000E1F78370D5E039F0D6E0813021F0D8E0C9
:102E3000823009F4D7E0222379F144EFC42EBB2479
:102E4000B394213061F52AEFC22E28C00E94B20F40
:102E50000E94620F62CF83E30E94A90E682F606414
:102E60006ECF682F636881E38ACF85E00E94781077
:102E7000C23009F0C0CF8FED91E0DF91CF911F916B
:102E80000F91FF90EF90DF90CF90BF90AF909F9009
:102E90008F907F900C94A5373DE7C32EB12CA09066
:102EA000A2039090A3038090A4037090A50393EDD8
:102EB000E92E91E0F92EC11104C085ECE82E81E0E5
:102EC000F82E0E9427061F921F931F92DF93BF9236
:102ED000CF921F92DF927F928F929F92AF92FF923A
:102EE000EF929F938F937F936F938BEE91E09F93DD
:102EF0008F930E948F378DB79EB744960FB6F89484
:102F00009EBF0FBE8DBFDF91CF911F910F91FF909C
:102F1000EF90DF90CF90BF90AF909F908F907F9079
:102F20000895CF92DF92EF92FF92CF93C82F81E066
:102F30000E94A90E877069E274E0C1F48091840454
:102F4000877009F060C0C13041F41092DF058091B4
:102F50006303909164030E94A0070E94541081E0D3
:102F60000E94A90E87FF06C062E074E086E491E04B
:102F70000E945D0B81E00E9478100E94620F63E264
:102F80008CE00E94BB0E6EE18DE00E94BB0E6BE0F8
:102F900082E10E94BB0E62E183E10E94BB0E6AEAFD
:102FA0008FE10E94BB0E6FEF81E20E94BB0E81E0B9
:102FB0000E94CE0E68E380E40E94BB0E80E00E9477
:102FC0001D07C11118C060919A0370919B038091F5
:102FD0009C0390919D030E94D3066B017C0185E0C8
:102FE0000E947810C701B601CF91FF90EF90DF905B
:102FF000CF900C94360785E0CF91FF90EF90DF9053
:10300000CF900C9478108C2FCF91FF90EF90DF90A1
:10301000CF900C94641683E190E00E94450C80E010
:103020000C94911788E19DE290936403809363036D
:103030000C940B1882E291E29093640380936303F3
:103040000C940B1821E02093DD05E4E8F4E02081E6
:1030500031812068318320831092DF0590936403CF
:10306000809363030C940B1888E49DE20C9422185F
:103070008BE595E20C94221882E08093DD05E091C7
:10308000D605F0E0ED58FD4FE491F0E0EF77E06811
:10309000F0938504E09384048091BA039091BB037C
:1030A000A091BC03B091BD038093A2039093A303AE
:1030B000A093A403B093A5031092DF050C940B1802
:1030C0008FE59DE290936403809363030C943C1816
:1030D0008EE695E290936403809363030C943C180E
:1030E000AF92BF92CF92DF92EF920F931F93CF9345
:1030F000DF93DC011A141B04A4F590E1EAEDF2E081
:10310000EF01892F19928A95E9F7F1E0F093E9022E
:10311000F093DA02E092DF024093E0025093E10282
:103120006093E2027093E3020093E4021093E502DD
:103130002093E6023093E702FD01AFE2B3E0019095
:103140000D929A95E1F7A501B60184E0DF91CF9148
:103150001F910F91EF90DF90CF90BF90AF900C94A4
:103160006E12DF91CF911F910F91EF90DF90CF9072
:10317000BF90AF9008952F923F924F925F926F92BF
:103180007F928F929F92AF92BF92CF92DF92EF92F7
:10319000FF920F931F93CF93DF93CDB7DEB7649762
:1031A0000FB6F894DEBF0FBECDBF8091940481119D
:1031B000A3C781E08093940422242394312C80912E
:1031C0008604909187049C01217C3327232B81F472
:1031D0004091AE035091AF036091B0037091B10381
:1031E000452B462B472B21F582FD2EC00E949F15B3
:1031F000809194048150809394048111E0CF64966F
:103200000FB6F894DEBF0FBECDBFDF91CF911F91F7
:103210000F91FF90EF90DF90CF90BF90AF909F9075
:103220008F907F906F905F904F903F902F90089578
:1032300096FF0AC09F7B909387048093860488E062
:1032400091E20E94A007D4CF0E94270669837A8367
:103250008B839C8340908604509087045C8A4B8AC1
:10326000C20182709927812C912C540141FE22C009
:103270008090BE039090BF03A090C003B090C103A4
:1032800001E7801A02E0900AA108B10849815A8139
:103290006B817C81481959096A097B0977FF0AC04B
:1032A00092012D7D397F30938704209386048BE033
:1032B00090E07BC42B893C892C733327232B09F4A2
:1032C000C3C64B895C89447255275A8749878B89C5
:1032D0009C8993FF00C1A0918204B0918304BC87B4
:1032E000AB878091A1048F70F10102C0EE0FFF1F28
:1032F0008A95E2F7FE87ED87FFE0FD8309811A8159
:103300002B813C811E52264B34490F87188B298B09
:103310003A8BCF84D888E988FA884FE453E030E0CC
:1033200020E010E08D81682F70E0DB01022E02C0EA
:10333000B595A7950A94E2F7A0FF15C0DA01A95840
:10334000BF4F4D905D906D907C90D701C601841960
:103350009509A609B709181619061A061B061CF4C2
:10336000122F730162012F5F3F4F485F5F4F243080
:103370003105D9F6412F50E0DA0103E0AA0FBB1F57
:103380000A95E1F79D012B533C4FF901808190E1B3
:10339000412E512C712C612C21E0280F8F502031AF
:1033A00008F4822F282F30E0B101082E02C0660FEA
:1033B000771F0A94E2F70B851C8560237123672B26
:1033C00009F47AC0F901EE0FFF1FEE59FB4F60813F
:1033D0007181ED85FE856E237F23672B09F46CC018
:1033E000220F331F220F331FF901EE51FC4F0081D2
:1033F0001181228133810370112722273327401640
:1034000051066206730609F057C0AB53BC4F8C934C
:1034100080939D04C0929603D0929703E092980304
:10342000F09299030B891C89177F109387040093EE
:103430008604809186049091870420919E04211136
:1034400002C090FF12C04091A6035091A703609163
:10345000A8037091A90397018601041B150B260B85
:10346000370B37FF02C06A017B019C0122703327B2
:1034700081FF3FC049855A85452BB1F144E455E9A8
:1034800068E070E04C0D5D1D6E1D7F1D48195909E7
:103490006A097B09141615061606170654F540E14D
:1034A000C501B4016C567A4F8D4F9F4F0E9409158C
:1034B000C12CD12C760156C5915009F06DCF9101E8
:1034C00001C0220F4A95EAF72095FD81F223FD8382
:1034D000F1111FCF9FCFC0909603D0909703E0903B
:1034E0009803F0909903A5CF48ED58EB65E070E0A4
:1034F000C9CF49815A816B817C814F585D4F6F4F95
:103500007F4F26013701441A550A660A770AB3012C
:10351000A20177FF1EC59090A10469847A84672870
:1035200009F44EC185FF09C07090A3047D820D810E
:1035300001500D830F3F09F03EC11092E0059091BC
:103540008804809189049093F1058093F20543E10A
:1035500050E060EE75E08AE00E946E126093F6051E
:103560007093F5058093F4059093F30587E18093BC
:10357000DF058091880490918904019690938904D5
:103580008093880489E894E19093640380936303B3
:10359000E92DF0E0ED58FD4F8491E091A20400E2A6
:1035A000E09FF00111248F79E82BF0938504E093DC
:1035B00084049092990480918604909187048F7678
:1035C000967F806898609093870480938604A0918A
:1035D0009D0414E0A19FD0011124AE51BC4FCD90A9
:1035E000DD90ED90FC90A091DF054E2F4770B0E08C
:1035F00009F0DEC21B9643E0AA0FBB1F4A95E1F714
:1036000024E234EF0E94BC3420E533EC40E050E08B
:103610000E94903449015A01D701C601837099274D
:10362000AA27BB270CEFC022C092A203D092A3030B
:10363000E092A403F092A503E3E0880F991FEA95B6
:10364000E1F7815B9C4FFC01EB58FF4F1081109319
:103650009A047C0127E7E20EF11C8D589F4FFC0174
:10366000A081B18194010E94FD3349805A806B8012
:103670007C80640D751D861D971DD7016D937D930C
:103680008D939C93139780919E04882399F004C096
:10369000880C991CAA1CBB1C8A95D2F7840C951C1B
:1036A000A61CB71C8092A6039092A703A092A80321
:1036B000B092A9038091A00418170CF4812F809375
:1036C0009B0481E190E00E94450C109296031092B9
:1036D0009703109298031092990381E00E94A90E1B
:1036E000877059F080E00E9478100E942706625C83
:1036F0007F4F8F4F9F4F0E94D306C0909E03D09064
:103700009F03E090A003F090A1031C141D041E046D
:103710001F040CF0D4C281E00E9464168091A203C1
:103720009091A303A091A403B091A50303E61FEF1A
:1037300081349D4DAA44BF4110F40CE51FEFE09188
:103740002403F09125038781080F111D87FD1A9529
:103750000E942706615E7F4F8F4F9F4F0E94D306C6
:103760000E9427061982C60ED71EE81EF91E8BE19D
:103770000E94A90E4980481608F489830E942706F2
:103780006C197D098E099F0997FDF1CF80E00E9499
:10379000781080919C04082E000C990B6980600EB3
:1037A000712E711C681679060CF489C2809163032E
:1037B0009091640346CD892D0E948210982EB7CE39
:1037C0004091B2035091B3036091B4037091B5037B
:1037D00040385F4F6F4F7F4F18F08EEF90E231CD42
:1037E0002091DC0521110DC04091B6035091B70323
:1037F0006091B8037091B9034F3F5F4F6F4F7F4F98
:1038000061F37C0138E1E322FF2440E1E416F10496
:1038100009F45FC1A090A8048091A604882309F44C
:103820005AC180919D05882309F455C1C0909C051B
:10383000CC2009F450C10C2D10E0A8016EE975E010
:1038400088EE95E00E948637085F1F4F10929C0516
:1038500010929D052091D705222331F026FF3EC10D
:1038600080E428272093D7052091D805222331F022
:1038700026FF44C180E428272093D8058091D905EC
:10388000823009F04BC181E08093D90509311105DF
:103890000CF06DC18091CF05882361F080918A047E
:1038A00090918B0497FF04C090E080E00E942A0969
:1038B0001092CF05F0E1EF16F10409F43AC14A2C59
:1038C000512C92012B5F3F4F3E832D838D819E8132
:1038D000800F911F9E838D838F3F910511F00CF017
:1038E0002DC181E090E1E916F10409F480E0E09156
:1038F000A104E83008F027C1F0E0E65EFD4FE49156
:103900004D805E80E415150408F431C190E4909375
:10391000E0059091CD054091D305492B20918A0473
:1039200030918B0437FD11C121523109203B3240C7
:1039300008F40BC120E498EF900F942B922B9093F6
:10394000E5054091AE033091AF032091B003909113
:10395000B1034093E1053093E2052093E305909392
:10396000E4059091DC05911118C02091A404211167
:1039700014C04091B6035091B7036091B8037091A1
:10398000B9034F5F5F4F6F4F7F4F4093B603509324
:10399000B7036093B8037093B9032091B6033091D5
:1039A000B703215031092093E6053093E7051092C3
:1039B000CD058823D9F18091A704882309F4C7C0D5
:1039C00080E88093E005911103C081E08093DC05DD
:1039D000F801E052FA4F8091A6048083C8018F510C
:1039E0009A4F6C01B12CA50169EA74E00E948637F8
:1039F0000091B6031091B7032091B8033091B90339
:103A000001501109210931094091AE035091AF03D2
:103A10006091B0037091B1038091A6048111A4C09C
:103A20008DEA95E0F12CE12C0E9470180D811E8129
:103A3000045011098091B6039091B703A091B80387
:103A4000B091B9030197A109B1096091AE035091FA
:103A5000AF034091B0033091B10320E17AEDE72E3E
:103A600072E0F72EF701422E11924A94E9F779E4B9
:103A70007093DA021092DF020093E9026093E00291
:103A80005093E1024093E2023093E3028093E40218
:103A90009093E502A093E602B093E702EDEAF5E029
:103AA000AFE2B3E001900D922A95E1F7A80160EE34
:103AB00075E082E00E946E12F801E052FA4F6383D3
:103AC0007283818390835D805092DF0581E994E168
:103AD0005BCDA12CA6CE08E010E0B8CEC801815B7A
:103AE0009C4FFC01EF56FD4F35E030838E569D4FC5
:103AF0002770DC012C930E5F1F4FB6CEC801815B8F
:103B00009C4FFC01EF56FD4F3AE030838E569D4F9F
:103B10002370FC0120830E5F1F4FB0CE882309F471
:103B2000B5CEF801E052FA4F88E080830F5F1F4F57
:103B3000ADCE44E050E05E834D83C8CED8011496EC
:103B4000BE83AD83D3CEE0E0DBCE20E0F4CE809127
:103B50009F04882309F43CCF8091A404811138CFBD
:103B600081E08093A40434CF8DEB95E05BCF88E0B7
:103B70008093DD058091A704811104C08091DC054C
:103B8000882319F088E48093DD0580918604909164
:103B9000870487769E7F9093870480938604109293
:103BA000DF051092DE058AE090E00E94450C20CBF4
:103BB00066E0640F660F660F58E0453008F450E089
:103BC000CD0133E0880F991F3A95E1F7861B9109E3
:103BD0004C9620E130E0E7FF02C030E020E0820FA9
:103BE000931F2F2F3327232B09F466C024E130E0E5
:103BF000821B930B28E030E018161906CCF4651BE5
:103C000070E0860F971F01970E945A34CF0105E09C
:103C1000969587950A95E1F7837090E00596869FC3
:103C20009001879F300D969F300D1124285F3F4FE4
:103C3000220F331F220F331F2F5C3F4F4F5F13E0C4
:103C4000F695E7951A95E1F7E370842F8E1BE9E06E
:103C5000FDE3853050F08450990BE9E0FDE302C0AC
:103C6000F595E7958A95E2F784E0032E000C440B66
:103C7000550B04C0220F331F441F551F8A95D2F7DE
:103C8000A4E2B4EF0E94FD33AB01BC01CF01F7FD0C
:103C9000019695958795092E000CAA0BBB0B2A015E
:103CA0003B01480E591E6A1E7B1EC301B2019F01D3
:103CB000FF0F440B550BACCC30E020E099CF809146
:103CC0008404877009F06AC00E94541081E00E9449
:103CD000781080E00E94CE0E60E085E20E94BB0E6C
:103CE00065E086E20E94BB0E0E94620F0E94FB0EFE
:103CF00069E28AE00E94BB0E64E380E40E94BB0E8E
:103D00006091DF056F5F82E30E94BB0E6091DF056B
:103D100080E00E94BB0E4091DF0550E020E060EEA5
:103D200075E080E80E94400E81E00E941D076091CE
:103D30009603709197038091980390919903611570
:103D400071058105910531F10E94D3066115710558
:103D500081059105F9F00091900310919103209154
:103D6000920330919303DC01CB01800F911FA21FBE
:103D7000B31F8093900390939103A0939203B09309
:103D800093038091940390919503019690939503EA
:103D90008093940383E00E9478102ACA0E946610E0
:103DA00081E00E94A90E87FD06C061E273E086E40F
:103DB00091E00E945D0B81E00E9478100E94B20F9A
:103DC0000E94620F68E08AE00E94BB0E0E94FB0E18
:103DD00064E389E30E94BB0E6CE780E40E94BB0EA3
:103DE0006FEF82E10E94BB0E67EF81E10E94BB0E84
:103DF00060E08EE00E94BB0E60E08DE00E94BB0E92
:103E00006091DF0582E20E94BB0E4091DF0550E029
:103E100020E060EE75E080E80E94400E81E00E94A4
:103E20001D0760919603709197038091980390917C
:103E30009903611571058105910531F10E94D30641
:103E40006115710581059105F9F0009190031091BC
:103E500091032091920330919303DC01CB01800FF9
:103E6000911FA21FB31F8093900390939103A0937F
:103E70009203B093930380919403909195030196DC
:103E8000909395038093940383E00E9478100091AF
:103E9000840410918504202F27702A5F2D839801B8
:103EA00063E0369527956A95E1F72370C80175E0C0
:103EB000969587957A95E1F7837089F0813091F036
:103EC000823099F437E03983222391F05AEFF52EAE
:103ED000213081F034EFF32EEE24E3940CC045E062
:103EE0004983F2CF56E05983EFCF78E07983ECCF66
:103EF0004DE7F42EE12CA090DF050091A203D090B5
:103F0000A303C090A403B090A5030E9427061F92AC
:103F10001F931F9249804F92EF92FF921F925D80F4
:103F20005F921F92AF92BF92CF92DF920F939F93B7
:103F30008F937F936F932CE1622E22E0722E7F92FB
:103F40006F920E948F370FB6F894DEBF0FBECDBFC1
:103F50004FC9232B09F4C7C0C114D104E104F104F3
:103F600009F476C0809186049091870491FF7CC00B
:103F700089819A81AB81BC818F589D4FAF4FBF4FD4
:103F80008D839E83AF83B8874091820350918303D2
:103F90006091840370918503DB01CA014D805E80CE
:103FA0006F80788484199509A609B709B7FFA8C05E
:103FB000E0917B03E7FD58C080917A03310102C094
:103FC000660C771C8A95E2F77A866986E60DE0939F
:103FD0007B03E7FD49C0AE2FB0E020E030E345E7CA
:103FE00050E00E94FD332B013C0187E075946794FB
:103FF000579447948A95D1F780917E0390917F03DF
:10400000A0918003B0918103480E591E6A1E7B1E49
:1040100089858E5F609179038E0F0E94E711461AA1
:10402000570A680A790A4092820350928303609289
:1040300084037092850380919704909198049093E3
:104040007D0380937C03A0CF892B09F031CAD0C8AF
:10405000C12CD12C7601C39485CF22E138E18DE5C6
:1040600093E00E94F807C4C8C114D104E104F1042C
:1040700041F0D701C60188199909AA09BB09B7FD02
:1040800032C00E948B10809192049091930490937F
:104090009804809397048091BE039091BF03A091F0
:1040A000C003B091C10380939A0390939B03A093A4
:1040B0009C03B0939D0389819A81AB81BC8188194F
:1040C0009909AA09BB09B7FD09C002E211E21093E0
:1040D0006403009363030E940B188AC82AE138E145
:1040E000B501A401BCCFB701A601415752406109F7
:1040F00071092CE131E2B3CF82E0809394047FC850
:10410000C114D104E104F10441F0D701C601841BBC
:10411000950BA60BB70BB7FDE6CF80917C03909172
:104120007D03909398048093970440939A0350934F
:104130009B0360939C0370939D03809186039091F1
:104140008703A0918803B09189038093A203909381
:10415000A303A093A403B093A503E0917903F0E037
:10416000ED58FD4FE491F0E0EF77E068F0938504BF
:10417000E09384041092DF054157524061097109B0
:1041800089819A81AB81BC81841B950BA60BB70BEF
:10419000181619061A061B060CF05FCF80918604CC
:1041A000909187048D7D997F9093870480938604F6
:1041B0007EC8809186049091870483FF1EC0109270
:1041C000A80482FF18C0877E90938704809386049A
:1041D00082E190E00E94450C8091860490918704D2
:1041E00085709927892B49F40E94DF0780E00E949F
:1041F00078100C94BB188776E7CF08950E94D920D9
:104200000E9406168CE090E00E94450C0C949F15CD
:10421000E6E8F4E0808191818E7D9F7B91838083AD
:104220001092AE031092AF031092B0031092B1033C
:104230000E94D9200C949F150C94BB180E94450C29
:104240000C94BB18CF92DF92EF92FF92CF93DF9343
:104250008091DF05882309F48FC0C0906503D0905A
:104260006603E0906703F0906803C09177030E94B3
:10427000DA0987FF81C0C37071F480E00E944E119B
:10428000C4E0D0E0809186049091870491FD0E9463
:104290005F13CE01D0C02EEED21A809165039091AB
:1042A0006603C81AD90A6091DA05662379F020916D
:1042B0008C0430918D04C601821B930B70E06F5FFC
:1042C0007F4F0E945A346901C60ED71E2091770392
:1042D00022FD1DC080918C0490918D048C199D0944
:1042E00097FF03C091958195910990938F048093D6
:1042F0008E0440919004509191044817590724F47A
:104300009093910480939004277F20937703D09219
:104310008D04C0928C041092A3041092DA0580914F
:1043200077038B7F80937703C4E0D0E0C090650370
:10433000D0906603E0906703F090680382E1D80EA6
:104340008AE7E81EF11C63E080E00E94E711C61ACC
:10435000D70AE80AF90AC092BE03D092BF03E092DE
:10436000C003F092C10380919704909198049093B8
:1043700093048093920486CFC0908C04D0908D04D7
:104380000D2C000CEE08FF0860E072E18AE790E077
:104390006C197D098E099F09C0906503D090660352
:1043A000E0906703F09068036C0D7D1D8E1D9F1DCE
:1043B000609365037093660380936703909368032B
:1043C000C0906903D0906A03E0906B03F0906C0397
:1043D00020E8C20ED11CE11CF11CC0926903D092EE
:1043E0006A03E0926B03F0926C032091DA052F5F71
:1043F0002093DA056C567A4F8D4F9F4F44E00E9410
:1044000009158091DA058A3350F4809192049091D5
:104410009304C3E0D0E08F35914008F487CF8091BA
:104420008604909187048D7D997F90938704809373
:1044300086048BE090E0DF91CF91FF90EF90DF90CA
:10444000CF900C941E21CF93809186049091870485
:10445000877790938704809386041092A404109227
:10446000DC0520919C05222351F030919D053323DA
:1044700009F471C0806190938704809386040E9440
:1044800027066E5E75488F4F9F4F40E00E940915CA
:104490008091DD05877079F0809186049091870482
:1044A00094FF09C09F7E90938704809386048FE0D9
:1044B00090E00E94450C8AE090E00E941E218091CD
:1044C0008A0490918B0481979CF18091A1040E94B1
:1044D0008210C82F0E9450089091A104811101C040
:1044E000C92F9C1342C080918A0490918B04813F14
:1044F00092404CF080918604909187049064909350
:1045000087048093860460E18C2F0E947D0880914F
:104510008604909187049C01306130938704209336
:1045200086042817390721F08EE090E00E94450CA0
:104530002091DB05222361F080918604909187040D
:1045400081FF1AC082E090E00E94450C1092DB05CA
:1045500081E0CF9108951092A7041092A6042093B1
:10456000A80410929C05886086CFC73061F290E065
:1045700080E00E942A09C7CF21502093DB0521113A
:10458000E7CF4091AE035091AF036091B0037091BB
:10459000B103452B462B472BD9F29C0124743327BA
:1045A000232BB1F6109277031092CD051092DC0503
:1045B0008E77816090938704809386040E948B108D
:1045C0000E942706AB01BC014C5D594F64487F4FE8
:1045D0004093650350936603609367037093680389
:1045E00040939A0350939B0360939C0370939D03A5
:1045F0002CE533E28DE593E00E94F80781E00E940C
:104600009117A6CF8091DC058823B1F1883020F581
:104610008F5F8093DC0580FF07C08091A1040E941A
:10462000821060E80E947D0860919A0370919B035C
:1046300080919C0390919D0343E00E940915809115
:104640008604909187048F779093870480938604E3
:104650000E94BB1881E0089580E68093DD0580917B
:104660008A0490918B0401960E942A091092DF051A
:104670001092DE050C9423228091A404882379F003
:1046800090919F04891758F48F5F8093A4040E942F
:1046900027066E5E75488F4F9F4F40E0CECF80E279
:1046A000DCCF8091A504811103C081E08093A50433
:1046B00085E090E00C941E2180E00E9478100E941A
:1046C000DF078091DF0581110DC0809186049091F4
:1046D00087048C7F909387048093860481E090E028
:1046E0000C941E210E94DA0987FD13C01092DF0589
:1046F00081E00E949117409165035091660360919B
:104700006703709168032CE533E28DE593E00C9428
:10471000F80781E00E944E118091860490918704F1
:104720008E7F8260909387048093860482E090E07D
:10473000D7CFCF92DF92EF92FF92CF93DF9380910A
:1047400086049091870482FD20C085FD0DC08F777F
:10475000909387048093860481E0DF91CF91FF904E
:10476000EF90DF90CF9008958F759093870480939A
:1047700086048091A3048A3018F48F5F8093A30489
:1047800089E090E00E941E21E7CF8F779093870405
:104790008093860484E190E00E94450C80919D0402
:1047A0008F5F833009F466C080939D048091DC059F
:1047B0008F5F8093DC0563E00E944E34911109C045
:1047C0008091A104C1E0873029F00E94821080937B
:1047D000A104C0E08091860490918704977F909314
:1047E0008704809386040E9427066B017C018091D8
:1047F000C6039091C703A091C803B091C903B70144
:10480000A601481B590B6A0B7B0B77FF02C06C019A
:104810007D012091A1048FEF90E002C095958795CE
:104820002A95E2F70E94DB14645973428D4F9F4F23
:10483000C60ED71EE81EF91EC0929603D0929703AB
:10484000E0929803F0929903CC2ED12CF12CE12C1C
:10485000CC2399F0C7E4D4E20E942706AB01BC0147
:104860004C0D5D1D6E1D7F1D9E018DE593E00E9428
:10487000F80772CF10929D0499CFCCE1D1E2ECCF32
:104880008091DD0580FF0C94992380E0089588E0F5
:1048900090E00C941E21CF92DF92EF92FF920F9343
:1048A0001F93CF93DF938091DD0580FF05C080913A
:1048B000DF05882309F4F5C0809186049091870470
:1048C00087FFE8C084729927892B51F4DF91CF913B
:1048D0001F910F91FF90EF90DF90CF900C944024A8
:1048E0001091DF0511110AC0DF91CF911F910F9137
:1048F000FF90EF90DF90CF900C949923113111F03D
:10490000113221F78091E005837E8032F9F6C12FC4
:10491000D0E0AE014150510961EE75E080E00E94A7
:104920006E122497AE0160EE75E08AE00E946E126E
:104930006B017C01C052DA4F688179818A819B8149
:104940000E94B534C616D706E806F90609F0BECFB0
:1049500087EE95E00E94B6096093AE037093AF03B3
:104960008093B0039093B10384EE95E00E94B60962
:1049700099276093AA037093AB038093AC03909341
:10498000AD0380E00E9447151231D8F08DEEE82E7D
:1049900085E0F82EC3E0C7010E94BC09AB01BC0151
:1049A000411551056105710531F00FEF30E020E050
:1049B0008C2F0E94A910CF5F83E0E80EF11CC83055
:1049C00051F780918804909189040197E5EBF5E017
:1049D00028E0DF011D922A95E9F721E02093AD053B
:1049E00026E0E1EEF5E0AEEAB5E001900D922A9501
:1049F000E1F78093B4059093B50580E1EDEAF5E029
:104A0000ADEBB5E001900D928A95E1F782E08093DD
:104A1000BD0540E150E06DEA75E080E00E946E1255
:104A200040E150E06DEB75E080E00E946E128091F5
:104A3000860485FF08C0C091A3048091A104C150E1
:104A400058F58093A104809186049091870489751C
:104A50009D7F986090938704809386041092DC0574
:104A60000E947C0980EC9FEF0E942A098091EB054F
:104A7000982F9F709093D605829587708093D50567
:104A80008091EC05882359F08093D00586E090E072
:104A90000E941E2181E006C00E948210D0CF81E0DA
:104AA000F3CF80E0DF91CF911F910F91FF90EF90B6
:104AB000DF90CF9008958091DF0581110AC0209189
:104AC000D60548E658E168ED78EB85E090E00C9477
:104AD000A2110E944B24882391F308958091DF0551
:104AE000811102C01092DD050C944B244F925F920D
:104AF0006F927F928F929F92AF92BF92CF92DF92EE
:104B0000EF92FF920F931F93CF93DF93CDB7DEB752
:104B100061970FB6F894DEBF0FBECDBF80918604BB
:104B200087FF1BC082ED91E00E944F0B61960FB68C
:104B3000F894DEBF0FBECDBFDF91CF911F910F91D3
:104B4000FF90EF90DF90CF90BF90AF909F908F90AD
:104B50007F906F905F904F9008951092AD07809175
:104B60008E0790918F070E943A0540E06CEC80918F
:104B70008E0790918F070E94E7044091850764E4B7
:104B800080918E0790918F070E94E704809189079A
:104B9000882391F1E091880780918A07882309F49E
:104BA000CCC0809185078111C8C08FB7F894C090A0
:104BB0002703D0902803E0902903F0902A038FBFA9
:104BC00080918E0790918F070E9494048130A1F00C
:104BD0002FB7F8948091270390912803A09129037F
:104BE000B0912A032FBF8C199D09AE09BF098E3ED3
:104BF0009240A105B10520F3E0918E07F0918F0757
:104C000013861586148612861186108617821682E0
:104C1000158214821382BE01665F7F4F80918E07DA
:104C200090918F070E94700A8111AFC0C12CD12CC6
:104C3000FEEFEF2EF2ECFF2E89E592E00E94F00AE3
:104C4000A7019601C701B6010E945C36882309F4CA
:104C5000EFC080E692E00E94F00A8CE692E00E94AB
:104C6000410B7090AD07072D10E0C801039620910D
:104C7000AC072817190611F00CF06CC181E0809385
:104C8000AE07F090AD07C090AA07D090AB07809117
:104C90008604909187048C709927892B19F5F3EF7E
:104CA000FF1500F1B090A1048DE0A82EAF0C0B2DE4
:104CB00010E0802F0E9450088823A1F027E02017E1
:104CC00088F0F801E65EFD4FE491EE2359F0EA1515
:104CD00008F0A0C1F801EC58FD4FE4910F5F1F4FA1
:104CE000EF3F39F7009186041091870403FD22C03D
:104CF00043EF4F15F8F0C114D10439F04F2D50E0B7
:104D0000B60189EA94E00E9486371092A70481E0F8
:104D10008093A604F092A804C80188609093870449
:104D20008093860402FD04C01092DC051092A40456
:104D30000E94BB1884EC91E0F7CEE9508EEE92E031
:104D4000E33038F4F0E0EE0FFF1FEA5FFE4F8081A2
:104D500091816C01990FEE08FF08809186078823E6
:104D600029F060E0809187070E949E02C701B6018A
:104D70000E94220380918607882309F43DCF61E0D9
:104D8000809187070E949E0237CF67E0CE010A9686
:104D90000E947D049989891349CFBE016F5F7F4FBF
:104DA000CE010A960E947205882309F43FCF6A81DA
:104DB00070E0762F6627770F770F770F298148E00D
:104DC000249F90011124262B372B8A858031E1F412
:104DD00068856623C9F070E08F81FB01E81BF1094B
:104DE000CF019695982F8827979587950E945A34DA
:104DF000CB018097B90153E0660F771F5A95E1F711
:104E000060789C01260F371F2138F4EE3F070CF421
:104E10000DCFB901330F880B990B0E94E03220E0CF
:104E200030E040E05CE30E943F336B017C0104CF43
:104E300046015701E894B7F82FEF3FEF4FE75FE7E0
:104E4000C501B4010E945C3681110DC02FEF3FEF08
:104E50004FE75FE7C501B4010E94D93218161CF470
:104E600084E692E0F8CE2FEF3FEF4FE75FE4C70113
:104E7000B6010E94573618161CF488E692E0EBCE75
:104E80002FEF3FEF4FE75FECC701B6010E94D93229
:104E900087FDF3CF20E030E0A901C701B6010E94F1
:104EA000D93287FF54C06DE286EE96E00E94F5038A
:104EB000C701B60190582AE037ED43EA5BE30E9450
:104EC000BC352B013C010E9428364B015C010E943D
:104ED000DE329B01AC01C301B2010E94BB352B0144
:104EE0003C014AE0C501B4010E94FD0A6EE286EE73
:104EF00096E00E94F50320E030E040E251E4C30177
:104F0000B2010E943F332B013C010E9428364B0125
:104F1000B12CA12C4AE0C501B4010E94FD0AC501D3
:104F2000B4010E94DE329B01AC01C301B2010E94B8
:104F3000BB3520E030E040E251E40E943F330E9464
:104F4000283690E080E04AE00E94FD0A86CEC70144
:104F5000B601B1CF20E030E0A901C701B6010E943F
:104F6000D93287FF54C0C701B601905820E030E025
:104F700040E251E40E943F330E9428364B015C011D
:104F800020E030E0A901C701B6010E94D93287FFB5
:104F900008C0B094A09490948094811C911CA11C92
:104FA000B11C2091AA073091AB0781E0870D809357
:104FB000AD07020F131F81E0F80180838091AA07DB
:104FC0009091AB07E091AD0721E02E0F2093AD0744
:104FD000E80FF92FF11D87E68083E091AD078091FE
:104FE000AA079091AB07E80FF92FF11D8182E0919C
:104FF000AD078091AA079091AB07E80FF92FF11D3B
:1050000090828091AD078E5F8093AD073ACEC70145
:10501000B601ACCFB01609F465CE60E8802F0E94CF
:105020007D0860CE2F923F924F925F926F927F9257
:105030008F929F92AF92BF92CF92DF92EF92FF92A8
:105040000F931F93CF93DF93CDB7DEB7C754D1092A
:105050000FB6F894DEBF0FBECDBF2C013B011092FE
:105060009C05452B11F510929D05F12CE12CE614C1
:10507000F704FCF0C701C95BDF4F0FB6F894DEBF41
:105080000FBECDBFDF91CF911F910F91FF90EF9099
:10509000DF90CF90BF90AF909F908F907F906F9058
:1050A0005F904F903F902F90089581E080939D05F1
:1050B000DCCF6201CE0CDF1CF6018081823008F467
:1050C00034C0282F2250330BF9012231310508F06A
:1050D0002CC0E551FE4FE4912E2F30E028963FAFD3
:1050E0002EAF28972115310529F25301AE18BF08BC
:1050F000A216B3060CF4BECF82508031C0F4E82F64
:10510000F0E0EB57F74D0C94AF349828A228512AC1
:10511000FB29D129622A422A9728B22A9728972860
:105120009728972897289728F12AE0E0D5CF3701CC
:105130002896EEADFFAD2897EE0DFF1D73013701E8
:105140007F0195CF460107E025961FAE1EAE25973D
:10515000C5012596EEADFFAD25978E1B9F0B0597DC
:105160000CF49CC0F4011181312E3294AFE03A224C
:105170009481907749F0903661F10E7F2AC0259690
:105180003FAF2EAF2597E4CF628173814FE453E0A8
:1051900030E020E0E1E0F0E0022E02C0EE0FFF1F61
:1051A0000A94E2F7E623F723EF2B61F0FA01ED56BC
:1051B000FF4F80819181A281B3818C7F892B8A2BC3
:1051C0008B2BD9F22F5F3F4F4C5F5F4F2031310562
:1051D00009F7832D0E946412811101C00D7F1F7099
:1051E000183038F4E12FF0E0EE5EFD4FE491E03846
:1051F00009F40B7F25962EAD3FAD25972B5F3F4FD2
:10520000F5E08F0E911CF4018081833009F4B7CF53
:1052100025968EAC9FAC2597F5E08F0E911C80E40F
:10522000E2EEF3E0DE01119601900D928A95E1F72E
:10523000A0908204B0908304073009F0ADC014013F
:10524000F60141E026961FAE269710E025E02216D3
:1052500031040CF44EC01181348126963FAF26975D
:10526000832F8077E9F0803611F18091820490914C
:10527000830425E0221A3108359641E0009709F4AD
:1052800040E09F012C193D0928153905FCF2892BB6
:1052900091F1312E32948FE0382234C000E0B8CF43
:1052A000828193819093830480938204DECFA2EE67
:1052B000B3E090E080E030E020E04D915D916D91B1
:1052C0007D914C7F452B462B472B51F041E050E020
:1052D000082E02C0440F551F0A94E2F7242B352BE9
:1052E00001968031910549F730938304209382041D
:1052F000BCCF411101C006E0312E3294EFE03E22D6
:10530000073039F4832D0E94500807E081110EC048
:1053100005E080E4FE013196A2EEB3E001900D922B
:105320008A95E1F7B0928304A0928204AA24A39400
:10533000D12CC12CC4018C199D0905976CF0602FEC
:1053400083E00E945509A82E35E0C30ED11CC81475
:10535000D90414F48111EECF0730A9F426968FAD4D
:1053600026978F7090919F04891380939F041F70DC
:1053700060E8183028F4E12FF0E0EE5EFD4F649114
:10538000832D0E947D0825968EAD9FAD2597E80E52
:10539000F91EAA2019F1CCCE26961FAE269710E052
:1053A000ABCF20919604022E000C330BC90102965C
:1053B00097FD03969595879595958795182F1F735B
:1053C0004F970CF01FE11093D20500919C0586E0E9
:1053D0000E943609811104C000939C05F701AFCEED
:1053E0008FEF0E9436098823B9F3812F0E94360976
:1053F000882391F39DCEF6018181082F0F7090E0F4
:1054000064E0959587956A95E1F7182F1770C701A5
:105410000296840D951D0E94BC094B015C0180EC35
:105420008093D705802F0E946412882329F08091F1
:10543000D70582608093D70581149104A104B1043B
:1054400029F08091D70581608093D705143028F426
:105450008091D70584608093D7056091D705673C1C
:1054600061F40093D6058092BA039092BB03A09298
:10547000BC03B092BD031093D505677085E00E9410
:1054800055090DC0F60181818F7009F481E0809388
:10549000D005F2E0F093D90588E00E943609A82EE5
:1054A00078CFF60181818F7080939E040E94270639
:1054B0006093A6037093A7038093A8039093A90316
:1054C00084E0EBCFC7010296840D951DFC0110818D
:1054D000F601238034800E94BC094B015C01F60177
:1054E000058181149104A104B10421F41229312A07
:1054F00012E009F413E0302E32945FE035220F7091
:10550000301620F41D7F612F87E0B9CFF601D180DE
:10551000832D0E9464128823A9F3802F0E946412B5
:10552000882381F31330E1F48FE090E0831991092F
:105530002FEF3FEF02C0369527958A95E2F78FEF60
:105540009FEF02C0880F991F0A95E2F7282339239D
:105550000FEFB501A4018D2D0E94A9108111D3CFA9
:1055600012E0D1CFF6010181C7010296840D951D8D
:105570000E94BC0913E0611571058105910509F4CC
:1055800012E0013150F5E02FF0E041E050E002C0C0
:10559000440F551F0A95E2F720918204309183044D
:1055A00024233523232B51F41D7F612F8AE00E9491
:1055B0005509A82E106C1093D805EBCE133079F452
:1055C0009F01220F331F220F331FF901EE5DFB4FA6
:1055D0006083718382839383E8CF10E0E6CF12E08B
:1055E000E4CFC7010196840D951DF6011281FC01DF
:1055F0002081122BF6012381122B0E94BC094B0142
:105600005C01F60104810F70112341F013E0811455
:105610009104A104B10459F412E009C013E090EA26
:10562000892E97E2992E9EEBA92E93E3B92E802F17
:105630000E946412811104C01D7F612F81E11FCF80
:10564000133059F48092860390928703A0928803C6
:10565000B092890300937903F0CF12E0EECF2F923E
:105660003F924F925F926F927F928F929F92AF92F2
:10567000BF92CF92DF92EF92FF920F931F93CF933F
:10568000DF93CDB7DEB729970FB6F894DEBF0FBE14
:10569000CDBFE090DF052E2D30E0398728872C30F4
:1056A0003105E4F41092DF0580E029960FB6F894F6
:1056B000DEBF0FBECDBFDF91CF911F910F91FF9045
:1056C000EF90DF90CF90BF90AF909F908F907F90A2
:1056D0006F905F904F903F902F9008958091E005DC
:1056E000982F9370F9F6807E8D83803611F0803A82
:1056F000C9F681EE95E00E94B6092091AE03309183
:10570000AF034091B0035091B10329833A834B8397
:105710005C83261737074807590721F63091E505BE
:105720003E833F70F32EC32ED12C160148E0240E89
:10573000311C8885998504979987888782159305F8
:105740000CF4B0CF88248A94982C281639064CF48F
:10575000F101E052FA4F2081822E912CD601199648
:105760001D014090B2035090B3036090B403709059
:10577000B5030091E6051091E705041915090F3FDF
:10578000100709F07CC021E0421A51086108710835
:1057900020E1EAEDF2E0DF01322F1D923A95E9F7C0
:1057A00039E43093DA0231E03093DF024CEF4E0DF2
:1057B0004F834093E90259815093E0028A8180939C
:1057C000E1029B819093E202AC81A093E3024092BC
:1057D000E4025092E5026092E6027092E702EDEA7E
:1057E000F5E0AFE2B3E001900D922A95E1F748852C
:1057F000598560EE75E082E00E946E129B01AC015B
:10580000E885F985E052FA4F608171818281938148
:105810000E94B534261737074807590709F042CFC9
:105820008091B2039091B303A091B403B091B503FA
:10583000481659066A067B0638F584159505A605AF
:10584000B7050CF42FCF0197A109B109841595056F
:10585000A605B70509F026CF8091CE05882309F467
:1058600021CFBD81B03A09F01DCF80E28093CD05F4
:105870008114910409F4D6C001E010E033C0400E59
:10588000511E611C711C84CF0130104408F00ACFF6
:10589000D301C2010196A11DB11D8093B203909363
:1058A000B303A093B403B093B5033D8180E2303AD3
:1058B00009F080E08093CE058093CD0510E000E0F4
:1058C0008114910441F4FF2031F048855985241654
:1058D00035060CF4E7CE8091CD05811103C05E81C1
:1058E00054FF09C080918604909187048061909351
:1058F0008704809386041092A3041092CF0580EC55
:105900009FEF0E942A091092D7051092D905109294
:10591000D805E0918404F09185048E2F877033E0E0
:10592000F695E7953A95E1F7E370F0E093E0899F0B
:10593000E00DF11D1124E350FE4FE4918091950498
:10594000082E000C990B80549109ED58FF0B8E1B0B
:105950009F0B97FD80E08093D105A401B60188EEEE
:1059600095E00E941228012B09F09CCEAFEF8A1619
:105970009A0699F1288539852219330939872887AC
:105980001216130654F5A10140525A4F5A83498307
:105990004091AE035091AF036091B0037091B10399
:1059A0008DEA95E08114910411F08DEB95E0A884C7
:1059B000B984C980DA80EE24E394F12C930182014A
:1059C0000E9470188114910441F450E040E0688511
:1059D000798589819A810E9412288091DC0588232B
:1059E00049F05E8190E855FF90E48091DD05892BB8
:1059F0008093DD058091DD05181419044CF0806258
:105A00008093DD052092DE051092DF0581E04DCE0A
:105A100080618093DD052092DE05EF80E218E09240
:105A2000DF05F4CFFF2009F427CF01E010E04DCFD0
:105A30008091DF05882359F084E08093DD050E9482
:105A40002F2B882321F08DE090E00E94450C0C94D0
:105A5000BB188091860487FF19C08091DF058111F2
:105A600002C00C9402230E942F2B811105C090913B
:105A7000DD0590FFF6CF08958091DC05882321F0A5
:105A80008091DD0586FDEDCF0C94232281E0F3CFDC
:105A90008091DF0581110EC0A091D005B0E0119674
:105AA00024E234EF0E94BC342091D60540E658E150
:105AB0000C94A2110E94292D882371F308958091DE
:105AC000DF0581110BC01092DD050E942706645985
:105AD00073428D4F9F4F42E00E9409150C94292D6F
