:100000000C9409020C9431020C9431020C943102CC
:100010000C9431020C9431020C9431020C94310294
:100020000C9431020C9431020C9431020C94310284
:100030000C9431020C9431020C9431020C94310274
:100040000C9428290C9431020C9498290C94722950
:100050000C9431020C9431020C9431020C94310254
:100060000C9431020C943102556E6B6E6F776E20DA
:100070006576656E743A200045565F4A4F494E5F7B
:100080005458434F4D504C4554453A206E6F204ACA
:100090006F696E4163636570740045565F545843E1
:1000A000414E43454C45440045565F5458535441D6
:1000B00052540045565F4C494E4B5F414C495645A2
:1000C0000045565F4C494E4B5F4445414400455600
:1000D0005F5258434F4D504C4554450045565F5272
:1000E000455345540045565F4C4F53545F54535944
:1000F0004E4300206279746573206F6620706179C9
:100100006C6F6164005265636569766564200052B6
:10011000656365697665642061636B0045565F546D
:1001200058434F4D504C4554452028696E636C75BB
:100130006465732077616974696E6720666F7220E9
:1001400052582077696E646F7773290045565F5265
:10015000454A4F494E5F4641494C45440045565F2C
:100160004A4F494E5F4641494C45440045565F4A17
:100170004F494E45440045565F4A4F494E494E4708
:100180000045565F424541434F4E5F545241434BF9
:1001900045440045565F424541434F4E5F4D4953EC
:1001A0005345440045565F424541434F4E5F464FDD
:1001B000554E440045565F5343414E5F54494D45AB
:1001C0004F5554004F505F5458525850454E442C90
:1001D000206E6F742073656E64696E670050616392
:1001E0006B65742071756575656400030502050112
:1001F000060202050000060000010504042020207C
:100200000E11140C0F12090C0F06090C030609003D
:100210000306100E0C0A0806040240404080FFFF4F
:10022000FFFF000400000002000000010000800049
:100230000000400000002000000010000000050049
:100240000000A027BE33A027BE33A027BE33A127BE
:10025000BE33A127BE33A127BE338025DB33A19156
:10026000D63350CED533C2FDD133C0C8C53341DA01
:100270008E33FF0101010101010901FFC0400000AF
:10028000000000230026002900D572BA2306C2EE22
:100290005A38AD3F63155CB6F9E88AED5750650EE4
:1002A000F502FABD1B933C23E55374617274696EC9
:1002B0006700000000006700CC00B80154039D07F0
:1002C00000000000240027002A0000000000250094
:1002D00028002B00040404040404040402020202A3
:1002E00002020303030303030102040810204080F9
:1002F0000102040810200102040810200000000878
:1003000000020100000304070000000000000000DC
:10031000637C777BF26B6FC53001672BFED7AB76C2
:10032000CA82C97DFA5947F0ADD4A2AF9CA472C06D
:10033000B7FD9326363FF7CC34A5E5F171D83115DA
:1003400004C723C31896059A071280E2EB27B275FB
:1003500009832C1A1B6E5AA0523BD6B329E32F8473
:1003600053D100ED20FCB15B6ACBBE394A4C58CF6B
:10037000D0EFAAFB434D338545F9027F503C9FA83F
:1003800051A3408F929D38F5BCB6DA2110FFF3D20D
:10039000CD0C13EC5F974417C4A77E3D645D1973C1
:1003A00060814FDC222A908846EEB814DE5E0BDBBB
:1003B000E0323A0A4906245CC2D3AC629195E479F2
:1003C000E7C8376D8DD54EA96C56F4EA657AAE084C
:1003D000BA78252E1CA6B4C6E8DD741F4BBD8B8AE7
:1003E000703EB5664803F60E613557B986C11D9E4D
:1003F000E1F8981169D98E949B1E87E9CE5528DFC4
:100400008CA1890DBFE6426841992D0FB054BB16EF
:10041000CA2911241FBECFEFD8E0DEBFCDBF27E031
:10042000A4ECB2E001C01D92A537B207E1F712E0DB
:10043000A0E0B1E0E8EBF3E602C005900D92A43C29
:10044000B107D9F712E0C9E0D2E004C02197FE015C
:100450000E94B52DC830D107C9F70E94FD290C9420
:10046000DA310C940000FC0120E1215008F40895D9
:1004700080E0211181819081990F87FD9160919396
:10048000F4CFBC01EAECF5E090E080E030E020E061
:100490004191942748E0DC01880F991FB7FF04C001
:1004A00051E2852750E195274150A9F72F5F3F4F33
:1004B0002617370769F70895833081F028F48130D3
:1004C00099F08230A9F008958730A9F08830C9F0FA
:1004D0008430B1F4809180008F7D03C080918000D2
:1004E0008F7780938000089584B58F7784BD0895B9
:1004F00084B58F7DFBCF8091B0008F778093B00063
:1005000008958091B0008F7DF9CF1F93CF93DF9333
:10051000282F30E0F901E450FD4F8491F901E851B2
:10052000FD4FD491F901EC52FD4FC491CC23A9F0B9
:10053000162F81110E945C02EC2FF0E0EE0FFF1FDE
:10054000E653FD4FA591B4918FB7F894EC9111113A
:1005500008C0D095DE23DC938FBFDF91CF911F9130
:100560000895DE2BF8CFCF93DF9390E0FC01E851A4
:10057000FD4F24918C529D4FFC0184918823D1F032
:1005800090E0880F991FFC01E054FD4FA591B491B4
:10059000FC01E653FD4FC591D49161110EC09FB788
:1005A000F8948C91E22FE0958E238C932881E2239E
:1005B000E8839FBFDF91CF9108958FB7F894EC91B6
:1005C000E22BEC938FBFF6CF3FB7F89480911503E1
:1005D00090911603A0911703B091180326B5A89B1C
:1005E00005C02F3F19F00196A11DB11D3FBFBA2FC5
:1005F000A92F982F8827BC01CD01620F711D811D85
:10060000911D42E0660F771F881F991F4A95D1F709
:1006100008958F929F92AF92BF92CF92DF92EF9206
:10062000FF924B015C010E94E4026B017C010E947D
:10063000E4026C197D098E099F09683E73408105AB
:100640009105A8F321E0821A9108A108B10888EE6B
:10065000C80E83E0D81EE11CF11C81149104A10492
:10066000B10429F7FF90EF90DF90CF90BF90AF904B
:100670009F908F900895AF92BF92CF92DF92EF92AA
:10068000FF920F931F93CF93DF936C017B018B013C
:10069000040F151FEB015E01AE18BF08C017D1078C
:1006A00059F06991D601ED91FC910190F081E02D16
:1006B000C6010995892B79F7C501DF91CF911F916B
:1006C0000F91FF90EF90DF90CF90BF90AF90089583
:1006D000FC01538D448D252F30E0842F90E0821B48
:1006E000930B541710F0CF96089501970895FC01CD
:1006F000918D828D981761F0A28DAE0FBF2FB11D25
:100700005D968C91928D9F5F9F73928F90E008957C
:100710008FEF9FEF0895FC01918D828D981731F036
:10072000828DE80FF11D858D90E008958FEF9FEF8A
:100730000895FC01918D228D892F90E0805C9F4F60
:10074000821B91098F739927089580ED96E00E948E
:10075000990321E0892B09F420E0822F089580E09D
:1007600090E0892B29F00E94A50381110C940000D0
:100770000895FC01A48DA80FB92FB11DA35ABF4F36
:100780002C91848D90E001968F739927848FA68990
:10079000B7892C93A089B1898C91837080648C93E4
:1007A000938D848D981306C00288F389E02D808193
:1007B0008F7D80830895EF92FF920F931F93CF93C5
:1007C000DF93EC0181E0888F9B8D8C8D98131AC08C
:1007D000E889F989808185FF15C09FB7F894EE8973
:1007E000FF896083E889F9898081837080648083D0
:1007F0009FBF81E090E0DF91CF911F910F91FF901B
:10080000EF900895F62E0B8D10E00F5F1F4F0F73C2
:100810001127E02E8C8D8E110CC00FB607FCFACF7D
:10082000E889F989808185FFF5CFCE010E94B9035F
:10083000F1CFEB8DEC0FFD2FF11DE35AFF4FF0824E
:100840009FB7F8940B8FEA89FB8980818062CFCFB4
:100850000F931F93CF93DF938C01D0E0C0E0F8019A
:10086000EC0FFD1F6491662341F080ED96E00E943D
:10087000DB03892B11F02196F2CFCE01DF91CF91CE
:100880001F910F910895CF93DF93EC01888D8823FA
:10089000B9F0AA89BB89E889F9898C9185FD03C0E3
:1008A000808186FD0DC00FB607FCF7CF8C9185FFC8
:1008B000F2CF808185FFEDCFCE010E94B903E9CF51
:1008C000DF91CF910895E9E2F3E0848195819483EB
:1008D000968195839781968387838085928590877B
:1008E000828781859385918783878785968597877A
:1008F000958596879485958784870895CF9329E277
:1009000033E0BC01605F7F4FDC01F90140E0CD9135
:1009100050815C2750834F5F34964430C1F72F5F7E
:100920003F4F04968617970779F7CF910895682F60
:1009300080ED96E00E94DB0390E080E00895F8945B
:100940008091D8028F5F8093D80208950F931F93F0
:100950000E94E402AB01BC012091D402DC01CA0177
:100960003CE1B695A795979587953A95D1F782275B
:100970008870820F8093D402E4E07695679557954E
:100980004795EA95D1F79B01382BC901BA011F9110
:100990000F910895AF92BF92CF92DF92EF92FF92A4
:1009A0000F931F93CF93DF938091D8028150809350
:1009B000D802811169C0789405ED12E0D0E0C0E062
:1009C000BB24B394E0910E03F0910F03EC0FFD1FD5
:1009D00023812F3F09F451C0F801D080ED2CF12C78
:1009E00030E0F901E450FD4F8491F901E851FD4FE9
:1009F000C490F901EC52FD4FA490AA2009F44FC015
:100A000081110E945C02EA2DF0E0EE0FFF1FE15819
:100A1000FD4FA591B491EC91CE2231E020E009F494
:100A200030E0832F922FE816F90639F1DB24F80124
:100A3000D082DD2011F1CE01880F991F880F991FF8
:100A40009C012E5F3C4F7901F90180819181A28147
:100A5000B381892B8A2B8B2B81F40E94A60461150C
:100A600071058105910521F461E070E080E090E07E
:100A7000F701608371838283938321960F5F1F4FF9
:100A8000C330D10509F09ECFDF91CF911F910F9117
:100A9000FF90EF90DF90CF90BF90AF90089590E0DF
:100AA00080E0C1CFCF92DF92EF92FF926B017C0189
:100AB0000E94A604A7019601261B370B480B590B71
:100AC000DA01C901B7FF0CC066277727CB01621B8B
:100AD000730B840B950BFF90EF90DF90CF900895F0
:100AE000833332E09307A105B1058CF068E070E034
:100AF00080E090E00E9409030E94A604A7019601ED
:100B0000261B370B480B590BDA01C901E9CF181620
:100B100019061A061B0664F424E0880F991F2A950B
:100B2000E1F7880F991F880F991F05970197F1F733
:100B300060E070E0CB01CFCF982FE0910E03F091F1
:100B40000F0381818F3F39F061E02681291301C0B5
:100B500060E00C948502089581E0089580E0089596
:100B6000089560E070E0CB0108950F931F93611525
:100B7000710581059105F9F00091740310917503D9
:100B80002091760330917703DC01CB01800F911F18
:100B9000A21FB31F8093740390937503A0937603F1
:100BA000B0937703809178039091790301969093A5
:100BB0007903809378031F910F910895CF92DF926C
:100BC000EF92FF92A091F802B091F902682F617044
:100BD000ED91FC9111970190F081E02DCD010995E7
:100BE0006B017C01C114D104E104F10461F00E94A5
:100BF000A6046C0D7D1D8E1D9F1DFF90EF90DF9054
:100C0000CF900C945205FF90EF90DF90CF90089515
:100C1000FC01208131812115310519F490E080E03B
:100C200008952617370749F4FB0120813181FC0123
:100C30003183208381E090E00895C901E9CFCF930B
:100C4000DF93EC010E949F048091490390914A0335
:100C5000A0914B03B0914C03892B8A2B8B2B31F540
:100C60008EEC96E067E473E00E9408061092480359
:100C7000109247031092490310924A0310924B03BB
:100C800010924C03D0934E03C0934D03E091CE06D7
:100C9000F091CF06AEECB6E0309759F487E493E0DC
:100CA0008D939C93DF91CF910C94CA048CEC96E0C9
:100CB000D9CFDF010190F081E02DEECF0E949F049B
:100CC0008091490390914A03A0914B03B0914C034A
:100CD000892B8A2B8B2B41F48EEC96E067E473E032
:100CE0000E9408060C94CA048CEC96E0F7CFCF92D1
:100CF000DF92EF92FF920F931F93CF93DF93EC015C
:100D00006A017B018901C114D104E104F10421F4D9
:100D1000C12CD12C7601C3940E949F048A819B81AF
:100D2000AC81BD81892B8A2B8B2B89F58EEC96E0CB
:100D3000BE010E94080619821882CA82DB82EC82F8
:100D4000FD821F830E83E091CC06F091CD062CEC42
:100D500036E0309779F082819381A481B5818C1936
:100D60009D09AE09BF09181619061A061B0694F448
:100D7000F983E883F901D183C083DF91CF911F917B
:100D80000F91FF90EF90DF90CF900C94CA048CEC01
:100D900096E0CECF9F010190F081E02DDACF6091F7
:100DA0006C0470916D0421E030E002C0220F331F0B
:100DB0008A95E2F790E080E0A1E0B0E0AD01082E76
:100DC00002C0440F551F0A94E2F746235723452BD0
:100DD00059F0FC01EE0FFF1FE45BFB4F4081518196
:100DE00042235323452B31F401968031910531F78D
:100DF00080E0089581E00895982F6038C1F08091D7
:100E00008A046817A1F060938A0481E020918B0422
:100E1000291761F090938B04809170049091710474
:100E20009860909371048093700481E0089580E04D
:100E3000EDCF4F925F926F927F928F929F92AF927F
:100E4000BF92CF92DF92EF92FF920F931F93CF93B7
:100E5000DF936B017C0149015A01E8016091450370
:100E6000709146036115710531F061364CE37407EA
:100E700010F060E67CE390E080E0A70196010E941C
:100E8000E32D722E032F142FB52FF62FE72F582E98
:100E9000692EA0E00E94E92E84F4215031094F4FC1
:100EA0005F4F6F4F7F4F8F4F9F4F722E032F142F27
:100EB000B52FF62FE72F582E692E272D302F412FD3
:100EC0005B2F6F2F7E2F852D962D00E10E94CC2E5B
:100ED00029013A01A5019401220F331F441F551F18
:100EE000C301B201660F771F881F991F620F731F1E
:100EF000841F951F64587F4F8F4F9F4F0E94962DE0
:100F00002C0F3D1F63E87FEF8FEF9FEF641975098A
:100F100086099709211544E0340710F02FEF33E0DC
:100F200030938204209381046C0D7D1D8E1D9F1DC6
:100F3000DF91CF911F910F91FF90EF90DF90CF90B5
:100F4000BF90AF909F908F907F906F905F904F90E9
:100F50000895209174043091750420383F4F21F09A
:100F600090937504809374040895982F8091870559
:100F7000E0918605882361F0EF30A0F481E08E0FC8
:100F800080938605F0E0E857FA4F908381E008955A
:100F9000E33F48F481E08E0F80938605F0E0ED5644
:100FA000FB4FF3CF80E00895CF93DF93C62FD0910E
:100FB00086050E94B507811106C0D093860580E0A2
:100FC000DF91CF9108958C2F0E94B5078823A9F354
:100FD00081E0F6CF1092BF051092C00580EA97E23B
:100FE000AEEBB3E38093A4039093A503A093A60371
:100FF000B093A7030895CF93DF93C9E3D3E0109292
:10100000A0031092A1031092A2031092A3031092C6
:101010009C0310929D0310929E0310929F031092C6
:101020008D041092B9051092B8051092B705109270
:10103000890410928E041092C1051092C30510927B
:10104000C2051092BE050E94EA0785E08093C9069A
:1010500080EA97E2AEEBB3E38FAB98AFA9AFBAAF3C
:1010600083E08AA7DF91CF910895FC0160817181AF
:101070008281938108950F931F9301970E943508F1
:10108000272F382F492F5527A4E6B0E00E94D82DEE
:101090008B019C01005C154520473343013C1F4CEC
:1010A0002A46310518F060E070E0CB011F910F91E6
:1010B00008950F931F93CF938091C905813109F053
:1010C00088C0C091D10587E090E00E944102C81716
:1010D00009F47FC08AEC95E00E94350899270091B9
:1010E000940310919503209196033091970306176E
:1010F00017072807390709F06EC0C0916103CC7F3C
:10110000C0936103809180048093600380917F0489
:1011100080935F038091840390918503A09186035F
:10112000B091870380549342A109B10980934F0382
:1011300090935003A0935103B09352038DEC95E02C
:101140000E943508609353037093540380935503B2
:10115000909356038C2F8160809361030091D90591
:101160001091DA058FE090E00E944102801791070C
:10117000A1F582ED95E00E943508672F782F892F21
:10118000992787FD9A95609357037093580380932E
:10119000590390935A0385ED95E00E943508672F17
:1011A000782F892F992787FD9A9560935B03709319
:1011B0005C0380935D0390935E038091D2058093DE
:1011C0006203C360C093610381E0CF911F910F91CF
:1011D00008958EEFFACF8FEFF8CF80E0F6CFFC01C5
:1011E00001900020E9F73197AF01481B590BBC0172
:1011F00080ED96E00C943B03CF93DF930E9428048C
:10120000EC018CE391E00E94EF088C0F9D1FDF91B1
:10121000CF9108958F929F92AF92BF920F931F9399
:10122000CF93DF93CDB7DEB7A1970FB6F894DEBFAB
:101230000FBECDBF19A2423008F44AE08E010F5D07
:101240001F4F842E912CB12CA12CA50194010E943A
:10125000742DE62FB901CA01EA30F4F4E05DD8013B
:10126000EE938D01232B242B252B79F790E080E042
:10127000109719F0CD010E94EF08A1960FB6F894CF
:10128000DEBF0FBECDBFDF91CF911F910F91BF90F9
:10129000AF909F908F900895E95CE1CF0F931F93DB
:1012A000CF93DF9300D000D0CDB7DEB7DB011C9623
:1012B0009C911C971E963C911E971F962C911F97F0
:1012C0001D964C911D9749833A832B839C83BE01C5
:1012D0006B5F7F4F9E012F5F3F4FF90111919F017F
:1012E000412F42954F70F0E14F9FA0011124E12F53
:1012F000EF70E40FF52FF11DE05FFC4F9491A90111
:1013000041505109FA0190832617370731F791E0D0
:101310005BE1813039F0492F440F97FD452781501B
:10132000942FF7CF8981982799838D0194E0FE014E
:101330003196A801DA018D91AD0161918627BD0139
:1013400061507109DB018C93BF0161507109DB01B0
:101350008C93E217F30771F791500C5F1F4F9111B7
:10136000E6CF0F900F900F900F90DF91CF911F91CC
:101370000F9108953F924F925F926F927F928F925A
:101380009F92AF92BF92CF92DF92EF92FF920F9314
:101390001F93CF93DF93CDB7DEB768970FB6F8945E
:1013A000DEBF0FBECDBF8C0129E2C22E23E0D22EBC
:1013B000AC01405F5F4FC6017801FC01D70120E01E
:1013C0003D9130832F5F34962430D1F724E0E20E34
:1013D000F11C01964E155F0581F7A9E1B3E0FE010E
:1013E000319689E293E05E2E6F2E2D9121938A171C
:1013F0009B07D9F7852D962D0E947E0444244394A3
:101400008DE2A82E83E0B82E4E0139E1830E911CA7
:101410009BE1392E89E293E024E0DC01712CEC9110
:101420004E2F42954F7030E1439FA0011124EF7081
:10143000E40FF52FF11DE05FFC4FE491EC93739402
:10144000149654E07512EBCF215001962111E5CF8F
:101450000E946304E9E2F3E0CE014596BE016F5EAF
:101460007F4F9F01D9015C91DC015D93CD01452F38
:10147000440F57FD83C0DB014C932C5F3F4F6F5FE0
:101480007F4F8816990671F78E89398938272F89F9
:10149000688D9A8992279627432F492741934D8932
:1014A0005B899427952793839C89862784278527A2
:1014B000892787832427292732273387AE16BF063B
:1014C00059F6652D762D842D0E944E09852D962D79
:1014D0000E947E044394BAE04B129CCF89E293E0D1
:1014E000DC0140E0EC912E2F22952F7050E1259FDA
:1014F00090011124EF70E20FF32FF11DE05FFC4F1C
:10150000E491EC934F5F1496443061F77A9401961E
:101510007110E6CF0E946304652D762D8AE00E944B
:101520004E09852D962D0E947E04D801F60180E09B
:1015300090819D938F5F34968430D1F78FEFC81AD6
:10154000D80A0C5F1F4FE016F10679F768960FB6C0
:10155000F894DEBF0FBECDBFDF91CF911F910F91E9
:10156000FF90EF90DF90CF90BF90AF909F908F90C3
:101570007F906F905F904F903F90089543257BCF71
:101580008F929F92AF92BF92DF92EF92FF920F9352
:101590001F93CF93DF93D82EEB018A01E22EE091C7
:1015A0000E03F0910F03F08080849184A284B384B1
:1015B00081149104A104B10439F420E4822E22E4C0
:1015C000922E2FE0A22EB12C40E052E16AE770E0AB
:1015D00080E084169506A606B70640F476956795D2
:1015E000579547958F5F8630A1F787E0982F906ACF
:1015F0009695809581709CBD8DBD60E08F2D0E9479
:101600008502DEBC00000DB407FEFDCF8EB50C0FC9
:101610001D1FC017D10771F080E0E11001C0888163
:101620008EBD00000DB407FEFDCF8EB5E11088839E
:101630002196EFCF61E08F2DDF91CF911F910F9118
:10164000FF90EF90DF90BF90AF909F908F900C94A1
:101650008502CF93DF931F92CDB7DEB721E041E043
:1016600050E0BE016F5F7F4F0E94C00A89810F90DA
:10167000DF91CF910895CF93DF931F92CDB7DEB75F
:10168000698320E041E050E0BE016F5F7F4F8068DA
:101690000E94C00A0F90DF91CF910895CF93C82F79
:1016A00062E082E00E943B0B60E883E00E943B0B1B
:1016B00061E084E00E943B0B69E985E00E943B0BFE
:1016C00062E187E20E943B0B60EDC11168ED80E3AF
:1016D0000E943B0B60E481E30E943B0B61EC88E2DB
:1016E0000E943B0B64E989E20E943B0B61EC8AE2B9
:1016F000CF910C943B0B0F931F93CF93DF93C0912B
:101700008504C4310CF040C0CE30CCF1C2310CF0B5
:10171000C1E161E08091F8029091F90200918C039F
:1017200010918D0320918E0330918F03DC01ED9198
:10173000FC910084F185E02D4C2F0995813059F101
:101740008230E1F1CF301CF5CC301CF1C067D7E01E
:1017500014E06C2F89E00E943B0B8DE40E94290B62
:10176000887F682F612B8DE40E943B0B6D2F606298
:101770008BE0DF91CF911F910F910C943B0BCC3FED
:101780000CF4CCEF60E0C6CF62E0C4E1C3CFCEE0A2
:10179000DDCFCC5FDCCF80916E04877011F4CB304D
:1017A0005CF0C2302CF4C2E0C250C068DBE0D0CFA5
:1017B000C231D4F3C1E1F8CFCBE0F6CFD0E117E0EE
:1017C000CFE8C7CFAF92BF92CF92DF92EF92FF9256
:1017D0000F931F93CF93DF9380918C0390918D0390
:1017E000A0918E03B0918F039C01AD0160E070E089
:1017F00080E090E003E10E94B32EA12CE8E4BE2E2D
:10180000F8EECF2EDD24D394E12CF12C00E010E093
:101810000E941F2EC22FB32E6A017B01182FD92FD1
:1018200000E10E94CE2E622F86E00E943B0B2C2FFF
:101830003B2DA601B701812F9D2F08E00E94CE2EDF
:10184000622F87E00E943B0B6C2F88E0DF91CF91E5
:101850001F910F91FF90EF90DF90CF90BF90AF90CE
:101860000C943B0BCF93DF93D82FC82FC77019F080
:1018700081E00E94DE056D2F81E00E943B0BC111CB
:1018800005C080E0DF91CF910C94DE05DF91CF9110
:10189000089580918C0390918D03A0918E03B09157
:1018A0008F0381349D4DAA44BF4118F488E00C9405
:1018B000320C80E0FCCF80918C0390918D03A0913D
:1018C0008E03B0918F0381349D4DAA44BF4118F41B
:1018D00088E80C94320C80E8FCCFCF93C82F81E0CD
:1018E0000E94290B887F8C2BCF910C94320CE82F0F
:1018F000F0E0EE58FD4FE491EF3F09F0815008957C
:101900001092C905E091C90684E0E89FF001112416
:10191000E453FC4F80819181A281B3818C7F8093BD
:101920008C0390938D03A0938E03B0938F0381E873
:1019300091E190936F0480936E0408958F929F922B
:10194000AF92BF92CF92DF92EF92FF920F931F93CD
:10195000CF93DF93E9016A017B019CEFC9228330B9
:1019600008F074C0C114D104E104F10409F471C099
:1019700064E0869FF0011124E453FC4F8080918045
:10198000A280B3807CEF87228C149D04AE04BF0438
:1019900009F05FC00F3FA1F44AE552E0A2E7B2E0D0
:1019A000FA010591159125913491480159019CEF57
:1019B0008922C814D904EA04FB0408F44CC003705B
:1019C000E82FF0E0DF01AA0FBB1FAA0FBB1FA45333
:1019D000BC4F002E000C110B220B330B0C291D29C0
:1019E0002E293F290D931D932D933C9313972097F8
:1019F00011F4CFE3D0E0EE0FFF1FE45BFB4FD18388
:101A0000C08340916C0450916D0421E030E0B90135
:101A100002C0660F771F8A95E2F7CB01CD28CE284A
:101A2000CF2809F1842B952B90936D0480936C043F
:101A300081E0DF91CF911F910F91FF90EF90DF90A8
:101A4000CF90BF90AF909F908F900895803108F411
:101A5000A1CF80E0EECF4C5F5F4FA417B50709F030
:101A60009FCF00E0ADCF8095909584239523DCCF68
:101A700094E0899FF0011124EE5DFD4F6591759111
:101A80008591949108958F929F92AF92BF92CF9239
:101A9000DF92EF92FF92882379F0109277041092F0
:101AA000760410927B0410927A041092C4058091FF
:101AB00061038C608093610383E00E94380D4B01C9
:101AC0005C016DE273E080E090E0A50194010E946A
:101AD000962DC901059690937D0480937C04C09057
:101AE0004F03D0905003E0905103F090520382E1F5
:101AF000D80E8AE7E81EF11CD9011397A5019401BD
:101B00000E94D82DC61AD70AE80AF90AC092A8037B
:101B1000D092A903E092AA03F092AB03FF90EF905A
:101B2000DF90CF90BF90AF909F908F9008958F924D
:101B30009F92AF92BF92CF92DF92EF92FF920F935C
:101B40001F93CF93DF934B015C01EA01822F0E9428
:101B5000380D9B01AC01C0908003D0908103E090D0
:101B60008203F090830306E010E0C501B4010E94F7
:101B70001907AB01BC014C0D5D1D6E1D7F1D40930F
:101B800084035093850360938603709387034157C2
:101B90005240610971099E0187E493E0DF91CF9182
:101BA0001F910F91FF90EF90DF90CF90BF90AF907B
:101BB0009F908F900C9477068F929F92AF92BF92D6
:101BC000CF92DF92EF92FF92CF93C62FA09176042F
:101BD000B09177046D010B2E000CEE08FF08E09128
:101BE0007804F09179044F010F2E000CAA08BB086D
:101BF0008823D1F0482F50E09A010E94D12D6B012B
:101C00007C0187E0F594E794D794C7948A95D1F73F
:101C1000DF010E94D12D4B015C0197E0B594A794A0
:101C2000979487949A95D1F72091C405A0917A044E
:101C3000B0917B0430E00E94D12D860E971EA81E25
:101C4000B91E8C2F0E94380D9B01AC01C501B40157
:101C50000E94962DDA01C9010596A11DB11D8115BD
:101C600024E09207A105B1053CF08FEF93E090933B
:101C700082048093810406C0B7FFF9CF10928204DA
:101C8000109281048C2F0E94380D9B01AC01ADEFA6
:101C9000BFEF0E94D82D6C0D7D1D8E1D9F1DCF9115
:101CA000FF90EF90DF90CF90BF90AF909F908F907C
:101CB0000895E82FF0E0ED58FD4FE49181E0EF3F0B
:101CC00009F480E008956F927F928F929F92AF9275
:101CD000BF92CF92DF92EF92FF920F931F93CF9319
:101CE000DF93CDB7DEB760970FB6F894DEBF0FBEB7
:101CF000CDBF7B018A01282F30E0277F22303105BC
:101D000049F02430310509F4CBC0232B09F09FC0E2
:101D1000D12C98C083FD32C084EC92E00E94BA09B5
:101D200090E1692EFE0131966F0124ED822E22E0B2
:101D3000922E37E8732E0115110509F060C06091ED
:101D4000C4027091C5028091C6029091C7020E94A0
:101D5000BB2D60960FB6F894DEBF0FBECDBFDF91EE
:101D6000CF911F910F91FF90EF90DF90CF90BF9098
:101D7000AF909F908F907F906F900895E4ECF2E089
:101D800080E1DF011D928A95E9F7CACF011511059F
:101D9000E9F5E62FF0E0EC53FD4F80818058808319
:101DA00011E0D601E62D1D92EA95E9F7C6010E94E1
:101DB000BA090981C6010E94330207FF03C088895E
:101DC0008725888B112349F01981C6010E943302AF
:101DD00017FF03C088898725888BF601D5018D916F
:101DE0005D019191119789278C938A149B04B1F717
:101DF00010E000E084EC92E00E94BA099CCF84ECF1
:101E0000A82E82E0B82ED701950160E0F9018191FA
:101E10009F019D91AF01415051098927FA018083AB
:101E20006F5F7D0101501109603109F0AFCF0115DD
:101E3000110501F710E0B5CF8E0D9F1D0E94BA0964
:101E4000B0E1DB0E8D2D90E080179107A8F360E0E4
:101E500070E0CB017ECF80E1E4ECF2E0DE01119690
:101E600001900D928A95E1F7CE0101960E94BA0980
:101E7000FE0131969701205F3F4F9191D7018C91E0
:101E800089278D937D0101501109A217B30719F01D
:101E90000115110591F78091D3028F5F8093D302D2
:101EA00001151105C1F6D3CFCF92DF92EF92FF92C9
:101EB0000F931F93CF93DF93E9E1F3E080E1DF011C
:101EC0001D928A95E9F7E2EDF5E088E0DF011D92C9
:101ED0008A95E9F7C9E3D3E03A8D2B8D9C8D8D8DE2
:101EE0000AEC15E0F80130832093CB059093CC05E4
:101EF0008093CD05309198032091990390919A0396
:101F000080919B033093CE052093CF059093D0050D
:101F10008093D10540E150E0B80180E00E94630E5B
:101F20004BA587E090E0841B91092FEF3FE002C0B2
:101F3000359527958A95E2F7D8018D919C912823B4
:101F40003923A3E5B7E00E94C22DCE88DF88E88C54
:101F5000F98CB4E9CB0EB5E0DB1EB2E0EB1EF11C50
:101F6000C60ED71EE81EF91ECFA6D8AAE9AAFAAA5D
:101F70001CA681E090E001C0880F4A95EAF76AA5A7
:101F80008E5F0E94DC0DC61AD70AE80AF90ACBAAAE
:101F9000DCAAEDAAFEAA80918104909182049EA7FA
:101FA0008DA7DF91CF911F910F91FF90EF90DF9060
:101FB000CF9008958F929F92AF92BF92CF92DF926F
:101FC000EF92FF920F931F93CF93DF936B017C01EE
:101FD000EA01809170049091710482709670823051
:101FE000944059F40E94540F8091700490917104B0
:101FF0009260909371048093700480918304E091C7
:10200000870494E0E99FF0011124E45FFB4F4081D5
:10201000518162817381411551056105710541F05E
:1020200040938C0350938D0360938E0370938F03C2
:102030009091BF05963008F095E0891B20E087302D
:102040000CF027E020938304E22F022E000CFF0BFC
:10205000ED58FD4FE491F0E0EF77E068F0936F0406
:10206000E0936E042730C9F580908003909081033F
:10207000A0908203B0908303C701B6016A50710932
:102080008109910900E410E021E030E040E050E0F7
:102090000E941907AB01BC01480D591D6A1D7B1D2B
:1020A0004093840350938503609386037093870362
:1020B00041575240610971099E0187E493E0DF9125
:1020C000CF911F910F91FF90EF90DF90CF90BF9035
:1020D000AF909F908F900C947706AE01C701B60128
:1020E000DF91CF911F910F91FF90EF90DF90CF90F4
:1020F000BF90AF909F908F900C94970D4DE256E15A
:1021000064EB74EC84E090E00C94DA0F2091BA0553
:1021100030E0A4E2B4EF0E94C22D49E256E10C94F3
:10212000DA0F8C01EB018FE391E00E94EF088CE362
:1021300091E00E94EF08C8010E94EF086AE380ED79
:1021400096E00E94DB03BE0190E080E04AE00E943E
:102150000A098CE391E00E94EF0880ED96E00E946E
:1021600043040E949F04FFCF9091D902911106C0B1
:102170006CE874E088E491E00E949110903141F4A1
:1021800040E150E069ED72E080E00E94630E90E073
:10219000E92FF0E0E752FD4F80819F5F9093D902D5
:1021A0000895CF93DF9398E0899FE0011124C75CE5
:1021B000DC4FFE01EB58FF4F608332975183408321
:1021C0000E94A604FE01E958FF4F60837183828359
:1021D00093830E94B410CA58DF4F8F70888381E0C8
:1021E000DF91CF910895CF93DF9390E4ECECF3E08F
:1021F000DF01292F1D922A95E9F7ECE0F4E0DF01D9
:102200001D929A95E9F790E2ECE4F4E0DF01292FC2
:102210001D922A95E9F7ECEAF3E0DF011D929A9509
:10222000E9F727E030E030936D0420936C048111CE
:1022300030C083E0CCECD3E0ACE4B4E093E0980FA2
:102240002FE330E044E0849FF0011124EE5BFD4F6A
:1022500045915591659174914993599369937993F7
:102260002D933D938F5F8913EDCF48EE53E06EE0E1
:1022700080E00E94D11044E650E06EE081E00E94D0
:10228000D1104AE050E06BE182E0DF91CF910C94F5
:10229000D11080E0CFCFCF92DF92EF92FF92CF9319
:1022A000C82F0E94B410F82E0E94B4109F2D6C010C
:1022B000853224EF920720F024E2C21A24EFD20ADA
:1022C000F12CE12CCC2369F06C2F0E94542D292F86
:1022D00030E0A4E2B4EF0E94C22DC60ED71EE81E65
:1022E000F91EC701B601CF91FF90EF90DF90CF901C
:1022F0000895CF92DF92EF92FF926B017C01842FC1
:10230000442331F00E944B11C60ED71EE81EF91E61
:10231000809188048823A9F0809190039091910383
:10232000A0919203B0919303A7019601281B390B4A
:102330004A0B5B0BDA01C901181619061A061B06AF
:102340008CF4C0929003D0929103E0929203F092A9
:102350009303809170049091710491609093710443
:1023600080937004FF90EF90DF90CF9008951F93BB
:10237000CF93DF9360916E0470916F04162F1770E6
:10238000CB0133E0969587953A95E1F7D82FD37036
:10239000D13059F008F466C0D23009F465C066EC5B
:1023A00071E088E491E00E949110C0E8CB0125E043
:1023B000969587952A95E1F78370823009F458C085
:1023C000833009F457C0813009F450C0C260672FD0
:1023D00077276115710521F0C16082E20E943B0BF5
:1023E0006C2F8DE10E943B0B6091820463706059F9
:1023F0008FEF810F8295807F680F80916E0487FF39
:1024000064608EE10E943B0B8BEF810F823010F4F1
:10241000DD2391F1163011F4D13071F164E086E2E0
:102420000E943B0BC0E063E0D23081F480918C03CA
:1024300090918D03A0918E03B0918F03CFE78134EB
:102440009D4DAA44BF4108F0C4E662E086E30E94C5
:102450003B0BCC2399F06C2F8AE3DF91CF911F9136
:102460000C943B0BC0E7A2CFC0E9A0CFC460AFCFB4
:10247000C660ADCFC860ABCF6CE0D1CFDF91CF915C
:102480001F910895CF92DF92EF92FF92809198036F
:1024900090919903A0919A03B0919B03892B8A2B69
:1024A0008B2B09F054C080917004909171041092AC
:1024B00088048E7C977A90937104809370041092B4
:1024C000C60510928D040E94EA070E94B41063E0D2
:1024D0000E94542D9093870480E180938A0485E0C4
:1024E00080938B0481E00E94F3108091700490919E
:1024F000710493FF06C06AE870E084E891E00E94EE
:1025000091100E94A6046B017C0188E00E944B118F
:10251000C60ED71EE81EF91EC0928003D09281031A
:10252000E0928203F0928303809170049091710491
:102530008460909371048093700486E491E20E9419
:102540001F0681E0FF90EF90DF90CF90089580E02C
:10255000F9CFFF920F931F93CF93DF93CDB7DEB7E1
:102560002E970FB6F894DEBF0FBECDBF80E00E945D
:102570006D0C0E945E068EE0E9E3F3E0DE01119649
:1025800001900D928A95E1F709E313E083E993E066
:10259000F8019C01119221503040E1F78EE0FE01DC
:1025A0003196D80101900D928A95E1F70E94B410FE
:1025B000F82E0E94B4109F2D9093730480937204A0
:1025C000109271041092700410928C0480E8809331
:1025D000BD050E94EA0781E08093BA0580EA97E290
:1025E000AEEBB3E3F80187AB90AFA1AFB2AF83E03E
:1025F00082A78FEF83A72E960FB6F894DEBF0FBE8B
:10260000CDBFDF91CF911F910F91FF900895CF9291
:10261000DF92EF92FF92CF93DF93EC010E94A6042A
:102620006B017C014AE0F7FE0DC06DE280ED96E0A3
:102630000E94DB0366277727CB016C197D098E0981
:102640009F094AE00E940A0987EC91E00E94EF0886
:10265000FE013197E431F10508F087C0EE5CFC4ED5
:102660000C94B52D461350135313561359135C1382
:10267000B5135F13621365139D13A013A313A61361
:10268000A913B513AC13AF13C913B21384EB91E0C4
:10269000DF91CF91FF90EF90DF90CF900C94FC08EA
:1026A00084EA91E0F5CF83E991E0F2CF81E891E00F
:1026B000EFCF86E791E0ECCF8CE691E0E9CF8DE5B6
:1026C00091E0E6CF8CE491E0E3CF8CE191E00E94D1
:1026D000FC088091C70587FF04C08FE091E00E944D
:1026E000FC088091C9058823A1F085E091E00E9453
:1026F000FC086091C90570E090E080E04AE00E942B
:102700000A098CE391E00E94EF0883EF90E00E94B9
:10271000FC080E94A604AB01BC014059574C664C12
:102720007F4F2BE633E28AEF92E0DF91CF91FF906B
:10273000EF90DF90CF900C94770685EE90E0A8CFD5
:102740008CED90E0A5CF8EEC90E0A2CF81EC90E0F4
:102750009FCF83EB90E09CCF88EA90E099CF8AE905
:1027600090E096CF88E790E093CF88E690E00E94D3
:102770002804BE0190E080E04AE00E940A098CE350
:1027800091E0DF91CF91FF90EF90DF90CF900C948C
:10279000EF08DF91CF91FF90EF90DF90CF900895F9
:1027A000CF92DF92EF92FF92CF93DF93EC01C12C97
:1027B000D12C7601C3940C2E04C0CC0CDD1CEE1C75
:1027C000FF1C0A94D2F7E3FC03C0CE010E9407135A
:1027D000D701C60188279472AA27BB27892B8A2B89
:1027E0008B2B01F1E0913D03F0913E033097D1F046
:1027F0002091C9054091C805211102C0442391F0E0
:102800008091C70550E060E084FF04C0DA01A7535F
:10281000BA4F6C9130E046535A4F80913F039091EC
:1028200040030995CC2484E0D822E822FF24CD2857
:10283000CE28CF2819F1E0914103F091420330975F
:10284000E9F01092420310924103C231D10541F1E7
:102850008091C70583FD24C09091910461E0992384
:1028600039F0082E000C990B692F661F6627661F2A
:1028700070E080914303909144030995E0913903FE
:10288000F0913A03309771F0BE0180913B03909133
:102890003C03DF91CF91FF90EF90DF90CF900994B0
:1028A00060E0E6CFDF91CF91FF90EF90DF90CF9087
:1028B00008957F928F929F92AF92BF92CF92DF92B4
:1028C000EF92FF920F931F93CF93DF93C82F0E9435
:1028D0005B0C81E00E94290B87FD06C06BE973E069
:1028E00088E491E00E94911081E00E946D0CC2305A
:1028F00009F0A1C06AE08DE10E943B0B60E78EE128
:102900000E943B0B63E28CE00E943B0B6FEF83E283
:102910000E943B0B8091CA06882309F491C083E38F
:102920000E94290B682F6F7B83E30E943B0B8091F1
:102930006E0490916F04E3E096958795EA95E1F730
:10294000D82FD37081E30E94290B8877682F6360AA
:10295000D23008F07BC081E30E943B0B60E48FE241
:102960000E943B0B60E480E30E943B0B609181047A
:102970008FE10E943B0B64E389E30E943B0B6CE018
:1029800080E40E943B0B6FEF82E10E943B0BEC2F37
:10299000F0E0E458FD4F6491609581E10E943B0BAB
:1029A00080E00E949C0560E08DE00E943B0B60E0AF
:1029B0008FE00E943B0BC1114DC060918403709168
:1029C000850380918603909187030E9452056B01D5
:1029D0007C0186E00E946D0CC701B6010E94B5051E
:1029E00000916E0410916F04802F877056E0D52EF1
:1029F000D80E980163E0369527956A95E1F7237024
:102A0000C80175E0969587957A95E1F78370D5E0D2
:102A100039F0D6E0813021F0D8E0823009F4D7E0F7
:102A2000222379F144EFC42EBB24B394213061F505
:102A30002AEFC22E28C00E94B7110E94E20B62CF7B
:102A400083E30E94290B682F60646ECF682F636850
:102A500081E38ACF85E00E946D0CC23009F0C0CFBF
:102A600084EE91E0DF91CF911F910F91FF90EF9055
:102A7000DF90CF90BF90AF909F908F907F900C94FD
:102A8000312F3DE7C32EB12CA0908C0390908D0385
:102A900080908E0370908F0398EDE92E91E0F92ECF
:102AA000C11104C08AECE82E81E0F82E0E94A60431
:102AB0001F921F931F92DF93BF92CF921F92DF92BC
:102AC0007F928F929F92AF92FF92EF929F938F93FC
:102AD0007F936F9380EF91E09F938F930E941B2FC2
:102AE0008DB79EB744960FB6F8949EBF0FBE8DBFAC
:102AF000DF91CF911F910F91FF90EF90DF90CF90DA
:102B0000BF90AF909F908F907F900895CF92DF926B
:102B1000EF92FF92CF93C82F81E00E94290B87701C
:102B200069E274E0C1F480916E04877009F060C0BE
:102B3000C13041F41092C90580914D0390914E032C
:102B40000E941F060E94490C81E00E94290B87FF0A
:102B500006C062E074E088E491E00E94911081E098
:102B60000E946D0C0E94E20B63E28CE00E943B0B22
:102B70006EE18DE00E943B0B6BE082E10E943B0B1B
:102B800062E183E10E943B0B6AEA8FE10E943B0B0A
:102B90006FEF81E20E943B0B81E00E944E0B68E3E5
:102BA00080E40E943B0B80E00E949C05C11118C08C
:102BB00060918403709185038091860390918703CF
:102BC0000E9452056B017C0185E00E946D0CC701DB
:102BD000B601CF91FF90EF90DF90CF900C94B505A8
:102BE00085E0CF91FF90EF90DF90CF900C946D0C2B
:102BF0008C2FCF91FF90EF90DF90CF900C945914D1
:102C000083E190E00E94D01380E00C94861580ED63
:102C100098E290934E0380934D030C94001687E145
:102C20009FE190934E0380934D030C94001621E096
:102C30002093C705EEE6F4E02081318120683183DE
:102C400020831092C90590934E0380934D030C94FA
:102C5000001680E099E20C94171680E593E20C943C
:102C6000171682E08093C705E091C005F0E0ED58AB
:102C7000FD4FE491F0E0EF77E068F0936F04E093AC
:102C80006E048091A4039091A503A091A603B09136
:102C9000A70380938C0390938D03A0938E03B0932E
:102CA0008F031092C9050C94001687E199E2909366
:102CB0004E0380934D030C94311683E693E2909378
:102CC0004E0380934D030C943116AF92BF92CF9276
:102CD000DF92EF920F931F93CF93DF93DC011A14CF
:102CE0001B04A4F590E1E4ECF2E0EF01892F1992C6
:102CF0008A95E9F7F1E0F093D302F093C402E092F1
:102D0000C9024093CA025093CB026093CC027093E5
:102D1000CD020093CE021093CF022093D0023093C5
:102D2000D102FD01A9E1B3E001900D929A95E1F77E
:102D3000A501B60184E0DF91CF911F910F91EF9033
:102D4000DF90CF90BF90AF900C94630EDF91CF9146
:102D50001F910F91EF90DF90CF90BF90AF900895AB
:102D60002F923F924F925F926F927F928F929F929B
:102D7000AF92BF92CF92DF92EF92FF920F931F9389
:102D8000CF93DF93CDB7DEB764970FB6F894DEBF6D
:102D90000FBECDBF80917E048111A3C781E08093D7
:102DA0007E0422242394312C80917004909171042C
:102DB0009C01217C3327232B81F44091980350916F
:102DC000990360919A0370919B03452B462B472BE7
:102DD00021F582FD2EC00E94421280917E04815016
:102DE00080937E048111E0CF64960FB6F894DEBF25
:102DF0000FBECDBFDF91CF911F910F91FF90EF904C
:102E0000DF90CF90BF90AF909F908F907F906F900A
:102E10005F904F903F902F90089596FF0AC09F7B40
:102E200090937104809370048DEF9EE10E941F06C1
:102E3000D4CF0E94A60469837A838B839C834090BD
:102E40007004509071045C8A4B8AC2018270992789
:102E5000812C912C540141FE22C08090A8039090B7
:102E6000A903A090AA03B090AB0301E7801A02E087
:102E7000900AA108B10849815A816B817C81481967
:102E800059096A097B0977FF0AC092012D7D397FB4
:102E900030937104209370048BE090E07BC42B8905
:102EA0003C892C733327232B09F4C3C64B895C89D7
:102EB000447255275A8749878B899C8993FF00C1A3
:102EC000A0916C04B0916D04BC87AB8780918B049A
:102ED0008F70F10102C0EE0FFF1F8A95E2F7FE87A7
:102EE000ED87FFE0FD8309811A812B813C811E5211
:102EF000264B34490F87188B298B3A8BCF84D8887F
:102F0000E988FA8849E353E030E020E010E08D8161
:102F1000682F70E0DB01022E02C0B595A7950A94D8
:102F2000E2F7A0FF15C0DA01A958BF4F4D905D90A0
:102F30006D907C90D701C60184199509A609B7093F
:102F4000181619061A061B061CF4122F73016201CB
:102F50002F5F3F4F485F5F4F24303105D9F6412F37
:102F600050E0DA0103E0AA0FBB1F0A95E1F79D01CB
:102F700021553C4FF901808190E1412E512C712C5B
:102F8000612C21E0280F8F50203108F4822F282F48
:102F900030E0B101082E02C0660F771F0A94E2F7F5
:102FA0000B851C8560237123672B09F47AC0F90116
:102FB000EE0FFF1FE45BFB4F60817181ED85FE85A5
:102FC0006E237F23672B09F46CC0220F331F220F5F
:102FD000331FF901E453FC4F0081118122813381B9
:102FE0000370112722273327401651066206730605
:102FF00009F057C0A155BC4F8C9380938704C092B1
:103000008003D0928103E0928203F09283030B89C4
:103010001C89177F109371040093700480917004D1
:103020009091710420918804211102C090FF12C078
:10303000409190035091910360919203709193039A
:1030400097018601041B150B260B370B37FF02C0B7
:103050006A017B019C012270332781FF3FC04985B3
:103060005A85452BB1F144E455E968E070E04C0D18
:103070005D1D6E1D7F1D481959096A097B091416CB
:1030800015061606170654F540E1C501B4016C5645
:103090007A4F8D4F9F4F0E947911C12CD12C760110
:1030A00056C5915009F06DCF910101C0220F4A958C
:1030B000EAF72095FD81F223FD83F1111FCF9FCF09
:1030C000C0908003D0908103E0908203F09083034E
:1030D000A5CF48ED58EB65E070E0C9CF49815A8132
:1030E0006B817C814F585D4F6F4F7F4F26013701B9
:1030F000441A550A660A770AB301A20177FF1EC572
:1031000090908B0469847A84672809F44EC185FF06
:1031100009C070908D047D820D8101500D830F3F99
:1031200009F03EC11092CA05909172048091730417
:103130009093DB058093DC0543E150E06AEC75E099
:103140008AE00E94630E6093E0057093DF05809330
:10315000DE059093DD0587E18093C90580917204B7
:1031600090917304019690937304809372048EE798
:1031700090E190934E0380934D03E92DF0E0ED58DC
:10318000FD4F8491E0918C0400E2E09FF001112456
:103190008F79E82BF0936F04E0936E049092830490
:1031A00080917004909171048F76967F806898600A
:1031B0009093710480937004A091870414E0A19F00
:1031C000D0011124A453BC4FCD90DD90ED90FC9024
:1031D000A091C9054E2F4770B0E009F0DEC21B96E2
:1031E00043E0AA0FBB1F4A95E1F724E234EF0E94A7
:1031F000D12D20E533EC40E050E00E94962D4901AE
:103200005A01D701C60183709927AA27BB270CEF63
:10321000C022C0928C03D0928D03E0928E03F09274
:103220008F03E3E0880F991FEA95E1F7875C9C4FD5
:10323000FC01EB58FF4F1081109384047C0127E7B9
:10324000E20EF11C8D589F4FFC01A081B1819401C9
:103250000E94D82D49805A806B807C80640D751D3A
:10326000861D971DD7016D937D938D939C93139726
:1032700080918804882399F004C0880C991CAA1CAA
:10328000BB1C8A95D2F7840C951CA61CB71C809297
:10329000900390929103A0929203B0929303809135
:1032A0008A0418170CF4812F8093850481E190E043
:1032B0000E94D01310928003109281031092820317
:1032C0001092830381E00E94290B877059F080E0FF
:1032D0000E946D0C0E94A604625C7F4F8F4F9F4F2F
:1032E0000E945205C0908803D0908903E0908A0321
:1032F000F0908B031C141D041E041F040CF0D4C298
:1033000081E00E94591480918C0390918D03A091CB
:103310008E03B0918F0303E61FEF81349D4DAA44C5
:10332000BF4110F40CE51FEFE0910E03F0910F0385
:103330008781080F111D87FD1A950E94A604615E02
:103340007F4F8F4F9F4F0E9452050E94A604198203
:10335000C60ED71EE81EF91E8BE10E94290B49807C
:10336000481608F489830E94A6046C197D098E0909
:103370009F0997FDF1CF80E00E946D0C809186043B
:10338000082E000C990B6980600E712E711C681656
:1033900079060CF489C280914D0390914E0346CD7D
:1033A000892D0E94770C982EB7CE40919C035091A6
:1033B0009D0360919E0370919F0340385F4F6F4F54
:1033C0007F4F18F083EF9EE131CD2091C60521118A
:1033D0000DC04091A0035091A1036091A203709190
:1033E000A3034F3F5F4F6F4F7F4F61F37C0138E185
:1033F000E322FF2440E1E416F10409F45FC1A09048
:10340000920480919004882309F45AC18091870521
:10341000882309F455C1C0908605CC2009F450C119
:103420000C2D10E0A80168E875E082ED95E00E949F
:10343000122F085F1F4F109286051092870520916A
:10344000C105222331F026FF3EC180E428272093C6
:10345000C1052091C205222331F026FF44C180E43A
:1034600028272093C2058091C305823009F04BC103
:1034700081E08093C305093111050CF06DC1809185
:10348000B905882361F0809174049091750497FFC9
:1034900004C090E080E00E94A9071092B905F0E115
:1034A000EF16F10409F43AC14A2C512C92012B5F1A
:1034B0003F4F3E832D838D819E81800F911F9E8380
:1034C0008D838F3F910511F00CF02DC181E090E1CB
:1034D000E916F10409F480E0E0918B04E83008F08B
:1034E00027C1F0E0E65EFD4FE4914D805E80E4157B
:1034F000150408F431C190E49093CA059091B70582
:103500004091BD05492B209174043091750437FD1D
:1035100011C121523109203B324008F40BC120E493
:1035200098EF900F942B922B9093CF054091980396
:103530003091990320919A0390919B034093CB057E
:103540003093CC052093CD059093CE059091C60580
:10355000911118C020918E04211114C04091A00334
:103560005091A1036091A2037091A3034F5F5F4F3D
:103570006F4F7F4F4093A0035093A1036093A2032A
:103580007093A3032091A0033091A103215031092E
:103590002093D0053093D1051092B7058823D9F137
:1035A00080919104882309F4C7C080E88093CA05FC
:1035B000911103C081E08093C605F801E653FA4FEC
:1035C000809190048083C80185539A4F6C01B12C7F
:1035D000A50163E974E00E94122F0091A0031091ED
:1035E000A1032091A2033091A303015011092109E5
:1035F0003109409198035091990360919A03709119
:103600009B03809190048111A4C087E995E0F12C7F
:10361000E12C0E9465160D811E81045011098091D4
:10362000A0039091A103A091A203B091A3030197DD
:10363000A109B109609198035091990340919A03AF
:1036400030919B0320E174ECE72E72E0F72EF70136
:10365000422E11924A94E9F779E47093C4021092D1
:10366000C9020093D3026093CA025093CB024093E5
:10367000CC023093CD028093CE029093CF02A093E0
:10368000D002B093D102E7E9F5E0A9E1B3E00190FF
:103690000D922A95E1F7A8016AEC75E082E00E949C
:1036A000630EF801E653FA4F63837283818390833C
:1036B0005D805092C90586E890E15BCDA12CA6CE35
:1036C00008E010E0B8CEC801875C9C4FFC01EF56C3
:1036D000FD4F35E030838E569D4F2770DC012C93D3
:1036E0000E5F1F4FB6CEC801875C9C4FFC01EF56A2
:1036F000FD4F3AE030838E569D4F2370FC012083AE
:103700000E5F1F4FB0CE882309F4B5CEF801E65303
:10371000FA4F88E080830F5F1F4FADCE44E050E04A
:103720005E834D83C8CED8011496BE83AD83D3CEBD
:10373000E0E0DBCE20E0F4CE80918904882309F418
:103740003CCF80918E04811138CF81E080938E042C
:1037500034CF87EA95E05BCF88E08093C7058091FE
:103760009104811104C08091C605882319F088E472
:103770008093C705809170049091710487769E7F35
:1037800090937104809370041092C9051092C8053B
:103790008AE090E00E94D01320CB66E0640F660FB1
:1037A000660F58E0453008F450E0CD0133E0880F53
:1037B000991F3A95E1F7861B91094C9620E130E07C
:1037C000E7FF02C030E020E0820F931F2F2F332746
:1037D000232B09F466C024E130E0821B930B28E020
:1037E00030E018161906CCF4651B70E0860F971FA1
:1037F00001970E94602DCF0105E0969587950A9567
:10380000E1F7837090E00596869F9001879F300DC9
:10381000969F300D1124285F3F4F220F331F220F38
:10382000331F2F5C3F4F4F5F13E0F695E7951A95D6
:10383000E1F7E370842F8E1BE9E0FDE3853050F063
:103840008450990BE9E0FDE302C0F595E7958A9570
:10385000E2F784E0032E000C440B550B04C0220F4A
:10386000331F441F551F8A95D2F7A4E2B4EF0E947C
:10387000D82DAB01BC01CF01F7FD01969595879539
:10388000092E000CAA0BBB0B2A013B01480E591E46
:103890006A1E7B1EC301B2019F01FF0F440B550B33
:1038A000ACCC30E020E099CF80916E04877009F0B5
:1038B0006AC00E94490C81E00E946D0C80E00E9469
:1038C0004E0B60E085E20E943B0B65E086E20E94C1
:1038D0003B0B0E94E20B0E947B0B69E28AE00E9494
:1038E0003B0B64E380E40E943B0B6091C9056F5F72
:1038F00082E30E943B0B6091C90580E00E943B0B74
:103900004091C90550E020E06AEC75E080E80E9433
:10391000C00A81E00E949C05609180037091810340
:103920008091820390918303611571058105910552
:1039300031F10E9452056115710581059105F9F07B
:1039400000917A0310917B0320917C0330917D03D9
:10395000DC01CB01800F911FA21FB31F80937A035C
:1039600090937B03A0937C03B0937D0380917E03AF
:1039700090917F03019690937F0380937E0383E071
:103980000E946D0C2ACA0E945B0C81E00E94290BE8
:1039900087FD06C061E273E088E491E00E94911027
:1039A00081E00E946D0C0E94B7110E94E20B68E05A
:1039B0008AE00E943B0B0E947B0B64E389E30E9438
:1039C0003B0B6CE780E40E943B0B6FEF82E10E94AF
:1039D0003B0B67EF81E10E943B0B60E08EE00E94B1
:1039E0003B0B60E08DE00E943B0B6091C90582E2D9
:1039F0000E943B0B4091C90550E020E06AEC75E065
:103A000080E80E94C00A81E00E949C0560918003CA
:103A100070918103809182039091830361157105F8
:103A20008105910531F10E945205611571058105ED
:103A30009105F9F000917A0310917B0320917C03AA
:103A400030917D03DC01CB01800F911FA21FB31FBA
:103A500080937A0390937B03A0937C03B0937D03C0
:103A600080917E0390917F03019690937F038093D2
:103A70007E0383E00E946D0C00916E0410916F0430
:103A8000202F27702A5F2D83980163E036952795B4
:103A90006A95E1F72370C80175E0969587957A9548
:103AA000E1F7837089F0813091F0823099F437E04A
:103AB0003983222391F05AEFF52E213081F034EF33
:103AC000F32EEE24E3940CC045E04983F2CF56E098
:103AD0005983EFCF78E07983ECCF4DE7F42EE12CDA
:103AE000A090C90500918C03D0908D03C0908E03E7
:103AF000B0908F030E94A6041F921F931F924980CB
:103B00004F92EF92FF921F925D805F921F92AF9251
:103B1000BF92CF92DF920F939F938F937F936F9378
:103B200021E2622E22E0722E7F926F920E941B2F62
:103B30000FB6F894DEBF0FBECDBF4FC9232B09F4DB
:103B4000C7C0C114D104E104F10409F476C0809126
:103B500070049091710491FF7CC089819A81AB813E
:103B6000BC818F589D4FAF4FBF4F8D839E83AF83D6
:103B7000B88740916C0350916D0360916E03709112
:103B80006F03DB01CA014D805E806F8078848419E9
:103B90009509A609B709B7FFA8C0E0916503E7FD3D
:103BA00058C080916403310102C0660C771C8A956D
:103BB000E2F77A866986E60DE0936503E7FD49C082
:103BC000AE2FB0E020E030E345E750E00E94D82D72
:103BD0002B013C0187E075946794579447948A952C
:103BE000D1F78091680390916903A0916A03B09125
:103BF0006B03480E591E6A1E7B1E89858E5F60917D
:103C000063038E0F0E94DC0D461A570A680A790A70
:103C100040926C0350926D0360926E0370926F033A
:103C2000809181049091820490936703809366034E
:103C3000A0CF892B09F031CAD0C8C12CD12C760174
:103C4000C39485CF27E036E187E493E00E947706AE
:103C5000C4C8C114D104E104F10441F0D701C60184
:103C600088199909AA09BB09B7FD32C00E94800CC6
:103C700080917C0490917D049093820480938104D0
:103C80008091A8039091A903A091AA03B091AB03DE
:103C90008093840390938503A0938603B093870356
:103CA00089819A81AB81BC8188199909AA09BB09CC
:103CB000B7FD09C007E11FE110934E0300934D03C8
:103CC0000E9400168AC82FE036E1B501A401BCCFDE
:103CD000B701A601415752406109710921E13FE155
:103CE000B3CF82E080937E047FC8C114D104E10485
:103CF000F10441F0D701C601841B950BA60BB70B4D
:103D0000B7FDE6CF8091660390916703909382049C
:103D100080938104409384035093850360938603CA
:103D2000709387038091700390917103A091720347
:103D3000B091730380938C0390938D03A0938E03B3
:103D4000B0938F03E0916303F0E0ED58FD4FE491F1
:103D5000F0E0EF77E068F0936F04E0936E04109268
:103D6000C905415752406109710989819A81AB8126
:103D7000BC81841B950BA60BB70B181619061A06E7
:103D80001B060CF05FCF80917004909171048D7DC3
:103D9000997F90937104809370047EC88091700421
:103DA0009091710483FF1EC01092920482FF18C08C
:103DB000877E909371048093700482E190E00E946A
:103DC000D013809170049091710485709927892B8C
:103DD00049F40E945E0680E00E946D0C0C94B016BF
:103DE0008776E7CF08950E94CE1E0E94A9128CE02C
:103DF00090E00E94D0130C944212E0E7F4E080813E
:103E000091818E7D9F7B9183808310929803109285
:103E1000990310929A0310929B030E94CE1E0C9459
:103E200042120C94B0160E94D0130C94B016CF928C
:103E3000DF92EF92FF92CF93DF938091C9058823A1
:103E400009F48FC0C0904F03D0905003E09051030D
:103E5000F0905203C09161030E94590887FF81C00E
:103E6000C37071F480E00E94430DC4E0D0E0809103
:103E700070049091710491FD0E94540FCE01D0C046
:103E80002EEED21A80914F0390915003C81AD90A8E
:103E90006091C405662379F020917604309177040F
:103EA000C601821B930B70E06F5F7F4F0E94602DF5
:103EB0006901C60ED71E2091610322FD1DC08091AD
:103EC0007604909177048C199D0997FF03C0919512
:103ED00081959109909379048093780440917A04B4
:103EE00050917B044817590724F490937B048093E6
:103EF0007A04277F20936103D0927704C0927604DE
:103F000010928D041092C405809161038B7F809381
:103F10006103C4E0D0E0C0904F03D0905003E09024
:103F20005103F090520382E1D80E8AE7E81EF11C9B
:103F300063E080E00E94DC0DC61AD70AE80AF90A9D
:103F4000C092A803D092A903E092AA03F092AB0317
:103F5000809181049091820490937D0480937C04ED
:103F600086CFC0907604D09077040D2C000CEE081C
:103F7000FF0860E072E18AE790E06C197D098E0924
:103F80009F09C0904F03D0905003E0905103F090F0
:103F900052036C0D7D1D8E1D9F1D60934F0370930A
:103FA00050038093510390935203C0905303D090D9
:103FB0005403E0905503F090560320E8C20ED11C44
:103FC000E11CF11CC0925303D0925403E0925503BC
:103FD000F09256032091C4052F5F2093C4056C56C0
:103FE0007A4F8D4F9F4F44E00E9479118091C40514
:103FF0008A3350F480917C0490917D04C3E0D0E03A
:104000008F35914008F487CF8091700490917104AE
:104010008D7D997F90937104809370048BE090E084
:10402000DF91CF91FF90EF90DF90CF900C94131F12
:10403000CF9380917004909171048777909371046D
:104040008093700410928E041092C605209186050C
:10405000222351F030918705332309F471C0806128
:1040600090937104809370040E94A6046E5E75485C
:104070008F4F9F4F40E00E9479118091C705877054
:1040800079F0809170049091710494FF09C09F7E33
:1040900090937104809370048FE090E00E94D0139D
:1040A0008AE090E00E94131F80917404909175043F
:1040B00081979CF180918B040E94770CC82F0E94FD
:1040C000CF0690918B04811101C0C92F9C1342C06F
:1040D0008091740490917504813F92404CF08091DE
:1040E00070049091710490649093710480937004B3
:1040F00060E18C2F0E94FC06809170049091710405
:104100009C013061309371042093700428173907A3
:1041100021F08EE090E00E94D0132091C50522236B
:1041200061F0809170049091710481FF1AC082E067
:1041300090E00E94D0131092C50581E0CF910895C0
:10414000109291041092900420939204109286058C
:10415000886086CFC73061F290E080E00E94A907B6
:10416000C7CF21502093C5052111E7CF4091980377
:104170005091990360919A0370919B03452B462BB4
:10418000472BD9F29C0124743327232BB1F61092CC
:1041900061031092B7051092C6058E7781609093E7
:1041A0007104809370040E94800C0E94A604AB01ED
:1041B000BC014C5D594F64487F4F40934F0350936F
:1041C00050036093510370935203409384035093C0
:1041D0008503609386037093870321E531E287E4CA
:1041E00093E00E94770681E00E948615A6CF809119
:1041F000C6058823B1F1883020F58F5F8093C6050E
:1042000080FF07C080918B040E94770C60E80E94B9
:10421000FC066091840370918503809186039091E0
:10422000870343E00E94791180917004909171049A
:104230008F7790937104809370040E94B01681E090
:10424000089580E68093C705809174049091750469
:1042500001960E94A9071092C9051092C8050C94F6
:10426000182080918E04882379F090918904891711
:1042700058F48F5F80938E040E94A6046E5E75488A
:104280008F4F9F4F40E0CECF80E2DCCF80918F04F4
:10429000811103C081E080938F0485E090E00C944D
:1042A000131F80E00E946D0C0E945E068091C9057C
:1042B00081110DC080917004909171048C7F909356
:1042C00071048093700481E090E00C94131F0E94AD
:1042D000590887FD13C01092C90581E00E94861518
:1042E00040914F03509150036091510370915203DC
:1042F00021E531E287E493E00C94770681E00E94A7
:10430000430D80917004909171048E7F8260909330
:1043100071048093700482E090E0D7CFCF92DF9257
:10432000EF92FF92CF93DF9380917004909171048C
:1043300082FD20C085FD0DC08F779093710480931E
:10434000700481E0DF91CF91FF90EF90DF90CF90EC
:1043500008958F75909371048093700480918D04FB
:104360008A3018F48F5F80938D0489E090E00E947A
:10437000131FE7CF8F77909371048093700484E1CB
:1043800090E00E94D013809187048F5F833009F4FE
:1043900066C0809387048091C6058F5F8093C605B1
:1043A00063E00E94542D911109C080918B04C1E0FB
:1043B000873029F00E94770C80938B04C0E08091B5
:1043C000700490917104977F9093710480937004AE
:1043D0000E94A6046B017C018091B0039091B1030F
:1043E000A091B203B091B303B701A601481B590BCA
:1043F0006A0B7B0B77FF02C06C017D0120918B045F
:104400008FEF90E002C0959587952A95E2F70E947C
:104410004B11645973428D4F9F4FC60ED71EE81E35
:10442000F91EC0928003D0928103E0928203F09241
:104430008303CC2ED12CF12CE12CCC2399F0CCE3AE
:10444000D2E20E94A604AB01BC014C0D5D1D6E1DA5
:104450007F1D9E0187E493E00E94770672CF109241
:10446000870499CFC1E1DFE1ECCF8091C70580FFE0
:104470000C948E2180E0089588E090E00C94131F46
:10448000CF92DF92EF92FF920F931F93CF93DF9320
:104490008091C70580FF05C08091C905882309F474
:1044A000F5C0809170049091710487FFE8C0847218
:1044B0009927892B51F4DF91CF911F910F91FF9094
:1044C000EF90DF90CF900C9435221091C905111117
:1044D0000AC0DF91CF911F910F91FF90EF90DF9075
:1044E000CF900C948E21113111F0113221F780916F
:1044F000CA05837E8032F9F6C12FD0E0AE0141506B
:1045000051096BEC75E080E00E94630E2497AE01C8
:104510006AEC75E08AE00E94630E6B017C01C65371
:10452000DA4F688179818A819B810E94BB2DC616F2
:10453000D706E806F90609F0BECF81ED95E00E94A6
:104540003508609398037093990380939A0390932E
:104550009B038EEC95E00E943508992760939403A5
:1045600070939503809396039093970380E00E9445
:10457000F3101231D8F087EDE82E85E0F82EC3E075
:10458000C7010E943B08AB01BC0141155105610503
:10459000710531F00FEF30E020E08C2F0E949E0C6F
:1045A000CF5F83E0E80EF11CC83051F780917204B0
:1045B000909173040197EFE9F5E028E0DF011D9287
:1045C0002A95E9F721E02093970526E0EBECF5E04A
:1045D000A8E9B5E001900D922A95E1F780939E0538
:1045E00090939F0580E1E7E9F5E0A7EAB5E0019047
:1045F0000D928A95E1F782E08093A70540E150E0B3
:1046000067E975E080E00E94630E40E150E067EAF0
:1046100075E080E00E94630E8091700485FF08C001
:10462000C0918D0480918B04C15058F580938B0408
:10463000809170049091710489759D7F986090932A
:104640007104809370041092C6050E94FB0780ECF1
:104650009FEF0E94A9078091D505982F9F70909396
:10466000C005829587708093BF058091D605882309
:1046700059F08093BA0586E090E00E94131F81E014
:1046800006C00E94770CD0CF81E0F3CF80E0DF91AD
:10469000CF911F910F91FF90EF90DF90CF900895F1
:1046A0008091C90581110AC02091C0054DE556E1F0
:1046B00068ED78EB85E090E00C94970D0E94402225
:1046C000882391F308958091C905811102C0109249
:1046D000C7050C9440220F931F93CF93DF938091D3
:1046E00070049091710487FF08C084EC91E0DF9121
:1046F000CF911F910F910C94FC088C709927892BF6
:10470000D1F400918B04C02FD0E08C2F0E94CF06F3
:10471000882389F0C83078F4FE01E65EFD4FE4910D
:10472000EE2349F0EA3178F5FE01EC58FD4FE491B3
:104730002196EF3F51F7809170049091710483FDB1
:104740001FC02DE0E0E0F1E0A3E9B4E001900D929C
:104750002A95E1F71092910421E0209390042DE036
:10476000209392049C01286030937104209370047C
:1047700082FD04C01092C60510928E040E94B016ED
:104780008DED91E0B4CF0C17B1F260E88C2F0E9450
:10479000FC06D1CF2F923F924F925F926F927F9201
:1047A0008F929F92AF92BF92CF92DF92EF92FF9241
:1047B0000F931F93CF93DF93CDB7DEB7C754D109C3
:1047C0000FB6F894DEBF0FBECDBF2C013B01109297
:1047D0008605452B11F510928705F12CE12CE61486
:1047E000F704FCF0C701C95BDF4F0FB6F894DEBFDA
:1047F0000FBECDBFDF91CF911F910F91FF90EF9032
:10480000DF90CF90BF90AF909F908F907F906F90F0
:104810005F904F903F902F90089581E0809387059F
:10482000DCCF6201CE0CDF1CF6018081823008F4FF
:1048300034C0282F2250330BF9012231310508F002
:104840002CC0E551FE4FE4912E2F30E028963FAF6B
:104850002EAF28972115310529F25301AE18BF0854
:10486000A216B3060CF4BECF82508031C0F4E82FFC
:10487000F0E0E35CFB4D0C94B52D50245A2409263E
:10488000B32589251A26FA254F246A264F244F245A
:104890004F244F244F244F24A926E0E0D5CF3701E1
:1048A0002896EEADFFAD2897EE0DFF1D7301370181
:1048B0007F0195CF460107E025961FAE1EAE2597D6
:1048C000C5012596EEADFFAD25978E1B9F0B059775
:1048D0000CF49CC0F4011181312E3294AFE03A22E5
:1048E0009481907749F0903661F10E7F2AC0259629
:1048F0003FAF2EAF2597E4CF6281738149E353E048
:1049000030E020E0E1E0F0E0022E02C0EE0FFF1FF9
:104910000A94E2F7E623F723EF2B61F0FA01ED5654
:10492000FF4F80819181A281B3818C7F892B8A2B5B
:104930008B2BD9F22F5F3F4F4C5F5F4F20313105FA
:1049400009F7832D0E94590E811101C00D7F1F7040
:10495000183038F4E12FF0E0EE5EFD4FE491E038DE
:1049600009F40B7F25962EAD3FAD25972B5F3F4F6A
:10497000F5E08F0E911CF4018081833009F4B7CFEC
:1049800025968EAC9FAC2597F5E08F0E911C80E4A8
:10499000ECECF3E0DE01119601900D928A95E1F7BF
:1049A000A0906C04B0906D04073009F0ADC0140104
:1049B000F60141E026961FAE269710E025E022166C
:1049C00031040CF44EC01181348126963FAF2697F6
:1049D000832F8077E9F0803611F180916C049091FB
:1049E0006D0425E0221A3108359641E0009709F45C
:1049F00040E09F012C193D0928153905FCF2892B4F
:104A000091F1312E32948FE0382234C000E0B8CFDB
:104A10008281938190936D0480936C04DECFACEC23
:104A2000B3E090E080E030E020E04D915D916D9149
:104A30007D914C7F452B462B472B51F041E050E0B8
:104A4000082E02C0440F551F0A94E2F7242B352B81
:104A500001968031910549F730936D0420936C04E1
:104A6000BCCF411101C006E0312E3294EFE03E226E
:104A7000073039F4832D0E94CF0607E081110EC064
:104A800005E080E4FE013196ACECB3E001900D92BC
:104A90008A95E1F7B0926D04A0926C04AA24A394C5
:104AA000D12CC12CC4018C199D0905976CF0602F85
:104AB00083E00E94D407A82E35E0C30ED11CC81491
:104AC000D90414F48111EECF0730A9F426968FADE6
:104AD00026978F70909189048913809389041F70A1
:104AE00060E8183028F4E12FF0E0EE5EFD4F6491AD
:104AF000832D0E94FC0625968EAD9FAD2597E80E6E
:104B0000F91EAA2019F1CCCE26961FAE269710E0EA
:104B1000ABCF20918004022E000C330BC90102960A
:104B200097FD03969595879595958795182F1F73F3
:104B30004F970CF01FE11093BC050091860586E0AD
:104B40000E94B507811104C000938605F701AFCE1E
:104B50008FEF0E94B5078823B9F3812F0E94B50714
:104B6000882391F39DCEF6018181082F0F7090E08C
:104B700064E0959587956A95E1F7182F1770C7013E
:104B80000296840D951D0E943B084B015C0180EC50
:104B90008093C105802F0E94590E882329F08091AF
:104BA000C10582608093C10581149104A104B10400
:104BB00029F08091C10581608093C105143028F4EB
:104BC0008091C10584608093C1056091C105673CF7
:104BD00061F40093C0058092A4039092A503A09273
:104BE000A603B092A7031093BF05677085E00E94EB
:104BF000D4070DC0F60181818F7009F481E08093A4
:104C0000BA05F2E0F093C30588E00E94B507A82E2C
:104C100078CFF60181818F70809388040E94A6046A
:104C20006093900370939103809392039093930306
:104C300084E0EBCFC7010296840D951DFC01108125
:104C4000F601238034800E943B084B015C01F60191
:104C5000058181149104A104B10421F41229312A9F
:104C600012E009F413E0302E32945FE035220F7029
:104C7000301620F41D7F612F87E0B9CFF601D18077
:104C8000832D0E94590E8823A9F3802F0E94590E6C
:104C9000882381F31330E1F48FE090E083199109C8
:104CA0002FEF3FEF02C0369527958A95E2F78FEFF9
:104CB0009FEF02C0880F991F0A95E2F72823392336
:104CC0000FEFB501A4018D2D0E949E0C8111D3CF51
:104CD00012E0D1CFF6010181C7010296840D951D26
:104CE0000E943B0813E0611571058105910509F4E7
:104CF00012E0013150F5E02FF0E041E050E002C059
:104D0000440F551F0A95E2F720916C0430916D0411
:104D100024233523232B51F41D7F612F8AE00E9429
:104D2000D407A82E106C1093C205EBCE133079F483
:104D30009F01220F331F220F331FF901E45FFB4F46
:104D40006083718382839383E8CF10E0E6CF12E023
:104D5000E4CFC7010196840D951DF6011281FC0177
:104D60002081122BF6012381122B0E943B084B015C
:104D70005C01F60104810F70112341F013E08114EE
:104D80009104A104B10459F412E009C013E090EABF
:104D9000892E97E2992E9EEBA92E93E3B92E802FB0
:104DA0000E94590E811104C01D7F612F81E11FCF28
:104DB000133059F48092700390927103A0927203A1
:104DC000B092730300936303F0CF12E0EECF2F9203
:104DD0003F924F925F926F927F928F929F92AF928B
:104DE000BF92CF92DF92EF92FF920F931F93CF93D8
:104DF000DF93CDB7DEB729970FB6F894DEBF0FBEAD
:104E0000CDBFE090C9052E2D30E0398728872C30A2
:104E10003105E4F41092C90580E029960FB6F894A4
:104E2000DEBF0FBECDBFDF91CF911F910F91FF90DD
:104E3000EF90DF90CF90BF90AF909F908F907F903A
:104E40006F905F904F903F902F9008958091CA058A
:104E5000982F9370F9F6807E8D83803611F0803A1A
:104E6000C9F68BEC95E00E943508209198033091AB
:104E7000990340919A0350919B0329833A834B8372
:104E80005C83261737074807590721F63091CF056D
:104E90003E833F70F32EC32ED12C160148E0240E22
:104EA000311C888599850497998788878215930591
:104EB0000CF4B0CF88248A94982C281639064CF428
:104EC000F101E653FA4F2081822E912CD6011996DA
:104ED0001D0140909C0350909D0360909E03709034
:104EE0009F030091D0051091D105041915090F3FBA
:104EF000100709F07CC021E0421A510861087108CE
:104F000020E1E4ECF2E0DF01322F1D923A95E9F75F
:104F100039E43093C40231E03093C9024CEF4E0DB6
:104F20004F834093D30259815093CA028A81809360
:104F3000CB029B819093CC02AC81A093CD02409296
:104F4000CE025092CF026092D0027092D102E7E975
:104F5000F5E0A9E1B3E001900D922A95E1F74885CB
:104F600059856AEC75E082E00E94630E9B01AC01FA
:104F7000E885F985E653FA4F6081718182819381DA
:104F80000E94BB2D261737074807590709F042CF63
:104F900080919C0390919D03A0919E03B0919F03EB
:104FA000481659066A067B0638F584159505A60548
:104FB000B7050CF42FCF0197A109B1098415950508
:104FC000A605B70509F026CF8091B805882309F416
:104FD00021CFBD81B03A09F01DCF80E28093B705A3
:104FE0008114910409F4D6C001E010E033C0400EF2
:104FF000511E611C711C84CF0130104408F00ACF8F
:10500000D301C2010196A11DB11D80939C03909311
:105010009D03A0939E03B0939F033D8180E2303AAD
:1050200009F080E08093B8058093B70510E000E0B8
:105030008114910441F4FF2031F0488559852416EC
:1050400035060CF4E7CE8091B705811103C05E816F
:1050500054FF09C080917004909171048061909315
:1050600071048093700410928D041092B90580EC45
:105070009FEF0E94A9071092C1051092C3051092DC
:10508000C205E0916E04F0916F048E2F877033E0BB
:10509000F695E7953A95E1F7E370F0E093E0899FA4
:1050A000E00DF11D1124E350FE4FE49180917F0447
:1050B000082E000C990B80549109ED58FF0B8E1BA4
:1050C0009F0B97FD80E08093BB05A401B60182EDA4
:1050D00095E00E94CA23012B09F09CCEAFEF8A16FF
:1050E0009A0699F128853985221933093987288745
:1050F0001216130654F5A10146535A4F5A83498399
:10510000409198035091990360919A0370919B0389
:1051100087E995E08114910411F087EA95E0A8846D
:10512000B984C980DA80EE24E394F12C93018201E2
:105130000E9465168114910441F450E040E06885B6
:10514000798589819A810E94CA238091C605882326
:1051500049F05E8190E855FF90E48091C705892B66
:105160008093C7058091C705181419044CF080621C
:105170008093C7052092C8051092C90581E04DCEE5
:1051800080618093C7052092C805EF80E218E09205
:10519000C905F4CFFF2009F427CF01E010E04DCF7F
:1051A0008091C905882359F084E08093C7050E9447
:1051B000E726882321F08DE090E00E94D0130C9424
:1051C000B0168091700487FF19C08091C9058111C4
:1051D00002C00C94F7200E94E726811105C090912F
:1051E000C70590FFF6CF08958091C605882321F06A
:1051F0008091C70586FDEDCF0C94182081E0F3CF98
:105200008091C90581110EC0A091BA05B0E0119638
:1052100024E234EF0E94D12D2091C00545E556E1EE
:105220000C94970D0E94E128882371F308958091D2
:10523000C90581110BC01092C7050E94A6046459CC
:1052400073428D4F9F4F42E00E9479110C94E128E8
:105250001F920F920FB60F9211242F933F938F93AB
:105260009F93AF93BF938091110390911203A091EC
:105270001303B09114033091100323E0230F2D3753
:1052800058F50196A11DB11D2093100380931103C1
:1052900090931203A0931303B0931403809115030A
:1052A00090911603A0911703B09118030196A11DC8
:1052B000B11D8093150390931603A0931703B09329
:1052C0001803BF91AF919F918F913F912F910F90B4
:1052D0000FBE0F901F90189526E8230F0296A11D70
:1052E000B11DD2CF1F920F920FB60F9211242F93A0
:1052F0003F934F935F936F937F938F939F93AF935E
:10530000BF93EF93FF9380ED96E00E94B903FF9166
:10531000EF91BF91AF919F918F917F916F915F912D
:105320004F913F912F910F900FBE0F901F901895A6
:105330001F920F920FB60F9211242F938F939F936A
:10534000EF93FF93E091E006F091E1068081E09118
:10535000E606F091E70682FD1BC090818091E90688
:105360008F5F8F732091EA06821741F0E091E90682
:10537000F0E0E053F94F958F8093E906FF91EF91AC
:105380009F918F912F910F900FBE0F901F901895A6
:105390008081F4CFE0EDF6E01382128288EE93E094
:1053A000A0E0B0E084839583A683B78380E291E098
:1053B0009183808385EC90E09587848784EC90E0EE
:1053C0009787868780EC90E0918B808B81EC90E0D2
:1053D000938B828B82EC90E0958B848B86EC90E0B3
:1053E000978B868B118E128E138E148E82E391E032
:1053F00090936E0780936D070895CF93DF93CDB799
:10540000DEB7A0970FB6F894DEBF0FBECDBF78947D
:1054100084B5826084BD84B5816084BD85B58260B9
:1054200085BD85B5816085BD80916E00816080936A
:105430006E001092810080918100826080938100D3
:1054400080918100816080938100809180008160E3
:10545000809380008091B10084608093B10080913E
:10546000B00081608093B00080917A008460809366
:105470007A0080917A00826080937A0080917A002D
:10548000816080937A0080917A00806880937A00AE
:105490001092C100E091E006F091E10682E0808385
:1054A000E091DC06F091DD061082E091DE06F091DD
:1054B000DF068FEC80831092E806E091E406F0911D
:1054C000E50686E08083E091E206F091E3068081C4
:1054D00080618083E091E206F091E306808188603C
:1054E0008083E091E206F091E3068081806880830A
:1054F000E091E206F091E30680818F7D808364E68F
:1055000070E080E090E00E94090389EA92E00E9446
:10551000FC08ECECF6E084E0DF011D928A95E9F7E7
:105520008EE091E090930F0380930E038DE697E059
:105530009093F9028093F80261E08AE00E9485026C
:1055400061E08AE00E94B30260E089E00E94B30259
:1055500060E082E00E94B30260E086E00E94B30255
:1055600060E087E00E94B3021FB7F8948091F702D1
:10557000811127C0EEEDF2E08491E2EFF2E0949128
:10558000E82FF0E0EE0FFF1FE054FD4FA591B4911E
:10559000EC91E92321F461E08AE00E94850261E058
:1055A0008AE00E94B3028CB580618CBD8CB58064AA
:1055B0008CBD61E08DE00E94B30261E08BE00E944F
:1055C000B3028091F7028F5F8093F7021FBFE9EE6D
:1055D000F2E08EE0DF011D928A95E9F787E994E019
:1055E0009093F2028093F10282E08093EC02F093B8
:1055F0007207E093710781E00E94DE0500910E03BF
:1056000010910F03F80182818F3F49F060E00E9402
:10561000850261E0D80112968C910E94B3020E942B
:10562000A604625C7F4F8F4F9F4F0E945205F80186
:1056300082818F3F19F060E00E94B3020E94A604AD
:10564000685C7E4F8F4F9F4F0E94520580E00E9402
:105650006D0C82E40E94290B823109F016C2809100
:10566000F8029091F902DC01ED91FC910680F7813E
:10567000E02D0995882341F08BE40E94290B682FC7
:1056800060618BE40E943B0B82E00E94591481E030
:105690000E94290B87708530D1F709ED12E0A8E050
:1056A000EA2EF12C8CE20E94290B8170D82E8CE21C
:1056B0000E94290B8170D816A9F3F8018181880F07
:1056C0008D298183F1E0EF1AF10861F70F5F1F4F19
:1056D00042E0083E140719F710E11093D90280E068
:1056E0000E946D0C80E490E09093710480937004AC
:1056F0000E94A91240E150E069E972E0CE014196B2
:105700000E944B2D40E150E069E872E0CE01019625
:105710000E944B2D83E190E0A0E0B0E080939403E1
:1057200090939503A0939603B09397038AED97E720
:10573000ABE0B6E28093980390939903A0939A0309
:10574000B0939B03FE013196A7E9B5E0812F01904C
:105750000D928A95E1F7FE017196A7EAB5E00190F6
:105760000D921A95E1F780E00E94F3108091700489
:105770009091710489759D7B9860909371048093DA
:1057800070040E94FB0790E080E00E94A9078EE56C
:1057900092E00E94EF088CE391E00E94EF0801E0A4
:1057A0002FE330E040EA57E26EEB73E380E00E94C3
:1057B0009E0C1092B90580E89FEF9093750480933A
:1057C000740483E08093C0056EE085E00E94FC06CF
:1057D0008AEF92E00E946B23EFE0BE2EF0E0CF2E26
:1057E000F0E0DF2E72E0E72E73E0F72E10E000E02D
:1057F000E0910E03F0910F03E00FF11F83818F3FC3
:10580000C9F1D7014D905D906D907C904114510489
:105810006104710479F1F7011082118212821382FE
:1058200081E00E94290B87FFCEC082E10E94290BF4
:105830008093CB0683FF45C0F2E04F1A5108610800
:1058400071084092800350928103609282037092AB
:1058500083036FEF81E10E943B0B6FEF82E10E94B7
:105860003B0B80E00E946D0C80914D0390914E03A4
:105870000E941F060F5F1F4FE4E0EE0EF11C033085
:10588000110509F0B5CF0E949F040091CE0610913A
:10589000CF060115110509F4C9C0D8018D919C915D
:1058A0009093CF068093CE060E94CA04011511057D
:1058B00009F4DFC0D8011696ED91FC91C801099555
:1058C000D8C086FF7BC0E0916E04F0916F04CF01D9
:1058D00063E0969587956A95E1F7837061F4E770C8
:1058E000F0E0EE0FFF1FEE54FD4F85919491481AA2
:1058F000590A6108710840928403509285036092AE
:105900008603709287038DE10E94290B80FF45C0BA
:1059100082E20E94290B8093C90580E10E94290B35
:10592000682F8DE00E943B0B4091C90550E021E0BB
:105930006AEC75E080E00E94C00A89E10E94290BB0
:10594000809380048AE10E94290B282F30E0409147
:105950008C0350918D0360918E0370918F034134BD
:105960005D4D6A447F41D8F02D59310990918004F2
:1059700097FF18C0A92FBB27A1950CF4B095CD01B6
:105980009595879595958795281B390B203431057A
:105990009CF4205C20937F045CCF83E1BACF245A2F
:1059A0003109E4CF2D39BFEF3B079CF36B2D0E94EB
:1059B000542D280F311DEACF2FE7ECCF87FF49CFB9
:1059C0001092C90546CF8EE30E94290B8FE30E94F7
:1059D000290B83FF0CC04092800350928103609298
:1059E00082037092830381E00E946D0C3ACF82FFA4
:1059F0001AC040928403509285036092860370928D
:105A0000870382E30E94290B8093C905482F50E049
:105A100021E06AEC75E080E00E94C00A10928004E8
:105A200010927F04E0CF1092C905DDCFE091CC0643
:105A3000F091CD063097D9F0428053806480758014
:105A40000E94A604461A570A680A790A1414150413
:105A50001604170464F00091CC061091CD06F801ED
:105A6000808191819093CD068093CC061DCF0E94BA
:105A7000CA04C114D10409F4B5CE0E94A503882339
:105A800009F4B0CE0E940000ADCE65E370E087E877
:105A900092E00E949110FB01DC0102C005900D9282
:105AA00041505040D8F70895991B79E004C0991FE0
:105AB000961708F0961B881F7A95C9F78095089568
:105AC00097FB072E16F4009407D077FD09D00E94AB
:105AD000F52E07FC05D03EF4909581959F4F0895D3
