:100000000C940A020C9432020C9432020C943202C8
:100010000C9432020C9432020C9432020C94320290
:100020000C9432020C9432020C9432020C94320280
:100030000C9432020C9432020C9432020C94320270
:100040000C947E290C9432020C94EE290C94C8294D
:100050000C9432020C9432020C9432020C94320250
:100060000C9432020C943202556E6B6E6F776E20D8
:100070006576656E743A200045565F4A4F494E5F7B
:100080005458434F4D504C4554453A206E6F204ACA
:100090006F696E4163636570740045565F545843E1
:1000A000414E43454C45440045565F5458535441D6
:1000B00052540045565F4C494E4B5F414C495645A2
:1000C0000045565F4C494E4B5F4445414400455600
:1000D0005F5258434F4D504C4554450045565F5272
:1000E000455345540045565F4C4F53545F54535944
:1000F0004E4300206279746573206F6620706179C9
:100100006C6F6164005265636569766564200052B6
:10011000656365697665642061636B0045565F546D
:1001200058434F4D504C4554452028696E636C75BB
:100130006465732077616974696E6720666F7220E9
:1001400052582077696E646F7773290045565F5265
:10015000454A4F494E5F4641494C45440045565F2C
:100160004A4F494E5F4641494C45440045565F4A17
:100170004F494E45440045565F4A4F494E494E4708
:100180000045565F424541434F4E5F545241434BF9
:1001900045440045565F424541434F4E5F4D4953EC
:1001A0005345440045565F424541434F4E5F464FDD
:1001B000554E440045565F5343414E5F54494D45AB
:1001C0004F5554004F505F5458525850454E442C90
:1001D000206E6F742073656E64696E670050616392
:1001E0006B65742071756575656400030502050112
:1001F000060202050000060000010504042020207C
:100200000E11140C0F12090C0F06090C030609003D
:100210000306100E0C0A0806040240404080FFFF4F
:10022000FFFF000400000002000000010000800049
:100230000000400000002000000010000000050049
:100240000000A027BE33A027BE33A027BE33A127BE
:10025000BE33A127BE33A127BE338025DB33A19156
:10026000D63350CED533C2FDD133C0C8C53341DA01
:100270008E33FF0101010101010901FFC0400000AF
:10028000000000230026002900C9F7A168F70646F0
:100290008AAC2B2262FD2C21BCA32E241399C446C8
:1002A0005765AF97AA757A327E5374617274696E1E
:1002B0006700000000006700CC00B80154039D07F0
:1002C00000000000240027002A0000000000250094
:1002D00028002B00040404040404040402020202A3
:1002E00002020303030303030102040810204080F9
:1002F0000102040810200102040810200000000878
:1003000000020100000304070000000000000000DC
:10031000637C777BF26B6FC53001672BFED7AB76C2
:10032000CA82C97DFA5947F0ADD4A2AF9CA472C06D
:10033000B7FD9326363FF7CC34A5E5F171D83115DA
:1003400004C723C31896059A071280E2EB27B275FB
:1003500009832C1A1B6E5AA0523BD6B329E32F8473
:1003600053D100ED20FCB15B6ACBBE394A4C58CF6B
:10037000D0EFAAFB434D338545F9027F503C9FA83F
:1003800051A3408F929D38F5BCB6DA2110FFF3D20D
:10039000CD0C13EC5F974417C4A77E3D645D1973C1
:1003A00060814FDC222A908846EEB814DE5E0BDBBB
:1003B000E0323A0A4906245CC2D3AC629195E479F2
:1003C000E7C8376D8DD54EA96C56F4EA657AAE084C
:1003D000BA78252E1CA6B4C6E8DD741F4BBD8B8AE7
:1003E000703EB5664803F60E613557B986C11D9E4D
:1003F000E1F8981169D98E949B1E87E9CE5528DFC4
:100400008CA1890DBFE6426841992D0FB054BB16EF
:10041000202AFA2D11241FBECFEFD8E0DEBFCDBFBA
:1004200027E0ACEBB2E001C01D92A637B207E1F7BE
:1004300012E0A0E0B1E0E2E8F7E602C005900D921C
:10044000AC3BB107D9F712E0C9E0D2E004C0219774
:10045000FE010E94BB2EC830D107C9F70E94632A53
:100460000C94B4330C940000FC0120E1215008F4FA
:10047000089580E0211181819081990F87FD91601D
:100480009193F4CFBC01E2ECF5E090E080E030E045
:1004900020E04191942748E0DC01880F991FB7FFC5
:1004A00004C051E2852750E195274150A9F72F5FFD
:1004B0003F4F2617370769F70895833081F028F4F6
:1004C000813099F08230A9F008958730A9F0883002
:1004D000C9F08430B1F4809180008F7D03C0809199
:1004E00080008F7780938000089584B58F7784BDD6
:1004F000089584B58F7DFBCF8091B0008F77809376
:10050000B00008958091B0008F7DF9CF1F93CF93F5
:10051000DF93282F30E0F901E450FD4F8491F90179
:10052000E851FD4FD491F901EC52FD4FC491CC2319
:10053000A9F0162F81110E945D02EC2FF0E0EE0F62
:10054000FF1FE653FD4FA591B4918FB7F894EC913E
:10055000111108C0D095DE23DC938FBFDF91CF91BE
:100560001F910895DE2BF8CFCF93DF9390E0FC012D
:10057000E851FD4F24918C529D4FFC0184918823BA
:10058000D1F090E0880F991FFC01E054FD4FA59138
:10059000B491FC01E653FD4FC591D49161110EC099
:1005A0009FB7F8948C91E22FE0958E238C9328814D
:1005B000E223E8839FBFDF91CF9108958FB7F8942E
:1005C000EC91E22BEC938FBFF6CF3FB7F89480917C
:1005D0000D0390910E03A0910F03B091100326B567
:1005E000A89B05C02F3F19F00196A11DB11D3FBF6B
:1005F000BA2FA92F982F8827BC01CD01620F711D3A
:10060000811D911D42E0660F771F881F991F4A9533
:10061000D1F708958F929F92AF92BF92CF92DF92BF
:10062000EF92FF924B015C010E94E5026B017C019D
:100630000E94E5026C197D098E099F09683E73408E
:1006400081059105A8F321E0821A9108A108B1085B
:1006500088EEC80E83E0D81EE11CF11C81149104C1
:10066000A104B10429F7FF90EF90DF90CF90BF90E5
:10067000AF909F908F900895AF92BF92CF92DF92EC
:10068000EF92FF920F931F93CF93DF936C017B0147
:100690008B01040F151FEB015E01AE18BF08C017D8
:1006A000D10759F06991D601ED91FC910190F0814B
:1006B000E02DC6010995892B79F7C501DF91CF910E
:1006C0001F910F91FF90EF90DF90CF90BF90AF9070
:1006D0000895FC01538D448D252F30E0842F90E048
:1006E000821B930B541710F0CF960895019708952D
:1006F000FC01918D828D981761F0A28DAE0FBF2FF6
:10070000B11D5D968C91928D9F5F9F73928F90E04B
:1007100008958FEF9FEF0895FC01918D828D9817BA
:1007200031F0828DE80FF11D858D90E008958FEFF7
:100730009FEF0895FC01918D228D892F90E0805CC0
:100740009F4F821B91098F739927089588EC96E03B
:100750000E949A0321E0892B09F420E0822F08955A
:1007600080E090E0892B29F00E94A60381110C946F
:1007700000000895FC01A48DA80FB92FB11DA35A44
:10078000BF4F2C91848D90E001968F739927848FB1
:10079000A689B7892C93A089B1898C9183708064D4
:1007A0008C93938D848D981306C00288F389E02D75
:1007B00080818F7D80830895EF92FF920F931F9326
:1007C000CF93DF93EC0181E0888F9B8D8C8D981304
:1007D0001AC0E889F989808185FF15C09FB7F89410
:1007E000EE89FF896083E889F9898081837080645C
:1007F00080839FBF81E090E0DF91CF911F910F91A7
:10080000FF90EF900895F62E0B8D10E00F5F1F4FB5
:100810000F731127E02E8C8D8E110CC00FB607FCC4
:10082000FACFE889F989808185FFF5CFCE010E9452
:10083000BA03F1CFEB8DEC0FFD2FF11DE35AFF4F03
:10084000F0829FB7F8940B8FEA89FB8980818062E0
:10085000CFCF0F931F93CF93DF938C01D0E0C0E0F5
:10086000F801EC0FFD1F6491662341F088EC96E0DF
:100870000E94DC03892B11F02196F2CFCE01DF918B
:10088000CF911F910F910895CF93DF93EC01888D45
:100890008823B9F0AA89BB89E889F9898C9185FDFB
:1008A00003C0808186FD0DC00FB607FCF7CF8C9189
:1008B00085FFF2CF808185FFEDCFCE010E94BA0384
:1008C000E9CFDF91CF910895E1E2F3E08481958152
:1008D000948396819583978196838783808592857B
:1008E0009087828781859385918783878785968581
:1008F0009787958596879485958784870895CF9364
:1009000021E233E0BC01605F7F4FDC01F90140E090
:10091000CD9150815C2750834F5F34964430C1F7AE
:100920002F5F3F4F04968617970779F7CF91089569
:10093000682F88EC96E00E94DC0390E080E0089548
:10094000F8948091D0028F5F8093D00208950F9326
:100950001F930E94E502AB01BC012091CC02DC0197
:10096000CA013CE1B695A795979587953A95D1F739
:1009700082278870820F8093CC02E4E07695679599
:1009800057954795EA95D1F79B01382BC901BA01D4
:100990001F910F910895AF92BF92CF92DF92EF9285
:1009A000FF920F931F93CF93DF938091D0028150DA
:1009B0008093D002811169C078940DEC12E0D0E0F0
:1009C000C0E0BB24B394E0910603F0910703EC0F61
:1009D000FD1F23812F3F09F451C0F801D080ED2C79
:1009E000F12C30E0F901E450FD4F8491F901E85118
:1009F000FD4FC490F901EC52FD4FA490AA2009F4D8
:100A00004FC081110E945D02EA2DF0E0EE0FFF1F42
:100A1000E158FD4FA591B491EC91CE2231E020E058
:100A200009F430E0832F922FE816F90639F1DB2420
:100A3000F801D082DD2011F1CE01880F991F880FB7
:100A4000991F9C0126503D4F7901F90180819181C8
:100A5000A281B381892B8A2B8B2B81F40E94A7045E
:100A6000611571058105910521F461E070E080E078
:100A700090E0F701608371838283938321960F5FF7
:100A80001F4FC330D10509F09ECFDF91CF911F9149
:100A90000F91FF90EF90DF90CF90BF90AF900895AF
:100AA00090E080E0C1CFCF92DF92EF92FF926B0196
:100AB0007C010E94A704A7019601261B370B480B57
:100AC000590BDA01C901B7FF0CC066277727CB01A4
:100AD000621B730B840B950BFF90EF90DF90CF9010
:100AE0000895833332E09307A105B1058CF068E0E7
:100AF00070E080E090E00E940A030E94A704A70132
:100B00009601261B370B480B590BDA01C901E9CFB7
:100B1000181619061A061B0664F424E0880F991F9C
:100B20002A95E1F7880F991F880F991F059701975C
:100B3000F1F760E070E0CB01CFCF982FE091060392
:100B4000F091070381818F3F39F061E026812913FD
:100B500001C060E00C948602089581E0089580E071
:100B60000895089560E070E0CB0108950F931F93FE
:100B70006115710581059105F9F000916C031091E3
:100B80006D0320916E0330916F03DC01CB01800F68
:100B9000911FA21FB31F80936C0390936D03A093CA
:100BA0006E03B0936F03809170039091710301966F
:100BB00090937103809370031F910F910895CF92CA
:100BC000DF92EF92FF92A091F002B091F102682FB4
:100BD0006170ED91FC9111970190F081E02DCD01B4
:100BE00009956B017C01C114D104E104F10461F0A9
:100BF0000E94A7046C0D7D1D8E1D9F1DFF90EF9020
:100C0000DF90CF900C945305FF90EF90DF90CF9042
:100C10000895FC01208131812115310519F490E0FE
:100C200080E008952617370749F4FB0120813181C0
:100C3000FC013183208381E090E00895C901E9CF70
:100C4000CF93DF93EC010E94A00480914103909127
:100C50004203A0914303B0914403892B8A2B8B2B31
:100C600031F586EC96E06FE373E00E94090610927E
:100C7000400310923F0310924103109242031092DE
:100C8000430310924403D0934603C0934503E0917D
:100C9000C606F091C706A6ECB6E0309759F48FE38C
:100CA00093E08D939C93DF91CF910C94CB0484ECD3
:100CB00096E0D9CFDF010190F081E02DEECF0E94C8
:100CC000A0048091410390914203A0914303B0910D
:100CD0004403892B8A2B8B2B41F486EC96E06FE33F
:100CE00073E00E9409060C94CB0484EC96E0F7CFE5
:100CF000CF92DF92EF92FF920F931F93CF93DF93E8
:100D0000EC016A017B018901C114D104E104F10401
:100D100021F4C12CD12C7601C3940E94A0048A81B5
:100D20009B81AC81BD81892B8A2B8B2B89F586EC2D
:100D300096E0BE010E94090619821882CA82DB82EF
:100D4000EC82FD821F830E83E091C406F091C506FC
:100D500024EC36E0309779F082819381A481B581CB
:100D60008C199D09AE09BF09181619061A061B062B
:100D700094F4F983E883F901D183C083DF91CF91A3
:100D80001F910F91FF90EF90DF90CF900C94CB04C8
:100D900084EC96E0CECF9F010190F081E02DDACF78
:100DA000609164047091650421E030E002C0220F7C
:100DB000331F8A95E2F790E080E0A1E0B0E0AD015A
:100DC000082E02C0440F551F0A94E2F7462357230A
:100DD000452B59F0FC01EE0FFF1FEC5BFB4F4081F0
:100DE000518142235323452B31F4019680319105E3
:100DF00031F780E0089581E00895982F6038C1F0C0
:100E0000809182046817A1F06093820481E02091B0
:100E10008304291761F09093830480916804909172
:100E200069049860909369048093680481E0089550
:100E300080E0EDCF4F925F926F927F928F929F9260
:100E4000AF92BF92CF92DF92EF92FF920F931F93D8
:100E5000CF93DF936B017C0149015A01E801609156
:100E60003D0370913E036115710531F061364CE32D
:100E7000740710F060E67CE390E080E0A701960143
:100E80000E94CF2E722E032F142FB52FF62FE72F8F
:100E9000582E692EA0E00E949E2F84F42150310923
:100EA0004F4F5F4F6F4F7F4F8F4F9F4F722E032FCC
:100EB000142FB52FF62FE72F582E692E272D302F00
:100EC000412F5B2F6F2F7E2F852D962D00E10E94E5
:100ED000812F29013A01A5019401220F331F441FDC
:100EE000551FC301B201660F771F881F991F620F3C
:100EF000731F841F951F64587F4F8F4F9F4F0E9411
:100F00009C2E2C0F3D1F63E87FEF8FEF9FEF64193E
:100F1000750986099709211544E0340710F02FEF71
:100F200033E030937A04209379046C0D7D1D8E1D7F
:100F30009F1DDF91CF911F910F91FF90EF90DF9058
:100F4000CF90BF90AF909F908F907F906F905F9069
:100F50004F90089520916C0430916D0420383F4FDC
:100F600021F090936D0480936C040895982F8091E4
:100F70007F05E0917E05882361F0EF30A0F481E0E9
:100F80008E0F80937E05F0E0E058FA4F908381E069
:100F90000895E33F48F481E08E0F80937E05F0E0F2
:100FA000E557FB4FF3CF80E00895CF93DF93C62F33
:100FB000D0917E050E94B607811106C0D0937E05B0
:100FC00080E0DF91CF9108958C2F0E94B60788238F
:100FD000A9F381E0F6CF1092B7051092B80580EA28
:100FE00097E2AEEBB3E380939C0390939D03A093B1
:100FF0009E03B0939F030895CF93DF93C1E3D3E0A3
:10100000109298031092990310929A0310929B03E6
:1010100010929403109295031092960310929703E6
:10102000109285041092B1051092B0051092AF0590
:1010300010928104109286041092B9051092BB059B
:101040001092BA051092B6050E94EB0785E08093D6
:10105000C10680EA97E2AEEBB3E38FAB98AFA9AFDE
:10106000BAAF83E08AA7DF91CF910895FC01608138
:1010700071818281938108950F931F9301970E943C
:101080003608272F382F492F5527A4E6B0E00E94B5
:10109000092E8B019C01005C154520473343013C20
:1010A0001F4C2A46310518F060E070E0CB011F911B
:1010B0000F9108950F931F93CF938091C1058131B4
:1010C00009F088C0C091C90587E090E00E94420203
:1010D000C81709F47FC082EC95E00E943608992772
:1010E00000918C0310918D0320918E0330918F031A
:1010F000061717072807390709F06EC0C091590372
:10110000CC7FC093590380917804809358038091D9
:1011100077048093570380917C0390917D03A09185
:101120007E03B0917F0380549342A109B10980935B
:10113000470390934803A0934903B0934A0385EC77
:1011400095E00E94360860934B0370934C038093A4
:101150004D0390934E038C2F81608093590300912F
:10116000D1051091D2058FE090E00E9442028017D5
:101170009107A1F58AEC95E00E943608672F782F39
:10118000892F992787FD9A9560934F037093500399
:1011900080935103909352038DEC95E00E943608A2
:1011A000672F782F892F992787FD9A95609353038E
:1011B0007093540380935503909356038091CA050E
:1011C00080935A03C360C093590381E0CF911F916C
:1011D0000F9108958EEFFACF8FEFF8CF80E0F6CF22
:1011E000FC0101900020E9F73197AF01481B590B32
:1011F000BC0188EC96E00C943C03CF93DF930E94F3
:101200002904EC0184E391E00E94F0088C0F9D1FFB
:10121000DF91CF9108958F929F92AF92BF920F93DB
:101220001F93CF93DF93CDB7DEB7A1970FB6F89496
:10123000DEBF0FBECDBF19A2423008F44AE08E01D6
:101240000F5D1F4F842E912CB12CA12CA501940170
:101250000E947A2EE62FB901CA01EA30F4F4E05D6B
:10126000D801EE938D01232B242B252B79F790E0C9
:1012700080E0109719F0CD010E94F008A1960FB6FA
:10128000F894DEBF0FBECDBFDF91CF911F910F91BC
:10129000BF90AF909F908F900895E95CE1CF0F933E
:1012A0001F93CF93DF9300D000D0CDB7DEB7DB0123
:1012B0001C969C911C971E963C911E971F962C91F4
:1012C0001F971D964C911D9749833A832B839C83CE
:1012D000BE016B5F7F4F9E012F5F3F4FF901119160
:1012E0009F01412F42954F70F0E14F9FA0011124C3
:1012F000E12FEF70E40FF52FF11DE05FFC4F9491AB
:10130000A90141505109FA0190832617370731F797
:1013100091E05BE1813039F0492F440F97FD45277B
:101320008150942FF7CF8981982799838D0194E07C
:10133000FE013196A801DA018D91AD0161918627F8
:10134000BD0161507109DB018C93BF0161507109CE
:10135000DB018C93E217F30771F791500C5F1F4F7D
:101360009111E6CF0F900F900F900F90DF91CF91DA
:101370001F910F9108953F924F925F926F927F92CB
:101380008F929F92AF92BF92CF92DF92EF92FF9295
:101390000F931F93CF93DF93CDB7DEB768970FB648
:1013A000F894DEBF0FBECDBF8C0121E2C22E23E038
:1013B000D22EAC01405F5F4FC6017801FC01D7011E
:1013C00020E03D9130832F5F34962430D1F724E024
:1013D000E20EF11C01964E155F0581F7A1E1B3E025
:1013E000FE01319681E293E05E2E6F2E2D912193C6
:1013F0008A179B07D9F7852D962D0E947F044424D8
:10140000439485E2A82E83E0B82E4E0139E1830E85
:10141000911C9BE1392E81E293E024E0DC01712CE8
:10142000EC914E2F42954F7030E1439FA001112463
:10143000EF70E40FF52FF11DE05FFC4FE491EC93AA
:101440007394149654E07512EBCF2150019621113C
:10145000E5CF0E946404E1E2F3E0CE014596BE01CF
:101460006F5E7F4F9F01D9015C91DC015D93CD01DF
:10147000452F440F57FD83C0DB014C932C5F3F4F3A
:101480006F5F7F4F8816990671F78E8939893827E3
:101490002F89688D9A8992279627432F4927419350
:1014A0004D895B899427952793839C898627842778
:1014B0008527892787832427292732273387AE1654
:1014C000BF0659F6652D762D842D0E944F09852D76
:1014D000962D0E947F044394BAE04B129CCF81E288
:1014E00093E0DC0140E0EC912E2F22952F7050E12B
:1014F000259F90011124EF70E20FF32FF11DE05FA3
:10150000FC4FE491EC934F5F1496443061F77A946A
:1015100001967110E6CF0E946404652D762D8AE055
:101520000E944F09852D962D0E947F04D801F60157
:1015300080E090819D938F5F34968430D1F78FEF58
:10154000C81AD80A0C5F1F4FE016F10679F76896A3
:101550000FB6F894DEBF0FBECDBFDF91CF911F91C4
:101560000F91FF90EF90DF90CF90BF90AF909F9042
:101570008F907F906F905F904F903F90089543259C
:101580007BCF8F929F92AF92BF92DF92EF92FF92AA
:101590000F931F93CF93DF93D82EEB018A01E22E96
:1015A000E0910603F0910703F08080849184A28487
:1015B000B38481149104A104B10439F420E4822E8F
:1015C00022E4922E2FE0A22EB12C40E052E16AE7F5
:1015D00070E080E084169506A606B70640F476957E
:1015E0006795579547958F5F8630A1F787E0982FCD
:1015F000906A9695809581709CBD8DBD60E08F2D21
:101600000E948602DEBC00000DB407FEFDCF8EB541
:101610000C0F1D1FC017D10771F080E0E11001C051
:1016200088818EBD00000DB407FEFDCF8EB5E110A0
:1016300088832196EFCF61E08F2DDF91CF911F91AD
:101640000F91FF90EF90DF90BF90AF909F908F90A1
:101650000C948602CF93DF931F92CDB7DEB721E0C3
:1016600041E050E0BE016F5F7F4F0E94C10A898157
:101670000F90DF91CF910895CF93DF931F92CDB755
:10168000DEB7698320E041E050E0BE016F5F7F4F2D
:1016900080680E94C10A0F90DF91CF910895CF9387
:1016A000C82F62E082E00E943C0B60E883E00E9469
:1016B0003C0B61E084E00E943C0B69E985E00E94FC
:1016C0003C0B62E187E20E943C0B60EDC11168EDCA
:1016D00080E30E943C0B60E481E30E943C0B61ECE0
:1016E00088E20E943C0B64E989E20E943C0B61ECB9
:1016F0008AE2CF910C943C0B0F931F93CF93DF930F
:10170000C0917D04C4310CF040C0CE30CCF1C23168
:101710000CF0C1E161E08091F0029091F102009142
:101720008403109185032091860330918703DC01A7
:10173000ED91FC910084F185E02D4C2F09958130CD
:1017400059F18230E1F1CF301CF5CC301CF1C0678B
:10175000D7E014E06C2F89E00E943C0B8DE40E94DE
:101760002A0B887F682F612B8DE40E943C0B6D2F24
:1017700060628BE0DF91CF911F910F910C943C0B35
:10178000CC3F0CF4CCEF60E0C6CF62E0C4E1C3CF45
:10179000CEE0DDCFCC5FDCCF80916604877011F4A2
:1017A000CB305CF0C2302CF4C2E0C250C068DBE049
:1017B000D0CFC231D4F3C1E1F8CFCBE0F6CFD0E146
:1017C00017E0CFE8C7CFAF92BF92CF92DF92EF92F0
:1017D000FF920F931F93CF93DF9380918403909197
:1017E0008503A0918603B09187039C01AD0160E061
:1017F00070E080E090E003E10E94682FA12CE8E413
:10180000BE2EF8EECF2EDD24D394E12CF12C00E097
:1018100010E00E940B2FC22FB32E6A017B01182FFC
:10182000D92F00E10E94832F622F86E00E943C0B9B
:101830002C2F3B2DA601B701812F9D2F08E00E9480
:10184000832F622F87E00E943C0B6C2F88E0DF9192
:10185000CF911F910F91FF90EF90DF90CF90BF90AD
:10186000AF900C943C0BCF93DF93D82FC82FC77049
:1018700019F081E00E94DF056D2F81E00E943C0B92
:10188000C11105C080E0DF91CF910C94DF05DF919D
:10189000CF9108958091840390918503A091860350
:1018A000B091870381349D4DAA44BF4118F488E06C
:1018B0000C94330C80E0FCCF8091840390918503DD
:1018C000A0918603B091870381349D4DAA44BF4106
:1018D00018F488E80C94330C80E8FCCFCF93C82F21
:1018E00081E00E942A0B887F8C2BCF910C94330CC3
:1018F000E82FF0E0EE58FD4FE491EF3F09F0815002
:1019000008951092C105E091C10684E0E89FF001BE
:101910001124EC53FC4F80819181A281B3818C7F93
:101920008093840390938503A0938603B0938703E9
:1019300081E891E1909367048093660408958F9203
:101940009F92AF92BF92CF92DF92EF92FF920F934E
:101950001F93CF93DF93E9016A017B019CEFC922BA
:10196000833008F074C0C114D104E104F10409F417
:1019700071C064E0869FF0011124EC53FC4F80801D
:101980009180A280B3807CEF87228C149D04AE04EA
:10199000BF0409F05FC00F3FA1F44AE552E0A2E79F
:1019A000B2E0FA0105911591259134914801590150
:1019B0009CEF8922C814D904EA04FB0408F44CC043
:1019C0000370E82FF0E0DF01AA0FBB1FAA0FBB1FB7
:1019D000AC53BC4F002E000C110B220B330B0C2907
:1019E0001D292E293F290D931D932D933C93139769
:1019F000209711F4CFE3D0E0EE0FFF1FEC5BFB4F1D
:101A0000D183C083409164045091650421E030E0AB
:101A1000B90102C0660F771F8A95E2F7CB01CD2886
:101A2000CE28CF2809F1842B952B909365048093C1
:101A3000640481E0DF91CF911F910F91FF90EF90AF
:101A4000DF90CF90BF90AF909F908F90089580319E
:101A500008F4A1CF80E0EECF4C5F5F4FA417B5072D
:101A600009F09FCF00E0ADCF80959095842395231A
:101A7000DCCF94E0899FF0011124EE5DFD4F65916C
:101A800075918591949108958F929F92AF92BF9294
:101A9000CF92DF92EF92FF92882379F010926F0439
:101AA00010926E0410927304109272041092BC058E
:101AB000809159038C608093590383E00E94390D13
:101AC0004B015C016DE273E080E090E0A5019401C0
:101AD0000E949C2EC901059690937504809374040E
:101AE000C0904703D0904803E0904903F0904A0328
:101AF00082E1D80E8AE7E81EF11CD9011397A501EF
:101B000094010E94092EC61AD70AE80AF90AC0925F
:101B1000A003D092A103E092A203F092A303FF904E
:101B2000EF90DF90CF90BF90AF909F908F900895EF
:101B30008F929F92AF92BF92CF92DF92EF92FF92DD
:101B40000F931F93CF93DF934B015C01EA01822F28
:101B50000E94390D9B01AC01C0907803D0907903AD
:101B6000E0907A03F0907B0306E010E0C501B40139
:101B70000E941A07AB01BC014C0D5D1D6E1D7F1D3F
:101B800040937C0350937D0360937E0370937F03A7
:101B900041575240610971099E018FE393E0DF9143
:101BA000CF911F910F91FF90EF90DF90CF90BF905A
:101BB000AF909F908F900C9478068F929F92AF92E7
:101BC000BF92CF92DF92EF92FF92CF93C62FA09158
:101BD0006E04B0916F046D010B2E000CEE08FF082F
:101BE000E0917004F09171044F010F2E000CAA08CF
:101BF000BB088823D1F0482F50E09A010E94C82EDC
:101C00006B017C0187E0F594E794D794C7948A959B
:101C1000D1F7DF010E94C82E4B015C0197E0B5941B
:101C2000A794979487949A95D1F72091BC05A09199
:101C30007204B091730430E00E94C82E860E971E85
:101C4000A81EB91E8C2F0E94390D9B01AC01C50145
:101C5000B4010E949C2EDA01C9010596A11DB11D97
:101C6000811524E09207A105B1053CF08FEF93E0C8
:101C700090937A048093790406C0B7FFF9CF10924D
:101C80007A04109279048C2F0E94390D9B01AC01CB
:101C9000ADEFBFEF0E94092E6C0D7D1D8E1D9F1DA7
:101CA000CF91FF90EF90DF90CF90BF90AF909F903B
:101CB0008F900895E82FF0E0ED58FD4FE49181E01A
:101CC000EF3F09F480E008956F927F928F929F9288
:101CD000AF92BF92CF92DF92EF92FF920F931F933A
:101CE000CF93DF93CDB7DEB760970FB6F894DEBF22
:101CF0000FBECDBF7B018A01282F30E0277F223025
:101D0000310549F02430310509F4CBC0232B09F00B
:101D10009FC0D12C98C083FD32C08CEB92E00E9412
:101D2000BB0990E1692EFE0131966F012CEC822EE9
:101D300022E0922E37E8732E0115110509F060C0DC
:101D40006091BC027091BD028091BE029091BF0271
:101D50000E94C12E60960FB6F894DEBF0FBECDBFB5
:101D6000DF91CF911F910F91FF90EF90DF90CF9077
:101D7000BF90AF909F908F907F906F900895ECEB05
:101D8000F2E080E1DF011D928A95E9F7CACF0115E3
:101D90001105E9F5E62FF0E0E454FD4F808180580D
:101DA000808311E0D601E62D1D92EA95E9F7C60180
:101DB0000E94BB090981C6010E94340207FF03C0CB
:101DC00088898725888B112349F01981C6010E94D3
:101DD000340217FF03C088898725888BF601D50157
:101DE0008D915D019191119789278C938A149B04A1
:101DF000B1F710E000E08CEB92E00E94BB099CCFB1
:101E00008CEBA82E82E0B82ED701950160E0F90195
:101E100081919F019D91AF01415051098927FA019C
:101E200080836F5F7D0101501109603109F0AFCFF0
:101E30000115110501F710E0B5CF8E0D9F1D0E9411
:101E4000BB09B0E1DB0E8D2D90E080179107A8F360
:101E500060E070E0CB017ECF80E1ECEBF2E0DE01F0
:101E6000119601900D928A95E1F7CE0101960E949C
:101E7000BB09FE0131969701205F3F4F9191D70139
:101E80008C9189278D937D0101501109A217B30709
:101E900019F00115110591F78091CB028F5F8093A6
:101EA000CB0201151105C1F6D3CFCF92DF92EF928D
:101EB000FF920F931F93CF93DF93E1E1F3E080E173
:101EC000DF011D928A95E9F7EAECF5E088E0DF0191
:101ED0001D928A95E9F7C1E3D3E03A8D2B8D9C8D55
:101EE0008D8D02EC15E0F80130832093C3059093AB
:101EF000C4058093C5053091900320919103909182
:101F00009203809193033093C6052093C705909365
:101F1000C8058093C90540E150E0B80180E00E9407
:101F2000640E4BA587E090E0841B91092FEF3FE002
:101F300002C0359527958A95E2F7D8018D919C913D
:101F400028233923A3E5B7E00E944B2ECE88DF88F3
:101F5000E88CF98CB4E9CB0EB5E0DB1EB2E0EB1EE9
:101F6000F11CC60ED71EE81EF91ECFA6D8AAE9AAF4
:101F7000FAAA1CA681E090E001C0880F4A95EAF712
:101F80006AA58E5F0E94DD0DC61AD70AE80AF90A13
:101F9000CBAADCAAEDAAFEAA8091790490917A04DA
:101FA0009EA78DA7DF91CF911F910F91FF90EF908A
:101FB000DF90CF9008958F929F92AF92BF92CF9271
:101FC000DF92EF92FF920F931F93CF93DF936B01FA
:101FD0007C01EA0180916804909169048270967096
:101FE0008230944059F40E94550F8091680490917A
:101FF00069049260909369048093680480917B04E3
:10200000E0917F0494E0E99FF0011124EC5FFB4F25
:1020100040815181628173814115510561057105CE
:1020200041F040938403509385036093860370933B
:1020300087039091B705963008F095E0891B20E062
:1020400087300CF027E020937B04E22F022E000C57
:10205000FF0BED58FD4FE491F0E0EF77E068F0936F
:102060006704E09366042730C9F580907803909068
:102070007903A0907A03B0907B03C701B6016A5040
:1020800071098109910900E410E021E030E040E0AD
:1020900050E00E941A07AB01BC01480D591D6A1D92
:1020A0007B1D40937C0350937D0360937E0370936C
:1020B0007F0341575240610971099E018FE393E00C
:1020C000DF91CF911F910F91FF90EF90DF90CF9014
:1020D000BF90AF909F908F900C947806AE01C7018F
:1020E000B601DF91CF911F910F91FF90EF90DF909C
:1020F000CF90BF90AF909F908F900C94980D4EE230
:1021000056E164EB74EC84E090E00C94DB0F2091DA
:10211000B20530E0A4E2B4EF0E944B2E4AE256E151
:102120000C94DB0F8C01EB0187E391E00E94F00837
:1021300084E391E00E94F008C8010E94F0086AE37D
:1021400088EC96E00E94DC03BE0190E080E04AE06B
:102150000E940B0984E391E00E94F00888EC96E06D
:102160000E9444040E94A004FFCF9091D1029111DB
:1021700006C06CE874E080E491E00E949210903117
:1021800041F440E150E061ED72E080E00E94640EB5
:1021900090E0E92FF0E0EF52FD4F80819F5F909338
:1021A000D1020895CF93DF9398E0899FE001112435
:1021B000CF5CDC4FFE01EB58FF4F608332975183B9
:1021C00040830E94A704FE01E958FF4F608371839A
:1021D000828393830E94B510CA58DF4F8F70888323
:1021E00081E0DF91CF910895CF93DF9390E4E4EC09
:1021F000F3E0DF01292F1D922A95E9F7E4E0F4E0EE
:10220000DF011D929A95E9F790E2E4E4F4E0DF0142
:10221000292F1D922A95E9F7E4EAF3E0DF011D92E8
:102220009A95E9F727E030E0309365042093640441
:10223000811130C083E0C4ECD3E0A4E4B4E093E0C7
:10224000980F2FE330E044E0849FF0011124EE5B0F
:10225000FD4F4591559165917491499359936993B7
:1022600079932D933D938F5F8913EDCF48EE53E023
:102270006EE080E00E94D21044E650E06EE081E023
:102280000E94D2104AE050E06BE182E0DF91CF91F2
:102290000C94D21080E0CFCFCF92DF92EF92FF92DA
:1022A000CF93C82F0E94B510F82E0E94B5109F2D15
:1022B0006C01853224EF920720F024E2C21A24EF49
:1022C000D20AF12CE12CCC2369F06C2F0E945A2EFB
:1022D000292F30E0A4E2B4EF0E944B2EC60ED71E89
:1022E000E81EF91EC701B601CF91FF90EF90DF9075
:1022F000CF900895CF92DF92EF92FF926B017C0115
:10230000842F442331F00E944C11C60ED71EE81EC4
:10231000F91E809180048823A9F080918803909110
:102320008903A0918A03B0918B03A7019601281B12
:10233000390B4A0B5B0BDA01C901181619061A068C
:102340001B068CF4C0928803D0928903E0928A0322
:10235000F0928B038091680490916904916090934E
:10236000690480936804FF90EF90DF90CF90089508
:102370001F93CF93DF936091660470916704162FCB
:102380001770CB0133E0969587953A95E1F7D82FF2
:10239000D370D13059F008F466C0D23009F465C06A
:1023A00066EC71E080E491E00E949210C0E8CB01FD
:1023B00025E0969587952A95E1F78370823009F498
:1023C00058C0833009F457C0813009F450C0C2604E
:1023D000672F77276115710521F0C16082E20E94A5
:1023E0003C0B6C2F8DE10E943C0B60917A04637072
:1023F00060598FEF810F8295807F680F809166040E
:1024000087FF64608EE10E943C0B8BEF810F82306E
:1024100010F4DD2391F1163011F4D13071F164E044
:1024200086E20E943C0BC0E063E0D23081F48091F0
:10243000840390918503A0918603B0918703CFE731
:1024400081349D4DAA44BF4108F0C4E662E086E3B2
:102450000E943C0BCC2399F06C2F8AE3DF91CF9143
:102460001F910C943C0BC0E7A2CFC0E9A0CFC46081
:10247000AFCFC660ADCFC860ABCF6CE0D1CFDF913E
:10248000CF911F910895CF92DF92EF92FF928091AA
:10249000900390919103A0919203B0919303892BA3
:1024A0008A2B8B2B09F054C08091680490916904A9
:1024B000109280048E7C977A9093690480936804CC
:1024C0001092BE05109285040E94EB070E94B51081
:1024D00063E00E945A2E90937F0480E180938204EF
:1024E00085E08093830481E00E94F4108091680469
:1024F0009091690493FF06C06AE870E08CE791E070
:102500000E9492100E94A7046B017C0188E00E9447
:102510004C11C60ED71EE81EF91EC0927803D09249
:102520007903E0927A03F0927B03809168049091A2
:1025300069048460909369048093680487E491E25D
:102540000E94200681E0FF90EF90DF90CF900895E9
:1025500080E0F9CFFF920F931F93CF93DF93CDB716
:10256000DEB72E970FB6F894DEBF0FBECDBF80E06A
:102570000E946E0C0E945F068EE0E1E3F3E0DE0154
:10258000119601900D928A95E1F701E313E083E93A
:1025900093E0F8019C01119221503040E1F78EE068
:1025A000FE013196D80101900D928A95E1F70E94C3
:1025B000B510F82E0E94B5109F2D90936B04809358
:1025C0006A0410926904109268041092840480E8EE
:1025D0008093B5050E94EB0781E08093B20580EA05
:1025E00097E2AEEBB3E3F80187AB90AFA1AFB2AF28
:1025F00083E082A78FEF83A72E960FB6F894DEBFF5
:102600000FBECDBFDF91CF911F910F91FF90089525
:10261000CF92DF92EF92FF92CF93DF93EC010E9473
:10262000A7046B017C014AE0F7FE0DC06DE288EC67
:1026300096E00E94DC0366277727CB016C197D09A1
:102640008E099F094AE00E940B098FEB91E00E94DE
:10265000F008FE013197E431F10508F087C0ED5C28
:10266000FC4E0C94BB2E47135113541357135A139B
:102670005D13B6136013631366139E13A113A413A3
:10268000A713AA13B613AD13B013CA13B31384EB75
:1026900091E0DF91CF91FF90EF90DF90CF900C947D
:1026A000FD0884EA91E0F5CF83E991E0F2CF81E87B
:1026B00091E0EFCF86E791E0ECCF8CE691E0E9CFB7
:1026C0008DE591E0E6CF8CE491E0E3CF8CE191E001
:1026D0000E94FD088091BF0587FF04C08FE091E054
:1026E0000E94FD088091C1058823A1F085E091E05A
:1026F0000E94FD086091C10570E090E080E04AE032
:102700000E940B0984E391E00E94F00883EF90E0BF
:102710000E94FD080E94A704AB01BC014059574C20
:10272000664C7F4F2CE633E282EF92E0DF91CF914F
:10273000FF90EF90DF90CF900C94780685EE90E0BC
:10274000A8CF8CED90E0A5CF8EEC90E0A2CF81ECED
:1027500090E09FCF83EB90E09CCF88EA90E099CF08
:102760008AE990E096CF88E790E093CF88E690E002
:102770000E942904BE0190E080E04AE00E940B091B
:1027800084E391E0DF91CF91FF90EF90DF90CF90C5
:102790000C94F008DF91CF91FF90EF90DF90CF90F5
:1027A0000895CF92DF92EF92FF92CF93DF93EC01E7
:1027B000C12CD12C7601C3940C2E04C0CC0CDD1C92
:1027C000EE1CFF1C0A94D2F7E3FC03C0CE010E946A
:1027D0000813D701C60188279472AA27BB27892B23
:1027E0008A2B8B2B01F1E0913503F0913603309762
:1027F000D1F02091C1054091C005211102C04423B0
:1028000091F08091BF0550E060E084FF04C0DA01E0
:10281000AF53BA4F6C9130E04E535A4F809137030B
:10282000909138030995CC2484E0D822E822FF2433
:10283000CD28CE28CF2819F1E0913903F0913A0341
:102840003097E9F010923A0310923903C231D10562
:1028500041F18091BF0583FD24C09091890461E01E
:10286000992339F0082E000C990B692F661F6627F3
:10287000661F70E080913B0390913C030995E091C5
:102880003103F0913203309771F0BE018091330330
:1028900090913403DF91CF91FF90EF90DF90CF9034
:1028A000099460E0E6CFDF91CF91FF90EF90DF9049
:1028B000CF9008957F928F929F92AF92BF92CF92C6
:1028C000DF92EF92FF920F931F93CF93DF93C82F66
:1028D0000E945C0C81E00E942A0B87FD06C06BE918
:1028E00073E080E491E00E94921081E00E946E0CFF
:1028F000C23009F0A1C06AE08DE10E943C0B60E7A4
:102900008EE10E943C0B63E28CE00E943C0B6FEF77
:1029100083E20E943C0B8091C206882309F491C097
:1029200083E30E942A0B682F6F7B83E30E943C0B9A
:102930008091660490916704E3E096958795EA9507
:10294000E1F7D82FD37081E30E942A0B8877682F94
:102950006360D23008F07BC081E30E943C0B60E4EE
:102960008FE20E943C0B60E480E30E943C0B60918C
:1029700079048FE10E943C0B64E389E30E943C0BE5
:102980006CE080E40E943C0B6FEF82E10E943C0B04
:10299000EC2FF0E0E458FD4F6491609581E10E94D6
:1029A0003C0B80E00E949D0560E08DE00E943C0BA6
:1029B00060E08FE00E943C0BC1114DC060917C0330
:1029C00070917D0380917E0390917F030E94530557
:1029D0006B017C0186E00E946E0CC701B6010E946B
:1029E000B6050091660410916704802F877056E049
:1029F000D52ED80E980163E0369527956A95E1F7B4
:102A00002370C80175E0969587957A95E1F78370F4
:102A1000D5E039F0D6E0813021F0D8E0823009F4F9
:102A2000D7E0222379F144EFC42EBB24B3942130A4
:102A300061F52AEFC22E28C00E94B8110E94E30B54
:102A400062CF83E30E942A0B682F60646ECF682FE9
:102A5000636881E38ACF85E00E946E0CC23009F082
:102A6000C0CF8CED91E0DF91CF911F910F91FF903E
:102A7000EF90DF90CF90BF90AF909F908F907F901E
:102A80000C940B313DE7C32EB12CA09084039090A1
:102A90008503809086037090870390EDE92E91E086
:102AA000F92EC11104C082ECE82E81E0F82E0E94BC
:102AB000A7041F921F931F92DF93BF92CF921F9282
:102AC000DF927F928F929F92AF92FF92EF929F93AD
:102AD0008F937F936F9388EE91E09F938F930E94E3
:102AE000F5308DB79EB744960FB6F8949EBF0FBED3
:102AF0008DBFDF91CF911F910F91FF90EF90DF90ED
:102B0000CF90BF90AF909F908F907F900895CF927D
:102B1000DF92EF92FF92CF93C82F81E00E942A0BA1
:102B2000877069E274E0C1F480916604877009F0EF
:102B300060C0C13041F41092C1058091450390916D
:102B400046030E9420060E944A0C81E00E942A0B44
:102B500087FF06C062E074E080E491E00E9492107A
:102B600081E00E946E0C0E94E30B63E28CE00E9405
:102B70003C0B6EE18DE00E943C0B6BE082E10E9419
:102B80003C0B62E183E10E943C0B6AEA8FE10E9408
:102B90003C0B6FEF81E20E943C0B81E00E944F0BE7
:102BA00068E380E40E943C0B80E00E949D05C11117
:102BB00018C060917C0370917D0380917E03909199
:102BC0007F030E9453056B017C0185E00E946E0C1F
:102BD000C701B601CF91FF90EF90DF90CF900C949A
:102BE000B60585E0CF91FF90EF90DF90CF900C94E9
:102BF0006E0C8C2FCF91FF90EF90DF90CF900C94C4
:102C00005A1483E190E00E94D11380E00C94871560
:102C100086E299E290934603809345030C94011653
:102C200088E19FE190934603809345030C9401163D
:102C300021E02093BF05E6E6F4E0208131812068A1
:102C4000318320831092C1059093460380934503FE
:102C50000C94011686E599E20C94181681E593E22E
:102C60000C94181682E08093BF05E091B805F0E05F
:102C7000ED58FD4FE491F0E0EF77E068F0936704E2
:102C8000E093660480919C0390919D03A0919E0324
:102C9000B0919F038093840390938503A093860350
:102CA000B09387031092C1050C9401168DE699E24A
:102CB00090934603809345030C94321684E693E286
:102CC00090934603809345030C943216AF92BF92C3
:102CD000CF92DF92EF920F931F93CF93DF93DC019C
:102CE0001A141B04A4F590E1ECEBF2E0EF01892F3C
:102CF00019928A95E9F7F1E0F093CB02F093BC02C8
:102D0000E092C1024093C2025093C3026093C40296
:102D10007093C5020093C6021093C7022093C802A5
:102D20003093C902FD01A1E1B3E001900D929A95A3
:102D3000E1F7A501B60184E0DF91CF911F910F91DA
:102D4000EF90DF90CF90BF90AF900C94640EDF9126
:102D5000CF911F910F91EF90DF90CF90BF90AF90E8
:102D600008952F923F924F925F926F927F928F922F
:102D70009F92AF92BF92CF92DF92EF92FF920F930A
:102D80001F93CF93DF93CDB7DEB764970FB6F89458
:102D9000DEBF0FBECDBF809176048111A3C781E055
:102DA0008093760422242394312C8091680490919E
:102DB00069049C01217C3327232B81F440919003EB
:102DC000509191036091920370919303452B462B90
:102DD000472B21F582FD2EC00E944312809176047C
:102DE0008150809376048111E0CF64960FB6F894F9
:102DF000DEBF0FBECDBFDF91CF911F910F91FF902E
:102E0000EF90DF90CF90BF90AF909F908F907F908A
:102E10006F905F904F903F902F90089596FF0AC05B
:102E20009F7B90936904809368048EEF9EE10E94DB
:102E30002006D4CF0E94A70469837A838B839C8366
:102E400040906804509069045C8A4B8AC201827089
:102E50009927812C912C540141FE22C08090A0031F
:102E60009090A103A090A203B090A30301E7801A61
:102E700002E0900AA108B10849815A816B817C81E6
:102E8000481959096A097B0977FF0AC092012D7D0B
:102E9000397F30936904209368048BE090E07BC411
:102EA0002B893C892C733327232B09F4C3C64B8908
:102EB0005C89447255275A8749878B899C8993FF7F
:102EC00000C1A0916404B0916504BC87AB87809178
:102ED00083048F70F10102C0EE0FFF1F8A95E2F7A5
:102EE000FE87ED87FFE0FD8309811A812B813C81FC
:102EF0001E52264B34490F87188B298B3A8BCF846F
:102F0000D888E988FA8841E353E030E020E010E017
:102F10008D81682F70E0DB01022E02C0B595A79568
:102F20000A94E2F7A0FF15C0DA01A958BF4F4D90EF
:102F30005D906D907C90D701C60184199509A60912
:102F4000B709181619061A061B061CF4122F73016E
:102F500062012F5F3F4F485F5F4F24303105D9F644
:102F6000412F50E0DA0103E0AA0FBB1F0A95E1F7F9
:102F70009D0129553C4FF901808190E1412E512C52
:102F8000712C612C21E0280F8F50203108F4822F02
:102F9000282F30E0B101082E02C0660F771F0A9477
:102FA000E2F70B851C8560237123672B09F47AC037
:102FB000F901EE0FFF1FEC5BFB4F60817181ED8526
:102FC000FE856E237F23672B09F46CC0220F331F0D
:102FD000220F331FF901EC53FC4F00811181228134
:102FE00033810370112722273327401651066206CA
:102FF000730609F057C0A955BC4F8C9380937F048A
:10300000C0927803D0927903E0927A03F0927B0326
:103010000B891C89177F10936904009368048091C1
:1030200068049091690420918004211102C090FFEE
:1030300012C0409188035091890360918A03709176
:103040008B0397018601041B150B260B370B37FFEB
:1030500002C06A017B019C012270332781FF3FC0BF
:1030600049855A85452BB1F144E455E968E070E0A3
:103070004C0D5D1D6E1D7F1D481959096A097B099C
:10308000141615061606170654F540E1C501B401DD
:103090006C567A4F8D4F9F4F0E947A11C12CD12CC4
:1030A000760156C5915009F06DCF910101C0220FF4
:1030B0004A95EAF72095FD81F223FD83F1111FCF98
:1030C0009FCFC0907803D0907903E0907A03F0907E
:1030D0007B03A5CF48ED58EB65E070E0C9CF49818F
:1030E0005A816B817C814F585D4F6F4F7F4F260116
:1030F0003701441A550A660A770AB301A20177FF1D
:103100001EC59090830469847A84672809F44EC1AF
:1031100085FF09C0709085047D820D8101500D836B
:103120000F3F09F03EC11092C20590916A04809150
:103130006B049093D3058093D40543E150E062EC97
:1031400075E08AE00E94640E6093D8057093D705FD
:103150008093D6059093D50587E18093C105809132
:103160006A0490916B04019690936B0480936A04B7
:103170008FE790E19093460380934503E92DF0E0BB
:10318000ED58FD4F8491E091840400E2E09FF0014E
:1031900011248F79E82BF0936704E09366049092F2
:1031A0007B0480916804909169048F76967F806893
:1031B00098609093690480936804A0917F0414E060
:1031C000A19FD0011124AC53BC4FCD90DD90ED9068
:1031D000FC90A091C1054E2F4770B0E009F0DEC20F
:1031E0001B9643E0AA0FBB1F4A95E1F724E234EF98
:1031F0000E94C82E20E533EC40E050E00E949C2E57
:1032000049015A01D701C60183709927AA27BB2714
:103210000CEFC022C0928403D0928503E092860313
:10322000F0928703E3E0880F991FEA95E1F78F5C3E
:103230009C4FFC01EB58FF4F108110937C047C01E4
:1032400027E7E20EF11C8D589F4FFC01A081B18150
:1032500094010E94092E49805A806B807C80640D05
:10326000751D861D971DD7016D937D938D939C933E
:10327000139780918004882399F004C0880C991CCE
:10328000AA1CBB1C8A95D2F7840C951CA61CB71CE3
:103290008092880390928903A0928A03B0928B0354
:1032A0008091820418170CF4812F80937D0481E1B2
:1032B00090E00E94D113109278031092790310923B
:1032C0007A0310927B0381E00E942A0B877059F0E9
:1032D00080E00E946E0C0E94A704625C7F4F8F4FBB
:1032E0009F4F0E945305C0908003D0908103E090CF
:1032F0008203F09083031C141D041E041F040CF0B1
:10330000D4C281E00E945A14809184039091850375
:10331000A0918603B091870303E61FEF81349D4D92
:10332000AA44BF4110F40CE51FEFE0910603F091B1
:1033300007038781080F111D87FD1A950E94A704B6
:10334000615E7F4F8F4F9F4F0E9453050E94A704DD
:103350001982C60ED71EE81EF91E8BE10E942A0BA9
:103360004980481608F489830E94A7046C197D09D6
:103370008E099F0997FDF1CF80E00E946E0C80912D
:103380007E04082E000C990B6980600E712E711C52
:10339000681679060CF489C2809145039091460322
:1033A00046CD892D0E94780C982EB7CE409194037B
:1033B00050919503609196037091970340385F4F49
:1033C0006F4F7F4F18F084EF9EE131CD2091BE0505
:1033D00021110DC0409198035091990360919A0377
:1033E00070919B034F3F5F4F6F4F7F4F61F37C01A5
:1033F00038E1E322FF2440E1E416F10409F45FC15F
:10340000A0908A0480918804882309F45AC180918D
:103410007F05882309F455C1C0907E05CC2009F4AE
:1034200050C10C2D10E0A80160E875E08AEC95E031
:103430000E94EC30085F1F4F10927E0510927F05AE
:103440002091B905222331F026FF3EC180E42827D0
:103450002093B9052091BA05222331F026FF44C1FB
:1034600080E428272093BA058091BB05823009F0BB
:103470004BC181E08093BB05093111050CF06DC192
:103480008091B105882361F080916C0490916D0466
:1034900097FF04C090E080E00E94AA071092B10557
:1034A000F0E1EF16F10409F43AC14A2C512C9201D3
:1034B0002B5F3F4F3E832D838D819E81800F911F17
:1034C0009E838D838F3F910511F00CF02DC181E01B
:1034D00090E1E916F10409F480E0E0918304E8301A
:1034E00008F027C1F0E0E65EFD4FE4914D805E807C
:1034F000E415150408F431C190E49093C20590914D
:10350000AF054091B505492B20916C0430916D04B5
:1035100037FD11C121523109203B324008F40BC163
:1035200020E498EF900F942B922B9093C705409135
:1035300090033091910320919203909193034093D3
:10354000C3053093C4052093C5059093C60590919B
:10355000BE05911118C020918604211114C040911C
:1035600098035091990360919A0370919B034F5F68
:103570005F4F6F4F7F4F4093980350939903609331
:103580009A0370939B0320919803309199032150E3
:1035900031092093C8053093C9051092AF058823DF
:1035A000D9F180918904882309F4C7C080E8809309
:1035B000C205911103C081E08093BE05F801EE536E
:1035C000FA4F809188048083C8018D539A4F6C0113
:1035D000B12CA5016BE874E00E94EC3000919803D7
:1035E0001091990320919A0330919B030150110986
:1035F0002109310940919003509191036091920308
:1036000070919303809188048111A4C08FE895E0A4
:10361000F12CE12C0E9466160D811E8104501109C7
:103620008091980390919903A0919A03B0919B0384
:103630000197A109B10960919003509191034091C4
:1036400092033091930320E17CEBE72E72E0F72E9A
:10365000F701422E11924A94E9F779E47093BC0283
:103660001092C1020093CB026093C2025093C30236
:103670004093C4023093C5028093C6029093C70260
:10368000A093C802B093C902EFE8F5E0A1E1B3E06E
:1036900001900D922A95E1F7A80162EC75E082E0B5
:1036A0000E94640EF801EE53FA4F638372838183A4
:1036B00090835D805092C10587E890E15BCDA12C9D
:1036C000A6CE08E010E0B8CEC8018F5C9C4FFC018C
:1036D000EF56FD4F35E030838E569D4F2770DC014D
:1036E0002C930E5F1F4FB6CEC8018F5C9C4FFC0120
:1036F000EF56FD4F3AE030838E569D4F2370FC010C
:1037000020830E5F1F4FB0CE882309F4B5CEF80199
:10371000EE53FA4F88E080830F5F1F4FADCE44E039
:1037200050E05E834D83C8CED8011496BE83AD832E
:10373000D3CEE0E0DBCE20E0F4CE8091810488237C
:1037400009F43CCF80918604811138CF81E08093C9
:10375000860434CF8FE995E05BCF88E08093BF0586
:1037600080918904811104C08091BE05882319F0DD
:1037700088E48093BF0580916804909169048776FE
:103780009E7F90936904809368041092C105109203
:10379000C0058AE090E00E94D11320CB66E0640F60
:1037A000660F660F58E0453008F450E0CD0133E075
:1037B000880F991F3A95E1F7861B91094C9620E1F5
:1037C00030E0E7FF02C030E020E0820F931F2F2F90
:1037D0003327232B09F466C024E130E0821B930BCE
:1037E00028E030E018161906CCF4651B70E0860F4F
:1037F000971F01970E94662ECF0105E09695879549
:103800000A95E1F7837090E00596869F9001879F67
:10381000300D969F300D1124285F3F4F220F331F2C
:10382000220F331F2F5C3F4F4F5F13E0F695E79554
:103830001A95E1F7E370842F8E1BE9E0FDE38530F4
:1038400050F08450990BE9E0FDE302C0F595E7954F
:103850008A95E2F784E0032E000C440B550B04C05C
:10386000220F331F441F551F8A95D2F7A4E2B4EFED
:103870000E94092EAB01BC01CF01F7FD0196959581
:103880008795092E000CAA0BBB0B2A013B01480EA1
:10389000591E6A1E7B1EC301B2019F01FF0F440B1C
:1038A000550BACCC30E020E099CF80916604877056
:1038B00009F06AC00E944A0C81E00E946E0C80E010
:1038C0000E944F0B60E085E20E943C0B65E086E2BF
:1038D0000E943C0B0E94E30B0E947C0B69E28AE091
:1038E0000E943C0B64E380E40E943C0B6091C105A4
:1038F0006F5F82E30E943C0B6091C10580E00E94F3
:103900003C0B4091C10550E020E062EC75E080E89E
:103910000E94C10A81E00E949D0560917803709128
:10392000790380917A0390917B036115710581057C
:10393000910531F10E9453056115710581059105CD
:10394000F9F0009172031091730320917403309188
:103950007503DC01CB01800F911FA21FB31F809361
:10396000720390937303A0937403B09375038091D3
:103970007603909177030196909377038093760373
:1039800083E00E946E0C2ACA0E945C0C81E00E94B7
:103990002A0B87FD06C061E273E080E491E00E949B
:1039A000921081E00E946E0C0E94B8110E94E30BFD
:1039B00068E08AE00E943C0B0E947C0B64E389E390
:1039C0000E943C0B6CE780E40E943C0B6FEF82E1AD
:1039D0000E943C0B67EF81E10E943C0B60E08EE0AF
:1039E0000E943C0B60E08DE00E943C0B6091C105A1
:1039F00082E20E943C0B4091C10550E020E062EC65
:103A000075E080E80E94C10A81E00E949D056091F6
:103A100078037091790380917A0390917B0361150B
:103A200071058105910531F10E94530561157105FC
:103A300081059105F9F000917203109173032091B3
:103A4000740330917503DC01CB01800F911FA21F1D
:103A5000B31F8093720390937303A0937403B09386
:103A60007503809176039091770301969093770385
:103A70008093760383E00E946E0C0091660410919F
:103A80006704202F27702A5F2D83980163E0369505
:103A900027956A95E1F72370C80175E0969587959B
:103AA0007A95E1F7837089F0813091F0823099F452
:103AB00037E03983222391F05AEFF52E213081F03F
:103AC00034EFF32EEE24E3940CC045E04983F2CFAB
:103AD00056E05983EFCF78E07983ECCF4DE7F42EB1
:103AE000E12CA090C10500918403D0908503C09083
:103AF0008603B09087030E94A7041F921F931F9212
:103B000049804F92EF92FF921F925D805F921F92C9
:103B1000AF92BF92CF92DF920F939F938F937F9339
:103B20006F9329E1622E22E0722E7F926F920E94A3
:103B3000F5300FB6F894DEBF0FBECDBF4FC9232BB3
:103B400009F4C7C0C114D104E104F10409F476C03A
:103B5000809168049091690491FF7CC089819A8169
:103B6000AB81BC818F589D4FAF4FBF4F8D839E83DC
:103B7000AF83B887409164035091650360916603F9
:103B800070916703DB01CA014D805E806F8078848D
:103B900084199509A609B709B7FFA8C0E0915D038C
:103BA000E7FD58C080915C03310102C0660C771CB0
:103BB0008A95E2F77A866986E60DE0935D03E7FD74
:103BC00049C0AE2FB0E020E030E345E750E00E946E
:103BD000092E2B013C0187E0759467945794479414
:103BE0008A95D1F78091600390916103A09162035F
:103BF000B0916303480E591E6A1E7B1E89858E5F35
:103C000060915B038E0F0E94DD0D461A570A680A09
:103C1000790A409264035092650360926603709241
:103C200067038091790490917A0490935F03809365
:103C30005E03A0CF892B09F031CAD0C8C12CD12C8A
:103C40007601C39485CF28E036E18FE393E00E94AC
:103C50007806C4C8C114D104E104F10441F0D701CD
:103C6000C60188199909AA09BB09B7FD32C00E948B
:103C7000810C809174049091750490937A048093E0
:103C800079048091A0039091A103A091A203B09127
:103C9000A30380937C0390937D03A0937E03B09352
:103CA0007F0389819A81AB81BC8188199909AA090E
:103CB000BB09B7FD09C008E11FE11093460300935B
:103CC00045030E9401168AC820E136E1B501A4012E
:103CD000BCCFB701A601415752406109710922E1E9
:103CE0003FE1B3CF82E0809376047FC8C114D10452
:103CF000E104F10441F0D701C601841B950BA60B2A
:103D0000B70BB7FDE6CF80915E0390915F03909370
:103D10007A048093790440937C0350937D036093ED
:103D20007E0370937F038091680390916903A09153
:103D30006A03B0916B038093840390938503A093EF
:103D40008603B0938703E0915B03F0E0ED58FD4FED
:103D5000E491F0E0EF77E068F0936704E0936604A5
:103D60001092C105415752406109710989819A81B8
:103D7000AB81BC81841B950BA60BB70B18161906DB
:103D80001A061B060CF05FCF8091680490916904BD
:103D90008D7D997F90936904809368047EC880919B
:103DA00068049091690483FF1EC010928A0482FF08
:103DB00018C0877E909369048093680482E190E044
:103DC0000E94D113809168049091690485709927AD
:103DD000892B49F40E945F0680E00E946E0C0C94CF
:103DE000B1168776E7CF08950E94CF1E0E94AA12CF
:103DF0008CE090E00E94D1130C944312E8E6F4E0CA
:103E0000808191818E7D9F7B91838083109290032E
:103E10001092910310929203109293030E94CF1E6E
:103E20000C9443120C94B1160E94D1130C94B11649
:103E3000CF92DF92EF92FF92CF93DF938091C105F3
:103E4000882309F48FC0C0904703D0904803E090C6
:103E50004903F0904A03C09159030E945A0887FF12
:103E600081C0C37071F480E00E94440DC4E0D0E0D2
:103E7000809168049091690491FD0E94550FCE01D4
:103E8000D0C02EEED21A8091470390914803C81AF1
:103E9000D90A6091BC05662379F020916E043091B7
:103EA0006F04C601821B930B70E06F5F7F4F0E940F
:103EB000662E6901C60ED71E2091590322FD1DC032
:103EC00080916E0490916F048C199D0997FF03C037
:103ED000919581959109909371048093700440911C
:103EE0007204509173044817590724F49093730493
:103EF00080937204277F20935903D0926F04C0925D
:103F00006E04109285041092BC05809159038B7F3A
:103F100080935903C4E0D0E0C0904703D090480399
:103F2000E0904903F0904A0382E1D80E8AE7E81E48
:103F3000F11C63E080E00E94DD0DC61AD70AE80A92
:103F4000F90AC092A003D092A103E092A203F092DA
:103F5000A3038091790490917A04909375048093DF
:103F6000740486CFC0906E04D0906F040D2C000CAA
:103F7000EE08FF0860E072E18AE790E06C197D09C5
:103F80008E099F09C0904703D0904803E0904903F1
:103F9000F0904A036C0D7D1D8E1D9F1D609347039D
:103FA000709348038093490390934A03C0904B0356
:103FB000D0904C03E0904D03F0904E0320E8C20EE9
:103FC000D11CE11CF11CC0924B03D0924C03E09237
:103FD0004D03F0924E032091BC052F5F2093BC054A
:103FE0006C567A4F8D4F9F4F44E00E947A1180911A
:103FF000BC058A3350F48091740490917504C3E039
:10400000D0E08F35914008F487CF8091680490917B
:1040100069048D7D997F90936904809368048BE097
:1040200090E0DF91CF91FF90EF90DF90CF900C94D4
:10403000141FCF93809168049091690487779093BF
:10404000690480936804109286041092BE05209142
:104050007E05222351F030917F05332309F471C08E
:10406000806190936904809368040E94A7046E5E47
:1040700075488F4F9F4F40E00E947A118091BF0595
:10408000877079F0809168049091690494FF09C069
:104090009F7E90936904809368048FE090E00E9473
:1040A000D1138AE090E00E94141F80916C049091DB
:1040B0006D0481979CF1809183040E94780CC82F35
:1040C0000E94D00690918304811101C0C92F9C13D6
:1040D00042C080916C0490916D04813F92404CF0FD
:1040E000809168049091690490649093690480932E
:1040F000680460E18C2F0E94FD0680916804909115
:1041000069049C0130613093690420936804281786
:10411000390721F08EE090E00E94D1132091BD0577
:10412000222361F0809168049091690481FF1AC094
:1041300082E090E00E94D1131092BD0581E0CF9102
:104140000895109289041092880420938A04109292
:104150007E05886086CFC73061F290E080E00E94E3
:10416000AA07C7CF21502093BD052111E7CF409169
:104170009003509191036091920370919303452BAA
:10418000462B472BD9F29C0124743327232BB1F6FD
:10419000109259031092AF051092BE058E77816080
:1041A00090936904809368040E94810C0E94A70484
:1041B000AB01BC014C5D594F64487F4F40934703AE
:1041C000509348036093490370934A0340937C03E0
:1041D00050937D0360937E0370937F0322E531E269
:1041E0008FE393E00E94780681E00E948715A6CFB6
:1041F0008091BE058823B1F1883020F58F5F8093D0
:10420000BE0580FF07C0809183040E94780C60E89F
:104210000E94FD0660917C0370917D0380917E0376
:1042200090917F0343E00E947A11809168049091FD
:1042300069048F7790936904809368040E94B11693
:1042400081E0089580E68093BF0580916C04909191
:104250006D0401960E94AA071092C1051092C00534
:104260000C94192080918604882379F09091810420
:10427000891758F48F5F809386040E94A7046E5EAE
:1042800075488F4F9F4F40E0CECF80E2DCCF8091CA
:104290008704811103C081E08093870485E090E06A
:1042A0000C94141F80E00E946E0C0E945F068091A7
:1042B000C10581110DC080916804909169048C7FC3
:1042C000909369048093680481E090E00C94141F3B
:1042D0000E945A0887FD13C01092C10581E00E9418
:1042E00087154091470350914803609149037091AD
:1042F0004A0322E531E28FE393E00C94780681E0F3
:104300000E94440D80916804909169048E7F8260C0
:10431000909369048093680482E090E0D7CFCF92B5
:10432000DF92EF92FF92CF93DF9380916804909198
:10433000690482FD20C085FD0DC08F7790936904CC
:104340008093680481E0DF91CF91FF90EF90DF9040
:10435000CF9008958F75909369048093680480913D
:1043600085048A3018F48F5F8093850489E090E09B
:104370000E94141FE7CF8F7790936904809368049D
:1043800084E190E00E94D11380917F048F5F83309D
:1043900009F466C080937F048091BE058F5F80938F
:1043A000BE0563E00E945A2E911109C080918304DA
:1043B000C1E0873029F00E94780C80938304C0E02C
:1043C0008091680490916904977F90936904809329
:1043D00068040E94A7046B017C018091A80390915E
:1043E000A903A091AA03B091AB03B701A601481B92
:1043F000590B6A0B7B0B77FF02C06C017D0120918A
:1044000083048FEF90E002C0959587952A95E2F797
:104410000E944C11645973428D4F9F4FC60ED71E98
:10442000E81EF91EC0927803D0927903E0927A03D5
:10443000F0927B03CC2ED12CF12CE12CCC2399F0E3
:10444000CDE3D2E20E94A704AB01BC014C0D5D1D7F
:104450006E1D7F1D9E018FE393E00E94780672CF50
:1044600010927F0499CFC2E1DFE1ECCF8091BF05CC
:1044700080FF0C948F2180E0089588E090E00C94F8
:10448000141FCF92DF92EF92FF920F931F93CF935F
:10449000DF938091BF0580FF05C08091C10588230F
:1044A00009F4F5C0809168049091690487FFE8C021
:1044B00084729927892B51F4DF91CF911F910F912D
:1044C000FF90EF90DF90CF900C9436221091C105B1
:1044D00011110AC0DF91CF911F910F91FF90EF90C2
:1044E000DF90CF900C948F21113111F0113221F710
:1044F0008091C205837E8032F9F6C12FD0E0AE01F3
:104500004150510963EC75E080E00E94640E2497ED
:10451000AE0162EC75E08AE00E94640E6B017C01E2
:10452000CE53DA4F688179818A819B810E94C12EA6
:10453000C616D706E806F90609F0BECF89EC95E065
:104540000E943608609390037093910380939203C6
:104550009093930386EC95E00E9436089927609328
:104560008C0370938D0380938E0390938F0380E070
:104570000E94F4101231D8F08FECE82E85E0F82E6E
:10458000C3E0C7010E943C08AB01BC0141155105C5
:104590006105710531F00FEF30E020E08C2F0E94B3
:1045A0009F0CCF5F83E0E80EF11CC83051F780917B
:1045B0006A0490916B040197E7E9F5E028E0DF01D8
:1045C0001D922A95E9F721E020938F0526E0E3EC80
:1045D000F5E0A0E9B5E001900D922A95E1F780930E
:1045E00096059093970580E1EFE8F5E0AFE9B5E037
:1045F00001900D928A95E1F782E080939F0540E15A
:1046000050E06FE875E080E00E94640E40E150E009
:104610006FE975E080E00E94640E8091680485FF78
:1046200008C0C091850480918304C15058F58093DF
:104630008304809168049091690489759D7F9860D6
:1046400090936904809368041092BE050E94FC0751
:1046500080EC9FEF0E94AA078091CD05982F9F7054
:104660009093B805829587708093B7058091CE05A9
:10467000882359F08093B20586E090E00E94141FD1
:1046800081E006C00E94780CD0CF81E0F3CF80E0BB
:10469000DF91CF911F910F91FF90EF90DF90CF901E
:1046A00008958091C10581110AC02091B8054EE599
:1046B00056E168ED78EB85E090E00C94980D0E944F
:1046C0004122882391F308958091C105811102C090
:1046D0001092BF050C944122CF92DF92EF92FF928D
:1046E0000F931F93CF93DF938091680487FF0CC0D3
:1046F00084EC91E0DF91CF911F910F91FF90EF90AB
:10470000DF90CF900C94FD0810926A0780916907A2
:10471000843008F05BC081E080936B0710916A07DA
:10472000E0906707F09068078091680490916904B1
:104730008C709927892B01F5143FF0F4D0908304F5
:104740008DE0C82EC10ECD2DD0E08C2F0E94D0065A
:10475000882391F0C83080F4FE01E65EFD4FE491BD
:10476000EE2351F0EC1508F063C0FE01EC58FD4F4C
:10477000E4912196EF3F49F7C0916804D091690414
:10478000C3FD21C0143FF8F4E114F10439F0412FC6
:1047900050E0B7018BE894E00E94EC30109289045D
:1047A00081E08093880410938A04CE0188609093FE
:1047B000690480936804C2FD04C01092BE05109283
:1047C00086040E94B1168DED91E094CFE0916707C9
:1047D000F091680781E080936A0780838091670782
:1047E00090916807E0916A0721E02E0F20936A07F5
:1047F000E80FF92FF11D87E68083E0916A07809129
:10480000670790916807E80FF92FF11D86EF818304
:10481000E0916A078091670790916807E80FF92F88
:10482000F11D108280916A078E5F80936A0776CFB0
:10483000DC1609F4A1CF60E88C2F0E94FD069CCF06
:104840002F923F924F925F926F927F928F929F92A0
:10485000AF92BF92CF92DF92EF92FF920F931F938E
:10486000CF93DF93CDB7DEB7C754D1090FB6F89415
:10487000DEBF0FBECDBF2C013B0110927E05452B44
:1048800011F510927F05F12CE12CE614F704FCF0F1
:10489000C701C95BDF4F0FB6F894DEBF0FBECDBFB7
:1048A000DF91CF911F910F91FF90EF90DF90CF900C
:1048B000BF90AF909F908F907F906F905F904F9040
:1048C0003F902F90089581E080937F05DCCF6201B7
:1048D000CE0CDF1CF6018081823008F434C0282F12
:1048E0002250330BF9012231310508F02CC0E5517B
:1048F000FE4FE4912E2F30E028963FAF2EAF289741
:104900002115310529F25301AE18BF08A216B306CE
:104910000CF4BECF82508031C0F4E82FF0E0ED56A9
:10492000FB4D0C94BB2EA624B0245F260926DF2560
:1049300070265026A524C026A524A524A524A52498
:10494000A524A524FF26E0E0D5CF37012896EEADBB
:10495000FFAD2897EE0DFF1D730137017F0195CF45
:10496000460107E025961FAE1EAE2597C501259688
:10497000EEADFFAD25978E1B9F0B05970CF49CC0E9
:10498000F4011181312E3294AFE03A229481907774
:1049900049F0903661F10E7F2AC025963FAF2EAFC9
:1049A0002597E4CF6281738141E353E030E020E05A
:1049B000E1E0F0E0022E02C0EE0FFF1F0A94E2F7E2
:1049C000E623F723EF2B61F0FA01ED56FF4F8081CC
:1049D0009181A281B3818C7F892B8A2B8B2BD9F279
:1049E0002F5F3F4F4C5F5F4F2031310509F7832D1B
:1049F0000E945A0E811101C00D7F1F70183038F4CB
:104A0000E12FF0E0EE5EFD4FE491E03809F40B7F1A
:104A100025962EAD3FAD25972B5F3F4FF5E08F0ECE
:104A2000911CF4018081833009F4B7CF25968EACB8
:104A30009FAC2597F5E08F0E911C80E4E4ECF3E049
:104A4000DE01119601900D928A95E1F7A090640421
:104A5000B0906504073009F0ADC01401F60141E0E3
:104A600026961FAE269710E025E0221631040CF49E
:104A70004EC01181348126963FAF2697832F8077D1
:104A8000E9F0803611F1809164049091650425E08D
:104A9000221A3108359641E0009709F440E09F0161
:104AA0002C193D0928153905FCF2892B91F1312E7D
:104AB00032948FE0382234C000E0B8CF82819381F5
:104AC0009093650480936404DECFA4ECB3E090E09F
:104AD00080E030E020E04D915D916D917D914C7FC3
:104AE000452B462B472B51F041E050E0082E02C0E9
:104AF000440F551F0A94E2F7242B352B0196803181
:104B0000910549F73093650420936404BCCF4111AB
:104B100001C006E0312E3294EFE03E22073039F436
:104B2000832D0E94D00607E081110EC005E080E4CD
:104B3000FE013196A4ECB3E001900D928A95E1F765
:104B4000B0926504A0926404AA24A394D12CC12C31
:104B5000C4018C199D0905976CF0602F83E00E94B9
:104B6000D507A82E35E0C30ED11CC814D90414F4FF
:104B70008111EECF0730A9F426968FAD26978F705E
:104B8000909181048913809381041F7060E818302C
:104B900028F4E12FF0E0EE5EFD4F6491832D0E943A
:104BA000FD0625968EAD9FAD2597E80EF91EAA202D
:104BB00019F1CCCE26961FAE269710E0ABCF2091F0
:104BC0007804022E000C330BC901029697FD039660
:104BD0009595879595958795182F1F734F970CF08E
:104BE0001FE11093B40500917E0586E00E94B60790
:104BF000811104C000937E05F701AFCE8FEF0E94B4
:104C0000B6078823B9F3812F0E94B607882391F352
:104C10009DCEF6018181082F0F7090E064E095959C
:104C200087956A95E1F7182F1770C7010296840DD2
:104C3000951D0E943C084B015C0180EC8093B905F6
:104C4000802F0E945A0E882329F08091B905826036
:104C50008093B90581149104A104B10429F08091D5
:104C6000B90581608093B905143028F48091B905A5
:104C700084608093B9056091B905673C61F4009345
:104C8000B80580929C0390929D03A0929E03B092DF
:104C90009F031093B705677085E00E94D5070DC08C
:104CA000F60181818F7009F481E08093B205F2E012
:104CB000F093BB0588E00E94B607A82E78CFF601D6
:104CC00081818F70809380040E94A7046093880381
:104CD0007093890380938A0390938B0384E0EBCFD6
:104CE000C7010296840D951DFC011081F6012380F9
:104CF00034800E943C084B015C01F601058181145F
:104D00009104A104B10421F41229312A12E009F41A
:104D100013E0302E32945FE035220F70301620F40D
:104D20001D7F612F87E0B9CFF601D180832D0E94CE
:104D30005A0E8823A9F3802F0E945A0E882381F3EC
:104D40001330E1F48FE090E0831991092FEF3FEFEA
:104D500002C0369527958A95E2F78FEF9FEF02C044
:104D6000880F991F0A95E2F7282339230FEFB50121
:104D7000A4018D2D0E949F0C8111D3CF12E0D1CFC1
:104D8000F6010181C7010296840D951D0E943C0821
:104D900013E0611571058105910509F412E00131F7
:104DA00050F5E02FF0E041E050E002C0440F551F05
:104DB0000A95E2F720916404309165042423352399
:104DC000232B51F41D7F612F8AE00E94D507A82E66
:104DD000106C1093BA05EBCE133079F49F01220FBB
:104DE000331F220F331FF901EC5FFB4F6083718388
:104DF00082839383E8CF10E0E6CF12E0E4CFC701CF
:104E00000196840D951DF6011281FC012081122B63
:104E1000F6012381122B0E943C084B015C01F60134
:104E200004810F70112341F013E081149104A10457
:104E3000B10459F412E009C013E090EA892E97E218
:104E4000992E9EEBA92E93E3B92E802F0E945A0E25
:104E5000811104C01D7F612F81E11FCF133059F4F0
:104E60008092680390926903A0926A03B0926B03E8
:104E700000935B03F0CF12E0EECF2F923F924F9260
:104E80005F926F927F928F929F92AF92BF92CF92DA
:104E9000DF92EF92FF920F931F93CF93DF93CDB7E3
:104EA000DEB729970FB6F894DEBF0FBECDBFE090F6
:104EB000C1052E2D30E0398728872C303105E4F4E8
:104EC0001092C10580E029960FB6F894DEBF0FBEA0
:104ED000CDBFDF91CF911F910F91FF90EF90DF90A9
:104EE000CF90BF90AF909F908F907F906F905F908A
:104EF0004F903F902F9008958091C205982F937006
:104F0000F9F6807E8D83803611F0803AC9F683EC05
:104F100095E00E94360820919003309191034091D2
:104F200092035091930329833A834B835C83261722
:104F300037074807590721F63091C7053E833F7070
:104F4000F32EC32ED12C160148E0240E311C888587
:104F50009985049799878887821593050CF4B0CFBB
:104F600088248A94982C281639064CF4F101EE53C3
:104F7000FA4F2081822E912CD60119961D01409066
:104F8000940350909503609096037090970300915E
:104F9000C8051091C905041915090F3F100709F03C
:104FA0007CC021E0421A51086108710820E1ECEB55
:104FB000F2E0DF01322F1D923A95E9F739E43093A0
:104FC000BC0231E03093C1024CEF4E0D4F83409351
:104FD000CB0259815093C2028A818093C3029B8184
:104FE0009093C402AC81A093C5024092C602509235
:104FF000C7026092C8027092C902EFE8F5E0A1E131
:10500000B3E001900D922A95E1F74885598562EC4D
:1050100075E082E00E94640E9B01AC01E885F98591
:10502000EE53FA4F60817181828193810E94C12E7B
:10503000261737074807590709F042CF8091940394
:1050400090919503A0919603B09197034816590645
:105050006A067B0638F584159505A605B7050CF498
:105060002FCF0197A109B10984159505A605B705AC
:1050700009F026CF8091B005882309F421CFBD81A6
:10508000B03A09F01DCF80E28093AF0581149104FE
:1050900009F4D6C001E010E033C0400E511E611C7F
:1050A000711C84CF0130104408F00ACFD301C20133
:1050B0000196A11DB11D8093940390939503A09335
:1050C0009603B09397033D8180E2303A09F080E087
:1050D0008093B0058093AF0510E000E08114910447
:1050E00041F4FF2031F048855985241635060CF42B
:1050F000E7CE8091AF05811103C05E8154FF09C0E6
:105100008091680490916904806190936904809310
:105110006804109285041092B10580EC9FEF0E9404
:10512000AA071092B9051092BB051092BA05E0913A
:105130006604F09167048E2F877033E0F695E7954B
:105140003A95E1F7E370F0E093E0899FE00DF11DFF
:105150001124E350FE4FE49180917704082E000C57
:10516000990B80549109ED58FF0B8E1B9F0B97FDF7
:1051700080E08093B305A401B6018AEC95E00E941B
:105180002024012B09F09CCEAFEF8A169A0699F1E4
:10519000288539852219330939872887121613067D
:1051A00054F5A1014E535A4F5A83498340919003BD
:1051B0005091910360919203709193038FE895E071
:1051C0008114910411F08FE995E0A884B984C98015
:1051D000DA80EE24E394F12C930182010E9466169A
:1051E0008114910441F450E040E06885798589811B
:1051F0009A810E9420248091BE05882349F05E8117
:1052000090E855FF90E48091BF05892B8093BF05FE
:105210008091BF05181419044CF080628093BF057B
:105220002092C0051092C10581E04DCE806180932F
:10523000BF052092C005EF80E218E092C105F4CFCF
:10524000FF2009F427CF01E010E04DCF8091C10588
:10525000882359F084E08093BF050E943D2788236E
:1052600021F08DE090E00E94D1130C94B116809152
:10527000680487FF19C08091C105811102C00C9498
:10528000F8200E943D27811105C09091BF0590FF35
:10529000F6CF08958091BE05882321F08091BF0547
:1052A00086FDEDCF0C94192081E0F3CF8091C105EC
:1052B00081110EC0A091B205B0E0119624E234EF46
:1052C0000E94C82E2091B80546E556E10C94980D31
:1052D0000E943729882371F308958091C1058111B7
:1052E0000BC01092BF050E94A704645973428D4FF2
:1052F0009F4F42E00E947A110C9437291F920F921F
:105300000FB60F9211242F933F938F939F93AF93D8
:10531000BF938091090390910A03A0910B03B09170
:105320000C033091080323E0230F2D3758F5019625
:10533000A11DB11D209308038093090390930A03D4
:10534000A0930B03B0930C0380910D0390910E0377
:10535000A0910F03B09110030196A11DB11D809380
:105360000D0390930E03A0930F03B0931003BF910E
:10537000AF919F918F913F912F910F900FBE0F9002
:105380001F90189526E8230F0296A11DB11DD2CFBC
:105390001F920F920FB60F9211242F933F934F93AA
:1053A0005F936F937F938F939F93AF93BF93EF938D
:1053B000FF9388EC96E00E94BA03FF91EF91BF91B2
:1053C000AF919F918F917F916F915F914F913F919D
:1053D0002F910F900FBE0F901F9018951F920F9254
:1053E0000FB60F9211242F938F939F93EF93FF93F8
:1053F000E091D806F091D9068081E091DE06F09127
:10540000DF0682FD1BC090818091E1068F5F8F7364
:105410002091E206821741F0E091E106F0E0E853C6
:10542000F94F958F8093E106FF91EF919F918F91B6
:105430002F910F900FBE0F901F9018958081F4CF81
:10544000CF93DF93E8ECF6E01382128288EE93E0CC
:10545000A0E0B0E084839583A683B78388E191E0E0
:105460009183808385EC90E09587848784EC90E03D
:105470009787868780EC90E0918B808B81EC90E021
:10548000938B828B82EC90E0958B848B86EC90E002
:10549000978B868B118E128E138E148E8AE291E07A
:1054A0009093660780936507C7E6D7E080EA8A8312
:1054B0001C8280EA90E00E94C72F998388831B8218
:1054C000DF91CF910895CF93DF93CDB7DEB7A0974B
:1054D0000FB6F894DEBF0FBECDBF789484B582605E
:1054E00084BD84B5816084BD85B5826085BD85B588
:1054F000816085BD80916E00816080936E00109206
:105500008100809181008260809381008091810080
:105510008160809381008091800081608093800011
:105520008091B10084608093B1008091B00081606F
:105530008093B00080917A00846080937A0080919B
:105540007A00826080937A0080917A0081608093F3
:105550007A0080917A00806880937A001092C1006E
:10556000E091D806F091D90682E08083E091D406DC
:10557000F091D5061082E091D606F091D70680E131
:1055800080831092E006E091DC06F091DD0686E073
:105590008083E091DA06F091DB0680818061808370
:1055A000E091DA06F091DB06808188608083E091EB
:1055B000DA06F091DB06808180688083E091DA066C
:1055C000F091DB0680818F7D808364E670E080E06F
:1055D00090E00E940A0389EA92E00E94FD08E4EC50
:1055E000F6E084E0DF011D928A95E9F786E091E01C
:1055F000909307038093060385E697E09093F1026A
:105600008093F00261E08AE00E94860261E08AE015
:105610000E94B40260E089E00E94B40260E082E08F
:105620000E94B40260E086E00E94B40260E087E07D
:105630000E94B4021FB7F8948091EF02811127C035
:10564000EEEDF2E08491E2EFF2E09491E82FF0E0E9
:10565000EE0FFF1FE054FD4FA591B491EC91E923AB
:1056600021F461E08AE00E94860261E08AE00E9403
:10567000B4028CB580618CBD8CB580648CBD61E05A
:105680008DE00E94B40261E08BE00E94B402809140
:10569000EF028F5F8093EF021FBFE1EEF2E08EE03A
:1056A000DF011D928A95E9F788E994E09093EA0278
:1056B0008093E90282E08093E402F0936F07E09325
:1056C0006E0781E00E94DF05009106031091070339
:1056D000F80182818F3F49F060E00E94860261E01C
:1056E000D80112968C910E94B4020E94A704625CB9
:1056F0007F4F8F4F9F4F0E945305F80182818F3F4C
:1057000019F060E00E94B4020E94A704685C7E4F1A
:105710008F4F9F4F0E94530580E00E946E0C82E4E1
:105720000E942A0B823109F05FC28091F0029091B1
:10573000F102DC01ED91FC910680F781E02D0995E5
:10574000882341F08BE40E942A0B682F60618BE470
:105750000E943C0B82E00E945A1481E00E942A0BB6
:1057600087708530D1F701ED12E0A8E0EA2EF12C28
:105770008CE20E942A0B8170D82E8CE20E942A0BA8
:105780008170D816A9F3F8018181880F8D29818352
:10579000F1E0EF1AF10861F70F5F1F4F42E0003EA2
:1057A000140719F710E11093D10280E00E946E0CEB
:1057B00080E490E090936904809368040E94AA12A8
:1057C00040E150E069E972E0CE0141960E94002E6E
:1057D00040E150E069E872E0CE0101960E94002E9F
:1057E00083E190E0A0E0B0E080938C0390938D0380
:1057F000A0938E03B0938F038CED92ECABE0B6E2F6
:105800008093900390939103A0939203B09393039A
:10581000FE013196AFE8B5E0812F01900D928A9597
:10582000E1F7FE017196AFE9B5E001900D921A958E
:10583000E1F780E00E94F41080916804909169047F
:1058400089759D7B986090936904809368040E9499
:10585000FC0790E080E00E94AA0701E02FE330E01F
:1058600040EA57E26EEB73E380E00E949F0C2FE763
:1058700030E040EE54E361EC73E381E00E949F0C62
:105880002FE330E040E252E464EC73E382E00E94F4
:105890009F0C2FE330E040E655EE6EEA73E383E0C1
:1058A0000E949F0C2FE330E040EA52EF61EB73E37C
:1058B00084E00E949F0C2FE330E040EE5FEF64EB4A
:1058C00073E385E00E949F0C2FE330E040E25DE04F
:1058D00068EB73E386E00E949F0C2FE330E040E624
:1058E0005AE16BEB73E387E00E949F0C00E020E835
:1058F00030E040E056ED68EC73E388E00E949F0CD6
:1059000086E592E00E94F00884E391E00E94F008AE
:105910001092B10580E89FEF90936D0480936C0422
:1059200083E08093B8056EE085E00E94FD0682EF7B
:1059300092E00E946C23EFE0BE2EF0E0CF2EF0E06C
:10594000DF2E7AEFE72E72E0F72E10E000E0E09114
:105950000603F0910703E00FF11F83818F3FC9F128
:10596000D7014D905D906D907C904114510461047D
:10597000710479F1F701108211821282138281E0A1
:105980000E942A0B87FFCEC082E10E942A0B8093DF
:10599000C30683FF45C0F2E04F1A51086108710841
:1059A000409278035092790360927A0370927B035D
:1059B0006FEF81E10E943C0B6FEF82E10E943C0B94
:1059C00080E00E946E0C80914503909146030E94F6
:1059D00020060F5F1F4FE4E0EE0EF11C03301105AF
:1059E00009F0B5CF0E94A0040091C6061091C70629
:1059F0000115110509F4C9C0D8018D919C919093AE
:105A0000C7068093C6060E94CB040115110509F450
:105A1000DFC0D8011696ED91FC91C8010995D8C058
:105A200086FF7BC0E0916604F0916704CF0163E0DC
:105A3000969587956A95E1F7837061F4E770F0E0D9
:105A4000EE0FFF1FEE54FD4F85919491481A590AAD
:105A50006108710840927C0350927D0360927E033E
:105A600070927F038DE10E942A0B80FF45C082E285
:105A70000E942A0B8093C10580E10E942A0B682FA7
:105A80008DE00E943C0B4091C10550E021E062ECAA
:105A900075E080E00E94C10A89E10E942A0B809390
:105AA00078048AE10E942A0B282F30E04091840379
:105AB00050918503609186037091870341345D4D59
:105AC0006A447F41D8F02D5931099091780497FFAD
:105AD00018C0A92FBB27A1950CF4B095CD019595C1
